{
  "_format": "hh-sol-artifact-1",
  "contractName": "ChannelLogic",
  "sourceName": "contracts/ChannelLogic.sol",
  "abi": [
    {
      "anonymous": false,
      "inputs": [],
      "name": "ChannelClose",
      "type": "event"
    },
    {
      "anonymous": false,
      "inputs": [
        {
          "indexed": false,
          "internalType": "bool",
          "name": "senderIsA",
          "type": "bool"
        },
        {
          "indexed": false,
          "internalType": "uint256",
          "name": "amount",
          "type": "uint256"
        }
      ],
      "name": "ChannelFund",
      "type": "event"
    },
    {
      "anonymous": false,
      "inputs": [],
      "name": "ChannelOpen",
      "type": "event"
    },
    {
      "anonymous": false,
      "inputs": [],
      "name": "ChannelWithdraw",
      "type": "event"
    },
    {
      "anonymous": false,
      "inputs": [
        {
          "indexed": false,
          "internalType": "uint256",
          "name": "newBalance",
          "type": "uint256"
        }
      ],
      "name": "ContractBalanceUpdated",
      "type": "event"
    },
    {
      "anonymous": false,
      "inputs": [],
      "name": "loanHappend",
      "type": "event"
    },
    {
      "inputs": [],
      "name": "channel_count",
      "outputs": [
        {
          "internalType": "int256",
          "name": "",
          "type": "int256"
        }
      ],
      "stateMutability": "view",
      "type": "function"
    },
    {
      "inputs": [
        {
          "internalType": "uint256",
          "name": "",
          "type": "uint256"
        }
      ],
      "name": "channels",
      "outputs": [
        {
          "components": [
            {
              "internalType": "uint256",
              "name": "channel_id",
              "type": "uint256"
            },
            {
              "internalType": "uint256",
              "name": "balance_A",
              "type": "uint256"
            },
            {
              "internalType": "uint256",
              "name": "balance_B",
              "type": "uint256"
            },
            {
              "internalType": "int256",
              "name": "version_num",
              "type": "int256"
            },
            {
              "internalType": "bool",
              "name": "finalized",
              "type": "bool"
            }
          ],
          "internalType": "struct Channel_State",
          "name": "state",
          "type": "tuple"
        },
        {
          "components": [
            {
              "components": [
                {
                  "internalType": "address payable",
                  "name": "addresse",
                  "type": "address"
                }
              ],
              "internalType": "struct Participant",
              "name": "participant_a",
              "type": "tuple"
            },
            {
              "components": [
                {
                  "internalType": "address payable",
                  "name": "addresse",
                  "type": "address"
                }
              ],
              "internalType": "struct Participant",
              "name": "participant_b",
              "type": "tuple"
            }
          ],
          "internalType": "struct Channel_Params",
          "name": "params",
          "type": "tuple"
        },
        {
          "components": [
            {
              "internalType": "bool",
              "name": "funded_a",
              "type": "bool"
            },
            {
              "internalType": "bool",
              "name": "funded_b",
              "type": "bool"
            },
            {
              "internalType": "bool",
              "name": "withdrawed_a",
              "type": "bool"
            },
            {
              "internalType": "bool",
              "name": "withdrawed_b",
              "type": "bool"
            },
            {
              "internalType": "uint256",
              "name": "sum_of_balances",
              "type": "uint256"
            },
            {
              "internalType": "bool",
              "name": "closed",
              "type": "bool"
            }
          ],
          "internalType": "struct Channel_Control",
          "name": "control",
          "type": "tuple"
        }
      ],
      "stateMutability": "view",
      "type": "function"
    },
    {
      "inputs": [
        {
          "components": [
            {
              "internalType": "uint256",
              "name": "channel_id",
              "type": "uint256"
            },
            {
              "internalType": "uint256",
              "name": "balance_A",
              "type": "uint256"
            },
            {
              "internalType": "uint256",
              "name": "balance_B",
              "type": "uint256"
            },
            {
              "internalType": "int256",
              "name": "version_num",
              "type": "int256"
            },
            {
              "internalType": "bool",
              "name": "finalized",
              "type": "bool"
            }
          ],
          "internalType": "struct Channel_State",
          "name": "finalState",
          "type": "tuple"
        }
      ],
      "name": "close",
      "outputs": [],
      "stateMutability": "nonpayable",
      "type": "function"
    },
    {
      "inputs": [
        {
          "internalType": "uint256",
          "name": "amount",
          "type": "uint256"
        }
      ],
      "name": "flashFee",
      "outputs": [
        {
          "internalType": "uint256",
          "name": "",
          "type": "uint256"
        }
      ],
      "stateMutability": "view",
      "type": "function"
    },
    {
      "inputs": [
        {
          "internalType": "contract FlashBorrower",
          "name": "receiver",
          "type": "address"
        },
        {
          "internalType": "uint256",
          "name": "amount",
          "type": "uint256"
        }
      ],
      "name": "flashLoan",
      "outputs": [
        {
          "internalType": "bool",
          "name": "",
          "type": "bool"
        }
      ],
      "stateMutability": "nonpayable",
      "type": "function"
    },
    {
      "inputs": [
        {
          "internalType": "uint256",
          "name": "channel_id",
          "type": "uint256"
        }
      ],
      "name": "fund",
      "outputs": [],
      "stateMutability": "payable",
      "type": "function"
    },
    {
      "inputs": [],
      "name": "maxFlashLoan",
      "outputs": [
        {
          "internalType": "uint256",
          "name": "",
          "type": "uint256"
        }
      ],
      "stateMutability": "view",
      "type": "function"
    },
    {
      "inputs": [
        {
          "components": [
            {
              "components": [
                {
                  "internalType": "address payable",
                  "name": "addresse",
                  "type": "address"
                }
              ],
              "internalType": "struct Participant",
              "name": "participant_a",
              "type": "tuple"
            },
            {
              "components": [
                {
                  "internalType": "address payable",
                  "name": "addresse",
                  "type": "address"
                }
              ],
              "internalType": "struct Participant",
              "name": "participant_b",
              "type": "tuple"
            }
          ],
          "internalType": "struct Channel_Params",
          "name": "params",
          "type": "tuple"
        },
        {
          "components": [
            {
              "internalType": "uint256",
              "name": "channel_id",
              "type": "uint256"
            },
            {
              "internalType": "uint256",
              "name": "balance_A",
              "type": "uint256"
            },
            {
              "internalType": "uint256",
              "name": "balance_B",
              "type": "uint256"
            },
            {
              "internalType": "int256",
              "name": "version_num",
              "type": "int256"
            },
            {
              "internalType": "bool",
              "name": "finalized",
              "type": "bool"
            }
          ],
          "internalType": "struct Channel_State",
          "name": "state",
          "type": "tuple"
        }
      ],
      "name": "open",
      "outputs": [],
      "stateMutability": "nonpayable",
      "type": "function"
    },
    {
      "inputs": [
        {
          "internalType": "uint256",
          "name": "",
          "type": "uint256"
        }
      ],
      "name": "participants",
      "outputs": [
        {
          "internalType": "address payable",
          "name": "addresse",
          "type": "address"
        }
      ],
      "stateMutability": "view",
      "type": "function"
    },
    {
      "inputs": [],
      "name": "payBack",
      "outputs": [
        {
          "internalType": "bool",
          "name": "",
          "type": "bool"
        }
      ],
      "stateMutability": "payable",
      "type": "function"
    },
    {
      "inputs": [
        {
          "internalType": "uint256",
          "name": "channel_id",
          "type": "uint256"
        }
      ],
      "name": "withdraw",
      "outputs": [],
      "stateMutability": "nonpayable",
      "type": "function"
    },
    {
      "stateMutability": "payable",
      "type": "receive"
    }
  ],
  "bytecode": "0x60806040526103e86000556000600255600060035534801561002057600080fd5b506136a2806100306000396000f3fe6080604052600436106100a05760003560e01c8063a7af467a11610064578063a7af467a146101cf578063b72a411a1461020c578063c8d5372114610235578063ca1d209d14610260578063e3026a811461027c578063e5949b5d146102a5576100de565b8063019f64cc146100e3578063242c127c146101015780632e1a7d4d1461012c57806335c1d349146101555780639d9e465c14610192576100de565b366100de577f0f3e6fb3ceb369618319f4cdcb672be913a6ce581123b8488c5ee84a3f3b48f3346040516100d491906121a8565b60405180910390a1005b600080fd5b6100eb6102e4565b6040516100f891906121de565b60405180910390f35b34801561010d57600080fd5b5061011661034c565b60405161012391906121a8565b60405180910390f35b34801561013857600080fd5b50610153600480360381019061014e9190612234565b61035b565b005b34801561016157600080fd5b5061017c60048036038101906101779190612234565b61084e565b60405161018991906122a2565b60405180910390f35b34801561019e57600080fd5b506101b960048036038101906101b4919061230d565b610898565b6040516101c691906121de565b60405180910390f35b3480156101db57600080fd5b506101f660048036038101906101f19190612234565b610ae7565b60405161020391906121a8565b60405180910390f35b34801561021857600080fd5b50610233600480360381019061022e9190612371565b610af9565b005b34801561024157600080fd5b5061024a6111f7565b60405161025791906123b7565b60405180910390f35b61027a60048036038101906102759190612234565b6111fd565b005b34801561028857600080fd5b506102a3600480360381019061029e91906123f1565b6116b9565b005b3480156102b157600080fd5b506102cc60048036038101906102c79190612234565b611b2c565b6040516102db9392919061259b565b60405180910390f35b6000600654341461032a576040517f08c379a000000000000000000000000000000000000000000000000000000000815260040161032190612656565b60405180910390fd5b6001600760006101000a81548160ff0219169083151502179055506001905090565b6000610356611d1c565b905090565b6000600460008381526020019081526020016000209050818160000160000154146103bb576040517f08c379a00000000000000000000000000000000000000000000000000000000081526004016103b2906126c2565b60405180910390fd5b3373ffffffffffffffffffffffffffffffffffffffff168160050160000160000160009054906101000a900473ffffffffffffffffffffffffffffffffffffffff1673ffffffffffffffffffffffffffffffffffffffff16148061047457503373ffffffffffffffffffffffffffffffffffffffff168160050160010160000160009054906101000a900473ffffffffffffffffffffffffffffffffffffffff1673ffffffffffffffffffffffffffffffffffffffff16145b6104b3576040517f08c379a00000000000000000000000000000000000000000000000000000000081526004016104aa90612754565b60405180910390fd5b8060070160020160009054906101000a900460ff16610507576040517f08c379a00000000000000000000000000000000000000000000000000000000081526004016104fe906127e6565b60405180910390fd5b60008160050160000160000160009054906101000a900473ffffffffffffffffffffffffffffffffffffffff1673ffffffffffffffffffffffffffffffffffffffff163373ffffffffffffffffffffffffffffffffffffffff16149050600081610578578260000160020154610581565b82600001600101545b9050600081116105c6576040517f08c379a00000000000000000000000000000000000000000000000000000000081526004016105bd90612878565b60405180910390fd5b81156106f6578260070160000160029054906101000a900460ff1615610621576040517f08c379a00000000000000000000000000000000000000000000000000000000081526004016106189061290a565b60405180910390fd5b60018360070160000160026101000a81548160ff0219169083151502179055506000803373ffffffffffffffffffffffffffffffffffffffff16836040516106689061295b565b60006040518083038185875af1925050503d80600081146106a5576040519150601f19603f3d011682016040523d82523d6000602084013e6106aa565b606091505b5091509150816106ef576040517f08c379a00000000000000000000000000000000000000000000000000000000081526004016106e6906129bc565b60405180910390fd5b505061081c565b8260070160000160039054906101000a900460ff161561074b576040517f08c379a00000000000000000000000000000000000000000000000000000000081526004016107429061290a565b60405180910390fd5b60018360070160000160036101000a81548160ff0219169083151502179055506000803373ffffffffffffffffffffffffffffffffffffffff16836040516107929061295b565b60006040518083038185875af1925050503d80600081146107cf576040519150601f19603f3d011682016040523d82523d6000602084013e6107d4565b606091505b509150915081610819576040517f08c379a0000000000000000000000000000000000000000000000000000000008152600401610810906129bc565b60405180910390fd5b50505b7ff4e42c6379370115781872be13360a00ea462056c2f9f55b769625ddfd16e77260405160405180910390a150505050565b6001818154811061085e57600080fd5b906000526020600020016000915090508060000160009054906101000a900473ffffffffffffffffffffffffffffffffffffffff16905081565b60006108a2611d1c565b670de0b6b3a7640000836108b69190612a0b565b11156108f7576040517f08c379a00000000000000000000000000000000000000000000000000000000081526004016108ee90612ae5565b60405180910390fd5b60004790506000600760006101000a81548160ff0219169083151502179055506000803373ffffffffffffffffffffffffffffffffffffffff16670de0b6b3a7640000866109459190612a0b565b6040516109519061295b565b60006040518083038185875af1925050503d806000811461098e576040519150601f19603f3d011682016040523d82523d6000602084013e610993565b606091505b5091509150670de0b6b3a76400006109aa86611d24565b866109b59190612b05565b6109bf9190612a0b565b6006819055508573ffffffffffffffffffffffffffffffffffffffff16636d2b653f33876109ec89611d24565b6040518463ffffffff1660e01b8152600401610a0a93929190612b48565b6020604051808303816000875af1158015610a29573d6000803e3d6000fd5b505050506040513d601f19601f82011682018060405250810190610a4d9190612bab565b50600760009054906101000a900460ff16610a9d576040517f08c379a0000000000000000000000000000000000000000000000000000000008152600401610a9490612c24565b60405180910390fd5b610aae610aa986611d24565b611d48565b7fd27bb4cd7540ec377599ff260c9cc3354ced40df3d7b901faf87124179f5ee0e60405160405180910390a16001935050505092915050565b6000610af282611d24565b9050919050565b60006004600083600001358152602001908152602001600020604051806060016040529081600082016040518060a0016040529081600082015481526020016001820154815260200160028201548152602001600382015481526020016004820160009054906101000a900460ff161515151581525050815260200160058201604051806040016040529081600082016040518060200160405290816000820160009054906101000a900473ffffffffffffffffffffffffffffffffffffffff1673ffffffffffffffffffffffffffffffffffffffff1673ffffffffffffffffffffffffffffffffffffffff16815250508152602001600182016040518060200160405290816000820160009054906101000a900473ffffffffffffffffffffffffffffffffffffffff1673ffffffffffffffffffffffffffffffffffffffff1673ffffffffffffffffffffffffffffffffffffffff1681525050815250508152602001600782016040518060c00160405290816000820160009054906101000a900460ff161515151581526020016000820160019054906101000a900460ff161515151581526020016000820160029054906101000a900460ff161515151581526020016000820160039054906101000a900460ff16151515158152602001600182015481526020016002820160009054906101000a900460ff161515151581525050815250509050816000013581600001516000015114610d51576040517f08c379a0000000000000000000000000000000000000000000000000000000008152600401610d48906126c2565b60405180910390fd5b3373ffffffffffffffffffffffffffffffffffffffff168160200151600001516000015173ffffffffffffffffffffffffffffffffffffffff161480610dce57503373ffffffffffffffffffffffffffffffffffffffff168160200151602001516000015173ffffffffffffffffffffffffffffffffffffffff16145b610e0d576040517f08c379a0000000000000000000000000000000000000000000000000000000008152600401610e0490612754565b60405180910390fd5b816080016020810190610e209190612c59565b610e5f576040517f08c379a0000000000000000000000000000000000000000000000000000000008152600401610e5690612cd2565b60405180910390fd5b806040015160a0015115610ea8576040517f08c379a0000000000000000000000000000000000000000000000000000000008152600401610e9f90612d64565b60405180910390fd5b80604001516080015182604001358360200135610ec59190612b05565b14610f05576040517f08c379a0000000000000000000000000000000000000000000000000000000008152600401610efc90612e1c565b60405180910390fd5b81803603810190610f169190612f85565b81600001819052506001816040015160a001901515908115158152505060008160200151600001516000015173ffffffffffffffffffffffffffffffffffffffff163373ffffffffffffffffffffffffffffffffffffffff16149050600081610f8757826000015160400151610f91565b8260000151602001515b905060008111156111c55781156110b55782604001516040015115610feb576040517f08c379a0000000000000000000000000000000000000000000000000000000008152600401610fe29061290a565b60405180910390fd5b6001836040015160400190151590811515815250506000803373ffffffffffffffffffffffffffffffffffffffff16836040516110279061295b565b60006040518083038185875af1925050503d8060008114611064576040519150601f19603f3d011682016040523d82523d6000602084013e611069565b606091505b5091509150816110ae576040517f08c379a00000000000000000000000000000000000000000000000000000000081526004016110a5906129bc565b60405180910390fd5b50506111c4565b826040015160600151156110fe576040517f08c379a00000000000000000000000000000000000000000000000000000000081526004016110f59061290a565b60405180910390fd5b6001836040015160600190151590811515815250506000803373ffffffffffffffffffffffffffffffffffffffff168360405161113a9061295b565b60006040518083038185875af1925050503d8060008114611177576040519150601f19603f3d011682016040523d82523d6000602084013e61117c565b606091505b5091509150816111c1576040517f08c379a00000000000000000000000000000000000000000000000000000000081526004016111b8906129bc565b60405180910390fd5b50505b5b7f63553cd67b42375701691fc25657e232c2f052da26ac1dedce404476404a56c060405160405180910390a150505050565b60025481565b60006004600083815260200190815260200160002090508181600001600001541461125d576040517f08c379a0000000000000000000000000000000000000000000000000000000008152600401611254906126c2565b60405180910390fd5b3373ffffffffffffffffffffffffffffffffffffffff168160050160000160000160009054906101000a900473ffffffffffffffffffffffffffffffffffffffff1673ffffffffffffffffffffffffffffffffffffffff16148061131657503373ffffffffffffffffffffffffffffffffffffffff168160050160010160000160009054906101000a900473ffffffffffffffffffffffffffffffffffffffff1673ffffffffffffffffffffffffffffffffffffffff16145b611355576040517f08c379a000000000000000000000000000000000000000000000000000000000815260040161134c90612754565b60405180910390fd5b60008160050160000160000160009054906101000a900473ffffffffffffffffffffffffffffffffffffffff1673ffffffffffffffffffffffffffffffffffffffff163373ffffffffffffffffffffffffffffffffffffffff16149050801561141857600015158260070160000160009054906101000a900460ff16151514611413576040517f08c379a000000000000000000000000000000000000000000000000000000000815260040161140a90613024565b60405180910390fd5b611474565b600015158260070160000160019054906101000a900460ff16151514611473576040517f08c379a000000000000000000000000000000000000000000000000000000000815260040161146a90613024565b60405180910390fd5b5b600015158260000160040160009054906101000a900460ff161515146114cf576040517f08c379a00000000000000000000000000000000000000000000000000000000081526004016114c690613090565b60405180910390fd5b600034905060008111611517576040517f08c379a000000000000000000000000000000000000000000000000000000000815260040161150e906130fc565b60405180910390fd5b81156115b05780836000016001018190555060018360070160000160006101000a81548160ff0219169083151502179055506115726040518060600160405280603781526020016135de603791398460000160010154611ed6565b7f15962eab8e35ee59d6efe04904ec7a4c85d72704c15c8fb34e7a1c8fe61d045382826040516115a392919061311c565b60405180910390a161163f565b80836000016002018190555060018360070160000160016101000a81548160ff021916908315150217905550611605604051806060016040528060378152602001613636603791398460000160020154611ed6565b7f15962eab8e35ee59d6efe04904ec7a4c85d72704c15c8fb34e7a1c8fe61d0453828260405161163692919061311c565b60405180910390a15b808360070160010160008282546116569190612b05565b925050819055506116b36040518060400160405280601681526020017f5468656972206e65772062616c616e63652069733a20000000000000000000008152503373ffffffffffffffffffffffffffffffffffffffff1631611ed6565b50505050565b80600001356004600083600001358152602001908152602001600020600001600001540361171c576040517f08c379a000000000000000000000000000000000000000000000000000000000815260040161171390613191565b60405180910390fd5b60001515611750836000018036038101906117379190613219565b8460200180360381019061174b9190613219565b611f72565b151514611792576040517f08c379a000000000000000000000000000000000000000000000000000000000815260040161178990613292565b60405180910390fd5b60008160600135146117d9576040517f08c379a00000000000000000000000000000000000000000000000000000000081526004016117d0906132fe565b60405180910390fd5b600015158160800160208101906117f09190612c59565b151514611832576040517f08c379a000000000000000000000000000000000000000000000000000000000815260040161182990613090565b60405180910390fd5b61183a612092565b8180360381019061184b9190612f85565b816000018190525082803603810190611864919061336e565b81602001819052506000816040015160000190151590811515815250506000816040015160200190151590811515815250506000816040015160400190151590811515815250506000816040015160600190151590811515815250506000816040015160a0019015159081151581525050600081604001516080018181525050600260008154809291906118f79061339b565b91905055508060046000846000013581526020019081526020016000206000820151816000016000820151816000015560208201518160010155604082015181600201556060820151816003015560808201518160040160006101000a81548160ff021916908315150217905550505060208201518160050160008201518160000160008201518160000160006101000a81548173ffffffffffffffffffffffffffffffffffffffff021916908373ffffffffffffffffffffffffffffffffffffffff160217905550505060208201518160010160008201518160000160006101000a81548173ffffffffffffffffffffffffffffffffffffffff021916908373ffffffffffffffffffffffffffffffffffffffff1602179055505050505060408201518160070160008201518160000160006101000a81548160ff02191690831515021790555060208201518160000160016101000a81548160ff02191690831515021790555060408201518160000160026101000a81548160ff02191690831515021790555060608201518160000160036101000a81548160ff0219169083151502179055506080820151816001015560a08201518160020160006101000a81548160ff02191690831515021790555050509050506005826000013590806001815401808255809150506001900390600052602060002001600090919091909150557f6b3cb66dd3b05a5d6d883902e05aaf7c9b58fdccac36fd8036693fd6bf5c740960405160405180910390a1505050565b6004602052806000526040600020600091509050806000016040518060a0016040529081600082015481526020016001820154815260200160028201548152602001600382015481526020016004820160009054906101000a900460ff1615151515815250509080600501604051806040016040529081600082016040518060200160405290816000820160009054906101000a900473ffffffffffffffffffffffffffffffffffffffff1673ffffffffffffffffffffffffffffffffffffffff1673ffffffffffffffffffffffffffffffffffffffff16815250508152602001600182016040518060200160405290816000820160009054906101000a900473ffffffffffffffffffffffffffffffffffffffff1673ffffffffffffffffffffffffffffffffffffffff1673ffffffffffffffffffffffffffffffffffffffff16815250508152505090806007016040518060c00160405290816000820160009054906101000a900460ff161515151581526020016000820160019054906101000a900460ff161515151581526020016000820160029054906101000a900460ff161515151581526020016000820160039054906101000a900460ff16151515158152602001600182015481526020016002820160009054906101000a900460ff161515151581525050905083565b600047905090565b600061271060005483611d379190612a0b565b611d419190613412565b9050919050565b611d866040518060400160405280601a81526020017f52656163686564206368616e6e656c4469737472696275746f72000000000000815250611fb3565b60005b600580549050811015611ed25760006004600060058481548110611db057611daf613443565b5b906000526020600020015481526020019081526020016000209050611e116040518060400160405280601781526020017f73756d206f662062616c616e636573206461766f723a200000000000000000008152508260070160010154611ed6565b670de0b6b3a7640000606484670de0b6b3a764000086611e319190612a0b565b47611e3c9190613472565b60648560070160010154611e509190612a0b565b611e5a9190613412565b611e649190612a0b565b611e6e9190613412565b611e789190612a0b565b816007016001016000828254611e8e9190612b05565b92505081905550611ebe604051806060016040528060218152602001613615602191398260070160010154611ed6565b508080611eca906134a6565b915050611d89565b5050565b611f6e8282604051602401611eec92919061355c565b6040516020818303038152906040527fb60e72cc000000000000000000000000000000000000000000000000000000007bffffffffffffffffffffffffffffffffffffffffffffffffffffffff19166020820180517bffffffffffffffffffffffffffffffffffffffffffffffffffffffff838183161783525050505061204c565b5050565b6000816000015173ffffffffffffffffffffffffffffffffffffffff16836000015173ffffffffffffffffffffffffffffffffffffffff1614905092915050565b61204981604051602401611fc7919061358c565b6040516020818303038152906040527f41304fac000000000000000000000000000000000000000000000000000000007bffffffffffffffffffffffffffffffffffffffffffffffffffffffff19166020820180517bffffffffffffffffffffffffffffffffffffffffffffffffffffffff838183161783525050505061204c565b50565b6120638161205b612066612087565b63ffffffff16565b50565b60006a636f6e736f6c652e6c6f679050600080835160208501845afa505050565b6120c5819050919050565b60405180606001604052806120a56120cf565b81526020016120b2612100565b81526020016120bf612126565b81525090565b6120cd6135ae565b565b6040518060a00160405280600081526020016000815260200160008152602001600081526020016000151581525090565b6040518060400160405280612113612166565b8152602001612120612166565b81525090565b6040518060c00160405280600015158152602001600015158152602001600015158152602001600015158152602001600081526020016000151581525090565b6040518060200160405280600073ffffffffffffffffffffffffffffffffffffffff1681525090565b6000819050919050565b6121a28161218f565b82525050565b60006020820190506121bd6000830184612199565b92915050565b60008115159050919050565b6121d8816121c3565b82525050565b60006020820190506121f360008301846121cf565b92915050565b6000604051905090565b600080fd5b6122118161218f565b811461221c57600080fd5b50565b60008135905061222e81612208565b92915050565b60006020828403121561224a57612249612203565b5b60006122588482850161221f565b91505092915050565b600073ffffffffffffffffffffffffffffffffffffffff82169050919050565b600061228c82612261565b9050919050565b61229c81612281565b82525050565b60006020820190506122b76000830184612293565b92915050565b60006122c882612261565b9050919050565b60006122da826122bd565b9050919050565b6122ea816122cf565b81146122f557600080fd5b50565b600081359050612307816122e1565b92915050565b6000806040838503121561232457612323612203565b5b6000612332858286016122f8565b92505060206123438582860161221f565b9150509250929050565b600080fd5b600060a082840312156123685761236761234d565b5b81905092915050565b600060a0828403121561238757612386612203565b5b600061239584828501612352565b91505092915050565b6000819050919050565b6123b18161239e565b82525050565b60006020820190506123cc60008301846123a8565b92915050565b6000604082840312156123e8576123e761234d565b5b81905092915050565b60008060e0838503121561240857612407612203565b5b6000612416858286016123d2565b925050604061242785828601612352565b9150509250929050565b61243a8161218f565b82525050565b6124498161239e565b82525050565b612458816121c3565b82525050565b60a0820160008201516124746000850182612431565b5060208201516124876020850182612431565b50604082015161249a6040850182612431565b5060608201516124ad6060850182612440565b5060808201516124c0608085018261244f565b50505050565b6124cf81612281565b82525050565b6020820160008201516124eb60008501826124c6565b50505050565b60408201600082015161250760008501826124d5565b50602082015161251a60208501826124d5565b50505050565b60c082016000820151612536600085018261244f565b506020820151612549602085018261244f565b50604082015161255c604085018261244f565b50606082015161256f606085018261244f565b5060808201516125826080850182612431565b5060a082015161259560a085018261244f565b50505050565b60006101a0820190506125b1600083018661245e565b6125be60a08301856124f1565b6125cb60e0830184612520565b949350505050565b600082825260208201905092915050565b7f446964206e6f742073656e642073756666696369656e742066756e647320746f60008201527f20706179206261636b2074686520666c617368206c6f616e0000000000000000602082015250565b60006126406038836125d3565b915061264b826125e4565b604082019050919050565b6000602082019050818103600083015261266f81612633565b9050919050565b7f4368616e6e656c20646f6573206e6f7420657869737400000000000000000000600082015250565b60006126ac6016836125d3565b91506126b782612676565b602082019050919050565b600060208201905081810360008301526126db8161269f565b9050919050565b7f53656e646572206973206e6f742061207061727469636970616e74206f66207460008201527f686520676976656e206368616e6e656c00000000000000000000000000000000602082015250565b600061273e6030836125d3565b9150612749826126e2565b604082019050919050565b6000602082019050818103600083015261276d81612731565b9050919050565b7f4368616e6e656c20686173206e6f74206265656e20636c6f736564207965742c60008201527f2075736520636c6f736520696e73746561640000000000000000000000000000602082015250565b60006127d06032836125d3565b91506127db82612774565b604082019050919050565b600060208201905081810360008301526127ff816127c3565b9050919050565b7f5468657265206973206e6f2062616c616e636520666f7220796f7520696e207460008201527f686973206368616e6e656c20746f207769746864726177000000000000000000602082015250565b60006128626037836125d3565b915061286d82612806565b604082019050919050565b6000602082019050818103600083015261289181612855565b9050919050565b7f53656e6465722068617320616c72656164792077697468647261776e2074686560008201527f69722062616c616e636500000000000000000000000000000000000000000000602082015250565b60006128f4602a836125d3565b91506128ff82612898565b604082019050919050565b60006020820190508181036000830152612923816128e7565b9050919050565b600081905092915050565b50565b600061294560008361292a565b915061295082612935565b600082019050919050565b600061296682612938565b9150819050919050565b7f5472616e73666572206661696c65640000000000000000000000000000000000600082015250565b60006129a6600f836125d3565b91506129b182612970565b602082019050919050565b600060208201905081810360008301526129d581612999565b9050919050565b7f4e487b7100000000000000000000000000000000000000000000000000000000600052601160045260246000fd5b6000612a168261218f565b9150612a218361218f565b9250828202612a2f8161218f565b91508282048414831517612a4657612a456129dc565b5b5092915050565b7f416d6f756e7420657863656564732074686520666c617368206c6f616e206c6960008201527f6d69742c2074727920746f2063686f6f7365206120736d616c6c657220616d6f60208201527f756e740000000000000000000000000000000000000000000000000000000000604082015250565b6000612acf6043836125d3565b9150612ada82612a4d565b606082019050919050565b60006020820190508181036000830152612afe81612ac2565b9050919050565b6000612b108261218f565b9150612b1b8361218f565b9250828201905080821115612b3357612b326129dc565b5b92915050565b612b42816122bd565b82525050565b6000606082019050612b5d6000830186612b39565b612b6a6020830185612199565b612b776040830184612199565b949350505050565b612b88816121c3565b8114612b9357600080fd5b50565b600081519050612ba581612b7f565b92915050565b600060208284031215612bc157612bc0612203565b5b6000612bcf84828501612b96565b91505092915050565b7f5061796261636b20646964206e6f742068617070656e206f72206661696c6564600082015250565b6000612c0e6020836125d3565b9150612c1982612bd8565b602082019050919050565b60006020820190508181036000830152612c3d81612c01565b9050919050565b600081359050612c5381612b7f565b92915050565b600060208284031215612c6f57612c6e612203565b5b6000612c7d84828501612c44565b91505092915050565b7f4368616e6e656c206973206e6f74207965742066696e616c6973656400000000600082015250565b6000612cbc601c836125d3565b9150612cc782612c86565b602082019050919050565b60006020820190508181036000830152612ceb81612caf565b9050919050565b7f4368616e6e656c2068617320616c7265616479206265656e20636c6f7365642c60008201527f2075736520776974686472617720696e73746561640000000000000000000000602082015250565b6000612d4e6035836125d3565b9150612d5982612cf2565b604082019050919050565b60006020820190508181036000830152612d7d81612d41565b9050919050565b7f5468652073756d206f66207468652062616c616e63657320646f6573206e6f7460008201527f206d61746368207468652073756d206f66207468652062616c616e636573206960208201527f6e2074686520636f6e74726f6c20737472756374000000000000000000000000604082015250565b6000612e066054836125d3565b9150612e1182612d84565b606082019050919050565b60006020820190508181036000830152612e3581612df9565b9050919050565b600080fd5b6000601f19601f8301169050919050565b7f4e487b7100000000000000000000000000000000000000000000000000000000600052604160045260246000fd5b612e8a82612e41565b810181811067ffffffffffffffff82111715612ea957612ea8612e52565b5b80604052505050565b6000612ebc6121f9565b9050612ec88282612e81565b919050565b612ed68161239e565b8114612ee157600080fd5b50565b600081359050612ef381612ecd565b92915050565b600060a08284031215612f0f57612f0e612e3c565b5b612f1960a0612eb2565b90506000612f298482850161221f565b6000830152506020612f3d8482850161221f565b6020830152506040612f518482850161221f565b6040830152506060612f6584828501612ee4565b6060830152506080612f7984828501612c44565b60808301525092915050565b600060a08284031215612f9b57612f9a612203565b5b6000612fa984828501612ef9565b91505092915050565b7f53656e6465722068617320616c72656164792066756e6465642074686973206360008201527f68616e6e656c0000000000000000000000000000000000000000000000000000602082015250565b600061300e6026836125d3565b915061301982612fb2565b604082019050919050565b6000602082019050818103600083015261303d81613001565b9050919050565b7f4368616e6e656c2069732066696e616c697a6564000000000000000000000000600082015250565b600061307a6014836125d3565b915061308582613044565b602082019050919050565b600060208201905081810360008301526130a98161306d565b9050919050565b7f43616e6e6f742066756e642061206368616e6e656c2077697468203020457468600082015250565b60006130e66020836125d3565b91506130f1826130b0565b602082019050919050565b60006020820190508181036000830152613115816130d9565b9050919050565b600060408201905061313160008301856121cf565b61313e6020830184612199565b9392505050565b7f4368616e6e656c20616c72656164792065786973747300000000000000000000600082015250565b600061317b6016836125d3565b915061318682613145565b602082019050919050565b600060208201905081810360008301526131aa8161316e565b9050919050565b6131ba81612281565b81146131c557600080fd5b50565b6000813590506131d7816131b1565b92915050565b6000602082840312156131f3576131f2612e3c565b5b6131fd6020612eb2565b9050600061320d848285016131c8565b60008301525092915050565b60006020828403121561322f5761322e612203565b5b600061323d848285016131dd565b91505092915050565b7f5061727469636970616e747320617265207468652073616d6500000000000000600082015250565b600061327c6019836125d3565b915061328782613246565b602082019050919050565b600060208201905081810360008301526132ab8161326f565b9050919050565b7f56657273696f6e206e756d626572206973206e6f742030000000000000000000600082015250565b60006132e86017836125d3565b91506132f3826132b2565b602082019050919050565b60006020820190508181036000830152613317816132db565b9050919050565b60006040828403121561333457613333612e3c565b5b61333e6040612eb2565b9050600061334e848285016131dd565b6000830152506020613362848285016131dd565b60208301525092915050565b60006040828403121561338457613383612203565b5b60006133928482850161331e565b91505092915050565b60006133a68261239e565b91507f7fffffffffffffffffffffffffffffffffffffffffffffffffffffffffffffff82036133d8576133d76129dc565b5b600182019050919050565b7f4e487b7100000000000000000000000000000000000000000000000000000000600052601260045260246000fd5b600061341d8261218f565b91506134288361218f565b925082613438576134376133e3565b5b828204905092915050565b7f4e487b7100000000000000000000000000000000000000000000000000000000600052603260045260246000fd5b600061347d8261218f565b91506134888361218f565b92508282039050818111156134a05761349f6129dc565b5b92915050565b60006134b18261218f565b91507fffffffffffffffffffffffffffffffffffffffffffffffffffffffffffffffff82036134e3576134e26129dc565b5b600182019050919050565b600081519050919050565b60005b838110156135175780820151818401526020810190506134fc565b60008484015250505050565b600061352e826134ee565b61353881856125d3565b93506135488185602086016134f9565b61355181612e41565b840191505092915050565b600060408201905081810360008301526135768185613523565b90506135856020830184612199565b9392505050565b600060208201905081810360008301526135a68184613523565b905092915050565b7f4e487b7100000000000000000000000000000000000000000000000000000000600052605160045260246000fdfe5061727469636970616e74204120686173207375636365737366756c6c792066756e64656420746865206368616e6e656c20776974682053756d206f662062616c616e636573206e6163682064656d205570646174653a205061727469636970616e74204220686173207375636365737366756c6c792066756e64656420746865206368616e6e656c207769746820a26469706673582212203a2f9a7544c8c6cb8754e82ee4789ea0f01beed049d55746663b25d18530d12a64736f6c63430008130033",
  "linkReferences": {},
  "deployedLinkReferences": {}
}