{
  "_format": "hh-sol-artifact-1",
  "contractName": "ChannelLogic",
  "sourceName": "contracts/ChannelLogic.sol",
  "abi": [
    {
      "anonymous": false,
      "inputs": [],
      "name": "ChannelClose",
      "type": "event"
    },
    {
      "anonymous": false,
      "inputs": [],
      "name": "ChannelFund",
      "type": "event"
    },
    {
      "anonymous": false,
      "inputs": [
        {
          "components": [
            {
              "components": [
                {
                  "internalType": "int256",
                  "name": "channel_id",
                  "type": "int256"
                },
                {
                  "internalType": "uint256",
                  "name": "balance_A",
                  "type": "uint256"
                },
                {
                  "internalType": "uint256",
                  "name": "balance_B",
                  "type": "uint256"
                },
                {
                  "internalType": "int256",
                  "name": "version_num",
                  "type": "int256"
                },
                {
                  "internalType": "bool",
                  "name": "finalized",
                  "type": "bool"
                },
                {
                  "internalType": "bool",
                  "name": "closed",
                  "type": "bool"
                }
              ],
              "internalType": "struct Channel_State",
              "name": "state",
              "type": "tuple"
            },
            {
              "components": [
                {
                  "components": [
                    {
                      "internalType": "address payable",
                      "name": "addresse",
                      "type": "address"
                    }
                  ],
                  "internalType": "struct Participant",
                  "name": "participant_a",
                  "type": "tuple"
                },
                {
                  "components": [
                    {
                      "internalType": "address payable",
                      "name": "addresse",
                      "type": "address"
                    }
                  ],
                  "internalType": "struct Participant",
                  "name": "participant_b",
                  "type": "tuple"
                }
              ],
              "internalType": "struct Channel_Params",
              "name": "params",
              "type": "tuple"
            },
            {
              "components": [
                {
                  "internalType": "bool",
                  "name": "funded_a",
                  "type": "bool"
                },
                {
                  "internalType": "bool",
                  "name": "funded_b",
                  "type": "bool"
                },
                {
                  "internalType": "bool",
                  "name": "withdrawed_a",
                  "type": "bool"
                },
                {
                  "internalType": "bool",
                  "name": "withdrawed_b",
                  "type": "bool"
                }
              ],
              "internalType": "struct Channel_Control",
              "name": "control",
              "type": "tuple"
            }
          ],
          "indexed": false,
          "internalType": "struct Channel",
          "name": "channel",
          "type": "tuple"
        }
      ],
      "name": "ChannelOpen",
      "type": "event"
    },
    {
      "anonymous": false,
      "inputs": [],
      "name": "ChannelWithdraw",
      "type": "event"
    },
    {
      "inputs": [],
      "name": "Contract_Balance",
      "outputs": [
        {
          "internalType": "uint256",
          "name": "",
          "type": "uint256"
        }
      ],
      "stateMutability": "view",
      "type": "function"
    },
    {
      "inputs": [
        {
          "internalType": "int256",
          "name": "",
          "type": "int256"
        }
      ],
      "name": "balances",
      "outputs": [
        {
          "internalType": "uint256",
          "name": "",
          "type": "uint256"
        }
      ],
      "stateMutability": "view",
      "type": "function"
    },
    {
      "inputs": [],
      "name": "channel_count",
      "outputs": [
        {
          "internalType": "int256",
          "name": "",
          "type": "int256"
        }
      ],
      "stateMutability": "view",
      "type": "function"
    },
    {
      "inputs": [
        {
          "internalType": "int256",
          "name": "",
          "type": "int256"
        }
      ],
      "name": "channels",
      "outputs": [
        {
          "components": [
            {
              "internalType": "int256",
              "name": "channel_id",
              "type": "int256"
            },
            {
              "internalType": "uint256",
              "name": "balance_A",
              "type": "uint256"
            },
            {
              "internalType": "uint256",
              "name": "balance_B",
              "type": "uint256"
            },
            {
              "internalType": "int256",
              "name": "version_num",
              "type": "int256"
            },
            {
              "internalType": "bool",
              "name": "finalized",
              "type": "bool"
            },
            {
              "internalType": "bool",
              "name": "closed",
              "type": "bool"
            }
          ],
          "internalType": "struct Channel_State",
          "name": "state",
          "type": "tuple"
        },
        {
          "components": [
            {
              "components": [
                {
                  "internalType": "address payable",
                  "name": "addresse",
                  "type": "address"
                }
              ],
              "internalType": "struct Participant",
              "name": "participant_a",
              "type": "tuple"
            },
            {
              "components": [
                {
                  "internalType": "address payable",
                  "name": "addresse",
                  "type": "address"
                }
              ],
              "internalType": "struct Participant",
              "name": "participant_b",
              "type": "tuple"
            }
          ],
          "internalType": "struct Channel_Params",
          "name": "params",
          "type": "tuple"
        },
        {
          "components": [
            {
              "internalType": "bool",
              "name": "funded_a",
              "type": "bool"
            },
            {
              "internalType": "bool",
              "name": "funded_b",
              "type": "bool"
            },
            {
              "internalType": "bool",
              "name": "withdrawed_a",
              "type": "bool"
            },
            {
              "internalType": "bool",
              "name": "withdrawed_b",
              "type": "bool"
            }
          ],
          "internalType": "struct Channel_Control",
          "name": "control",
          "type": "tuple"
        }
      ],
      "stateMutability": "view",
      "type": "function"
    },
    {
      "inputs": [
        {
          "internalType": "int256",
          "name": "channel_id",
          "type": "int256"
        }
      ],
      "name": "close",
      "outputs": [],
      "stateMutability": "nonpayable",
      "type": "function"
    },
    {
      "inputs": [
        {
          "components": [
            {
              "internalType": "int256",
              "name": "channel_id",
              "type": "int256"
            },
            {
              "internalType": "uint256",
              "name": "balance_A",
              "type": "uint256"
            },
            {
              "internalType": "uint256",
              "name": "balance_B",
              "type": "uint256"
            },
            {
              "internalType": "int256",
              "name": "version_num",
              "type": "int256"
            },
            {
              "internalType": "bool",
              "name": "finalized",
              "type": "bool"
            },
            {
              "internalType": "bool",
              "name": "closed",
              "type": "bool"
            }
          ],
          "internalType": "struct Channel_State",
          "name": "newState",
          "type": "tuple"
        }
      ],
      "name": "finalize",
      "outputs": [],
      "stateMutability": "nonpayable",
      "type": "function"
    },
    {
      "inputs": [
        {
          "internalType": "contract FlashBorrower",
          "name": "receiver",
          "type": "address"
        },
        {
          "internalType": "uint256",
          "name": "amount",
          "type": "uint256"
        },
        {
          "internalType": "bytes",
          "name": "data",
          "type": "bytes"
        }
      ],
      "name": "flashLoan",
      "outputs": [
        {
          "internalType": "bool",
          "name": "",
          "type": "bool"
        }
      ],
      "stateMutability": "nonpayable",
      "type": "function"
    },
    {
      "inputs": [
        {
          "internalType": "int256",
          "name": "channel_id",
          "type": "int256"
        }
      ],
      "name": "fund",
      "outputs": [],
      "stateMutability": "payable",
      "type": "function"
    },
    {
      "inputs": [
        {
          "components": [
            {
              "components": [
                {
                  "internalType": "address payable",
                  "name": "addresse",
                  "type": "address"
                }
              ],
              "internalType": "struct Participant",
              "name": "participant_a",
              "type": "tuple"
            },
            {
              "components": [
                {
                  "internalType": "address payable",
                  "name": "addresse",
                  "type": "address"
                }
              ],
              "internalType": "struct Participant",
              "name": "participant_b",
              "type": "tuple"
            }
          ],
          "internalType": "struct Channel_Params",
          "name": "params",
          "type": "tuple"
        },
        {
          "components": [
            {
              "internalType": "int256",
              "name": "channel_id",
              "type": "int256"
            },
            {
              "internalType": "uint256",
              "name": "balance_A",
              "type": "uint256"
            },
            {
              "internalType": "uint256",
              "name": "balance_B",
              "type": "uint256"
            },
            {
              "internalType": "int256",
              "name": "version_num",
              "type": "int256"
            },
            {
              "internalType": "bool",
              "name": "finalized",
              "type": "bool"
            },
            {
              "internalType": "bool",
              "name": "closed",
              "type": "bool"
            }
          ],
          "internalType": "struct Channel_State",
          "name": "state",
          "type": "tuple"
        }
      ],
      "name": "open",
      "outputs": [],
      "stateMutability": "nonpayable",
      "type": "function"
    },
    {
      "inputs": [
        {
          "internalType": "uint256",
          "name": "",
          "type": "uint256"
        }
      ],
      "name": "participants",
      "outputs": [
        {
          "internalType": "address payable",
          "name": "addresse",
          "type": "address"
        }
      ],
      "stateMutability": "view",
      "type": "function"
    },
    {
      "inputs": [
        {
          "internalType": "int256",
          "name": "channel_id",
          "type": "int256"
        }
      ],
      "name": "withdraw",
      "outputs": [],
      "stateMutability": "nonpayable",
      "type": "function"
    },
    {
      "stateMutability": "payable",
      "type": "receive"
    }
  ],
  "bytecode": "0x6080604052600160005547600155600060035534801561001e57600080fd5b50612f618061002e6000396000f3fe6080604052600436106100a05760003560e01c8063b0251f7511610064578063b0251f75146101bd578063c08c2120146101e6578063c8d537211461020f578063e0232b421461023a578063e7fc895314610277578063f6d5c8a014610293576100bf565b80631e265978146100c457806335c1d3491461010357806372142c3b146101405780637e62eab814610169578063a9e3d44414610192576100bf565b366100bf5734600160008282546100b79190611990565b925050819055005b600080fd5b3480156100d057600080fd5b506100eb60048036038101906100e69190611a0e565b6102d0565b6040516100fa93929190611bd0565b60405180910390f35b34801561010f57600080fd5b5061012a60048036038101906101259190611c35565b6104b6565b6040516101379190611c71565b60405180910390f35b34801561014c57600080fd5b5061016760048036038101906101629190611a0e565b610500565b005b34801561017557600080fd5b50610190600480360381019061018b9190611a0e565b610933565b005b34801561019e57600080fd5b506101a7610d2a565b6040516101b49190611c9b565b60405180910390f35b3480156101c957600080fd5b506101e460048036038101906101df9190611cda565b610d30565b005b3480156101f257600080fd5b5061020d60048036038101906102089190611d26565b610eed565b005b34801561021b57600080fd5b506102246112e6565b6040516102319190611d76565b60405180910390f35b34801561024657600080fd5b50610261600480360381019061025c9190611e46565b6112ec565b60405161026e9190611ec9565b60405180910390f35b610291600480360381019061028c9190611a0e565b6112fa565b005b34801561029f57600080fd5b506102ba60048036038101906102b59190611a0e565b611726565b6040516102c79190611c9b565b60405180910390f35b6004602052806000526040600020600091509050806000016040518060c0016040529081600082015481526020016001820154815260200160028201548152602001600382015481526020016004820160009054906101000a900460ff161515151581526020016004820160019054906101000a900460ff1615151515815250509080600501604051806040016040529081600082016040518060200160405290816000820160009054906101000a900473ffffffffffffffffffffffffffffffffffffffff1673ffffffffffffffffffffffffffffffffffffffff1673ffffffffffffffffffffffffffffffffffffffff16815250508152602001600182016040518060200160405290816000820160009054906101000a900473ffffffffffffffffffffffffffffffffffffffff1673ffffffffffffffffffffffffffffffffffffffff1673ffffffffffffffffffffffffffffffffffffffff16815250508152505090806007016040518060800160405290816000820160009054906101000a900460ff161515151581526020016000820160019054906101000a900460ff161515151581526020016000820160029054906101000a900460ff161515151581526020016000820160039054906101000a900460ff161515151581525050905083565b600281815481106104c657600080fd5b906000526020600020016000915090508060000160009054906101000a900473ffffffffffffffffffffffffffffffffffffffff16905081565b600060046000838152602001908152602001600020905081816000016000015414610560576040517f08c379a000000000000000000000000000000000000000000000000000000000815260040161055790611f41565b60405180910390fd5b3373ffffffffffffffffffffffffffffffffffffffff168160050160000160000160009054906101000a900473ffffffffffffffffffffffffffffffffffffffff1673ffffffffffffffffffffffffffffffffffffffff16148061061957503373ffffffffffffffffffffffffffffffffffffffff168160050160010160000160009054906101000a900473ffffffffffffffffffffffffffffffffffffffff1673ffffffffffffffffffffffffffffffffffffffff16145b610658576040517f08c379a000000000000000000000000000000000000000000000000000000000815260040161064f90611fd3565b60405180910390fd5b8060000160040160009054906101000a900460ff166106ac576040517f08c379a00000000000000000000000000000000000000000000000000000000081526004016106a39061203f565b60405180910390fd5b8060000160040160019054906101000a900460ff1615610701576040517f08c379a00000000000000000000000000000000000000000000000000000000081526004016106f8906120d1565b60405180910390fd5b60008160050160000160000160009054906101000a900473ffffffffffffffffffffffffffffffffffffffff1673ffffffffffffffffffffffffffffffffffffffff163373ffffffffffffffffffffffffffffffffffffffff1614905060008161077257826000016002015461077b565b82600001600101545b905060018360000160040160016101000a81548160ff021916908315150217905550600081111561092d57811561086e57600083600001600101819055506000803373ffffffffffffffffffffffffffffffffffffffff16836040516107e090612122565b60006040518083038185875af1925050503d806000811461081d576040519150601f19603f3d011682016040523d82523d6000602084013e610822565b606091505b509150915081610867576040517f08c379a000000000000000000000000000000000000000000000000000000000815260040161085e90612183565b60405180910390fd5b505061092c565b600083600001600201819055506000803373ffffffffffffffffffffffffffffffffffffffff16836040516108a290612122565b60006040518083038185875af1925050503d80600081146108df576040519150601f19603f3d011682016040523d82523d6000602084013e6108e4565b606091505b509150915081610929576040517f08c379a000000000000000000000000000000000000000000000000000000000815260040161092090612183565b60405180910390fd5b50505b5b50505050565b600060046000838152602001908152602001600020905081816000016000015414610993576040517f08c379a000000000000000000000000000000000000000000000000000000000815260040161098a90611f41565b60405180910390fd5b3373ffffffffffffffffffffffffffffffffffffffff168160050160000160000160009054906101000a900473ffffffffffffffffffffffffffffffffffffffff1673ffffffffffffffffffffffffffffffffffffffff161480610a4c57503373ffffffffffffffffffffffffffffffffffffffff168160050160010160000160009054906101000a900473ffffffffffffffffffffffffffffffffffffffff1673ffffffffffffffffffffffffffffffffffffffff16145b610a8b576040517f08c379a0000000000000000000000000000000000000000000000000000000008152600401610a8290611fd3565b60405180910390fd5b8060000160040160019054906101000a900460ff16610adf576040517f08c379a0000000000000000000000000000000000000000000000000000000008152600401610ad690612215565b60405180910390fd5b60008160050160000160000160009054906101000a900473ffffffffffffffffffffffffffffffffffffffff1673ffffffffffffffffffffffffffffffffffffffff163373ffffffffffffffffffffffffffffffffffffffff16149050600081610b50578260000160020154610b59565b82600001600101545b905060008111610b9e576040517f08c379a0000000000000000000000000000000000000000000000000000000008152600401610b95906122a7565b60405180910390fd5b8115610c6657600083600001600101819055506000803373ffffffffffffffffffffffffffffffffffffffff1683604051610bd890612122565b60006040518083038185875af1925050503d8060008114610c15576040519150601f19603f3d011682016040523d82523d6000602084013e610c1a565b606091505b509150915081610c5f576040517f08c379a0000000000000000000000000000000000000000000000000000000008152600401610c5690612183565b60405180910390fd5b5050610d24565b600083600001600201819055506000803373ffffffffffffffffffffffffffffffffffffffff1683604051610c9a90612122565b60006040518083038185875af1925050503d8060008114610cd7576040519150601f19603f3d011682016040523d82523d6000602084013e610cdc565b606091505b509150915081610d21576040517f08c379a0000000000000000000000000000000000000000000000000000000008152600401610d1890612183565b60405180910390fd5b50505b50505050565b60015481565b806000013560046000836000013581526020019081526020016000206000016000015414610d93576040517f08c379a0000000000000000000000000000000000000000000000000000000008152600401610d8a90611f41565b60405180910390fd5b60001515600460008360000135815260200190815260200160002060000160040160009054906101000a900460ff16151514610e04576040517f08c379a0000000000000000000000000000000000000000000000000000000008152600401610dfb90612313565b60405180910390fd5b60011515816080016020810190610e1b919061235f565b151514610e5d576040517f08c379a0000000000000000000000000000000000000000000000000000000008152600401610e54906123d8565b60405180910390fd5b600460008260000135815260200190815260200160002060000160030154816060013513610ec0576040517f08c379a0000000000000000000000000000000000000000000000000000000008152600401610eb790612444565b60405180910390fd5b8060046000836000013581526020019081526020016000206000018181610ee7919061271d565b90505050565b806000013560046000836000013581526020019081526020016000206000016000015403610f50576040517f08c379a0000000000000000000000000000000000000000000000000000000008152600401610f4790612777565b60405180910390fd5b60001515610f8483600001803603810190610f6b9190612890565b84602001803603810190610f7f9190612890565b61173e565b151514610fc6576040517f08c379a0000000000000000000000000000000000000000000000000000000008152600401610fbd90612909565b60405180910390fd5b600081606001351461100d576040517f08c379a000000000000000000000000000000000000000000000000000000000815260040161100490612975565b60405180910390fd5b60001515816080016020810190611024919061235f565b151514611066576040517f08c379a000000000000000000000000000000000000000000000000000000000815260040161105d906129e1565b60405180910390fd5b61106e611861565b8180360381019061107f9190612aa1565b8160000181905250828036038101906110989190612b1e565b8160200181905250600081604001516000019015159081151581525050600081604001516020019015159081151581525050600360008154809291906110dd90612b4b565b91905055508060046000846000013581526020019081526020016000206000820151816000016000820151816000015560208201518160010155604082015181600201556060820151816003015560808201518160040160006101000a81548160ff02191690831515021790555060a08201518160040160016101000a81548160ff021916908315150217905550505060208201518160050160008201518160000160008201518160000160006101000a81548173ffffffffffffffffffffffffffffffffffffffff021916908373ffffffffffffffffffffffffffffffffffffffff160217905550505060208201518160010160008201518160000160006101000a81548173ffffffffffffffffffffffffffffffffffffffff021916908373ffffffffffffffffffffffffffffffffffffffff1602179055505050505060408201518160070160008201518160000160006101000a81548160ff02191690831515021790555060208201518160000160016101000a81548160ff02191690831515021790555060408201518160000160026101000a81548160ff02191690831515021790555060608201518160000160036101000a81548160ff02191690831515021790555050509050507fa906bc47139aaf3f5d7e1644bef17e00b390da178b5d3515fa0608f7ff457146816040516112d99190612cd6565b60405180910390a1505050565b60035481565b600060019050949350505050565b60006004600083815260200190815260200160002090508181600001600001541461135a576040517f08c379a000000000000000000000000000000000000000000000000000000000815260040161135190611f41565b60405180910390fd5b3373ffffffffffffffffffffffffffffffffffffffff168160050160000160000160009054906101000a900473ffffffffffffffffffffffffffffffffffffffff1673ffffffffffffffffffffffffffffffffffffffff16148061141357503373ffffffffffffffffffffffffffffffffffffffff168160050160010160000160009054906101000a900473ffffffffffffffffffffffffffffffffffffffff1673ffffffffffffffffffffffffffffffffffffffff16145b611452576040517f08c379a000000000000000000000000000000000000000000000000000000000815260040161144990611fd3565b60405180910390fd5b60008160050160000160000160009054906101000a900473ffffffffffffffffffffffffffffffffffffffff1673ffffffffffffffffffffffffffffffffffffffff163373ffffffffffffffffffffffffffffffffffffffff16149050801561151557600015158260070160000160009054906101000a900460ff16151514611510576040517f08c379a000000000000000000000000000000000000000000000000000000000815260040161150790612d64565b60405180910390fd5b611571565b600015158260070160000160019054906101000a900460ff16151514611570576040517f08c379a000000000000000000000000000000000000000000000000000000000815260040161156790612d64565b60405180910390fd5b5b600015158260000160040160009054906101000a900460ff161515146115cc576040517f08c379a00000000000000000000000000000000000000000000000000000000081526004016115c3906129e1565b60405180910390fd5b600034905060008111611614576040517f08c379a000000000000000000000000000000000000000000000000000000000815260040161160b90612dd0565b60405180910390fd5b81156116745780836000016001018190555060018360070160000160006101000a81548160ff02191690831515021790555061166f604051806060016040528060378152602001612ebe60379139846000016001015461177f565b6116ca565b80836000016002018190555060018360070160000160016101000a81548160ff0219169083151502179055506116c9604051806060016040528060378152602001612ef560379139846000016002015461177f565b5b6117206040518060400160405280601681526020017f5468656972206e65772062616c616e63652069733a20000000000000000000008152503373ffffffffffffffffffffffffffffffffffffffff163161177f565b50505050565b60056020528060005260406000206000915090505481565b6000816000015173ffffffffffffffffffffffffffffffffffffffff16836000015173ffffffffffffffffffffffffffffffffffffffff1614905092915050565b6118178282604051602401611795929190612e5e565b6040516020818303038152906040527fb60e72cc000000000000000000000000000000000000000000000000000000007bffffffffffffffffffffffffffffffffffffffffffffffffffffffff19166020820180517bffffffffffffffffffffffffffffffffffffffffffffffffffffffff838183161783525050505061181b565b5050565b6118328161182a611835611856565b63ffffffff16565b50565b60006a636f6e736f6c652e6c6f679050600080835160208501845afa505050565b611894819050919050565b604051806060016040528061187461189e565b81526020016118816118d8565b815260200161188e6118fe565b81525090565b61189c612e8e565b565b6040518060c00160405280600081526020016000815260200160008152602001600081526020016000151581526020016000151581525090565b60405180604001604052806118eb61192e565b81526020016118f861192e565b81525090565b60405180608001604052806000151581526020016000151581526020016000151581526020016000151581525090565b6040518060200160405280600073ffffffffffffffffffffffffffffffffffffffff1681525090565b6000819050919050565b7f4e487b7100000000000000000000000000000000000000000000000000000000600052601160045260246000fd5b600061199b82611957565b91506119a683611957565b92508282019050808211156119be576119bd611961565b5b92915050565b6000604051905090565b600080fd5b600080fd5b6000819050919050565b6119eb816119d8565b81146119f657600080fd5b50565b600081359050611a08816119e2565b92915050565b600060208284031215611a2457611a236119ce565b5b6000611a32848285016119f9565b91505092915050565b611a44816119d8565b82525050565b611a5381611957565b82525050565b60008115159050919050565b611a6e81611a59565b82525050565b60c082016000820151611a8a6000850182611a3b565b506020820151611a9d6020850182611a4a565b506040820151611ab06040850182611a4a565b506060820151611ac36060850182611a3b565b506080820151611ad66080850182611a65565b5060a0820151611ae960a0850182611a65565b50505050565b600073ffffffffffffffffffffffffffffffffffffffff82169050919050565b6000611b1a82611aef565b9050919050565b611b2a81611b0f565b82525050565b602082016000820151611b466000850182611b21565b50505050565b604082016000820151611b626000850182611b30565b506020820151611b756020850182611b30565b50505050565b608082016000820151611b916000850182611a65565b506020820151611ba46020850182611a65565b506040820151611bb76040850182611a65565b506060820151611bca6060850182611a65565b50505050565b600061018082019050611be66000830186611a74565b611bf360c0830185611b4c565b611c01610100830184611b7b565b949350505050565b611c1281611957565b8114611c1d57600080fd5b50565b600081359050611c2f81611c09565b92915050565b600060208284031215611c4b57611c4a6119ce565b5b6000611c5984828501611c20565b91505092915050565b611c6b81611b0f565b82525050565b6000602082019050611c866000830184611c62565b92915050565b611c9581611957565b82525050565b6000602082019050611cb06000830184611c8c565b92915050565b600080fd5b600060c08284031215611cd157611cd0611cb6565b5b81905092915050565b600060c08284031215611cf057611cef6119ce565b5b6000611cfe84828501611cbb565b91505092915050565b600060408284031215611d1d57611d1c611cb6565b5b81905092915050565b6000806101008385031215611d3e57611d3d6119ce565b5b6000611d4c85828601611d07565b9250506040611d5d85828601611cbb565b9150509250929050565b611d70816119d8565b82525050565b6000602082019050611d8b6000830184611d67565b92915050565b6000611d9c82611aef565b9050919050565b6000611dae82611d91565b9050919050565b611dbe81611da3565b8114611dc957600080fd5b50565b600081359050611ddb81611db5565b92915050565b600080fd5b600080fd5b600080fd5b60008083601f840112611e0657611e05611de1565b5b8235905067ffffffffffffffff811115611e2357611e22611de6565b5b602083019150836001820283011115611e3f57611e3e611deb565b5b9250929050565b60008060008060608587031215611e6057611e5f6119ce565b5b6000611e6e87828801611dcc565b9450506020611e7f87828801611c20565b935050604085013567ffffffffffffffff811115611ea057611e9f6119d3565b5b611eac87828801611df0565b925092505092959194509250565b611ec381611a59565b82525050565b6000602082019050611ede6000830184611eba565b92915050565b600082825260208201905092915050565b7f4368616e6e656c20646f6573206e6f7420657869737400000000000000000000600082015250565b6000611f2b601683611ee4565b9150611f3682611ef5565b602082019050919050565b60006020820190508181036000830152611f5a81611f1e565b9050919050565b7f53656e646572206973206e6f742061207061727469636970616e74206f66207460008201527f686520676976656e206368616e6e656c00000000000000000000000000000000602082015250565b6000611fbd603083611ee4565b9150611fc882611f61565b604082019050919050565b60006020820190508181036000830152611fec81611fb0565b9050919050565b7f4368616e6e656c206973206e6f74207965742066696e616c6973656400000000600082015250565b6000612029601c83611ee4565b915061203482611ff3565b602082019050919050565b600060208201905081810360008301526120588161201c565b9050919050565b7f4368616e6e656c2068617320616c7265616479206265656e20636c6f7365642c60008201527f2075736520776974686472617720696e73746561640000000000000000000000602082015250565b60006120bb603583611ee4565b91506120c68261205f565b604082019050919050565b600060208201905081810360008301526120ea816120ae565b9050919050565b600081905092915050565b50565b600061210c6000836120f1565b9150612117826120fc565b600082019050919050565b600061212d826120ff565b9150819050919050565b7f5472616e73666572206661696c65640000000000000000000000000000000000600082015250565b600061216d600f83611ee4565b915061217882612137565b602082019050919050565b6000602082019050818103600083015261219c81612160565b9050919050565b7f4368616e6e656c20686173206e6f74206265656e20636c6f736564207965742c60008201527f2075736520636c6f736520696e73746561640000000000000000000000000000602082015250565b60006121ff603283611ee4565b915061220a826121a3565b604082019050919050565b6000602082019050818103600083015261222e816121f2565b9050919050565b7f5468657265206973206e6f2062616c616e636520666f7220796f7520696e207460008201527f686973206368616e6e656c20746f207769746864726177000000000000000000602082015250565b6000612291603783611ee4565b915061229c82612235565b604082019050919050565b600060208201905081810360008301526122c081612284565b9050919050565b7f4368616e6e656c20697320616c72656164792066696e616c697a656400000000600082015250565b60006122fd601c83611ee4565b9150612308826122c7565b602082019050919050565b6000602082019050818103600083015261232c816122f0565b9050919050565b61233c81611a59565b811461234757600080fd5b50565b60008135905061235981612333565b92915050565b600060208284031215612375576123746119ce565b5b60006123838482850161234a565b91505092915050565b7f4e6577204368616e6e656c206973206e6f742066696e616c697a656400000000600082015250565b60006123c2601c83611ee4565b91506123cd8261238c565b602082019050919050565b600060208201905081810360008301526123f1816123b5565b9050919050565b7f56657273696f6e204e756d626572206973206e6f7420696e6372656173656400600082015250565b600061242e601f83611ee4565b9150612439826123f8565b602082019050919050565b6000602082019050818103600083015261245d81612421565b9050919050565b60008135612471816119e2565b80915050919050565b60008160001b9050919050565b60007fffffffffffffffffffffffffffffffffffffffffffffffffffffffffffffffff6124b38461247a565b9350801983169250808416831791505092915050565b6000819050919050565b60006124ee6124e96124e4846119d8565b6124c9565b6119d8565b9050919050565b6000819050919050565b612508826124d3565b61251b612514826124f5565b8354612487565b8255505050565b6000813561252f81611c09565b80915050919050565b600061255361254e61254984611957565b6124c9565b611957565b9050919050565b6000819050919050565b61256d82612538565b6125806125798261255a565b8354612487565b8255505050565b6000813561259481612333565b80915050919050565b600060ff6125aa8461247a565b9350801983169250808416831791505092915050565b60006125cb82611a59565b9050919050565b6000819050919050565b6125e5826125c0565b6125f86125f1826125d2565b835461259d565b8255505050565b60008160081b9050919050565b600061ff0061261a846125ff565b9350801983169250808416831791505092915050565b612639826125c0565b61264c612645826125d2565b835461260c565b8255505050565b60008101600083018061266581612464565b905061267181846124ff565b50505060018101602083018061268681612522565b90506126928184612564565b5050506002810160408301806126a781612522565b90506126b38184612564565b5050506003810160608301806126c881612464565b90506126d481846124ff565b5050506004810160808301806126e981612587565b90506126f581846125dc565b5050506004810160a083018061270a81612587565b90506127168184612630565b5050505050565b6127278282612653565b5050565b7f4368616e6e656c20616c72656164792065786973747300000000000000000000600082015250565b6000612761601683611ee4565b915061276c8261272b565b602082019050919050565b6000602082019050818103600083015261279081612754565b9050919050565b600080fd5b6000601f19601f8301169050919050565b7f4e487b7100000000000000000000000000000000000000000000000000000000600052604160045260246000fd5b6127e58261279c565b810181811067ffffffffffffffff82111715612804576128036127ad565b5b80604052505050565b60006128176119c4565b905061282382826127dc565b919050565b61283181611b0f565b811461283c57600080fd5b50565b60008135905061284e81612828565b92915050565b60006020828403121561286a57612869612797565b5b612874602061280d565b905060006128848482850161283f565b60008301525092915050565b6000602082840312156128a6576128a56119ce565b5b60006128b484828501612854565b91505092915050565b7f5061727469636970616e747320617265207468652073616d6500000000000000600082015250565b60006128f3601983611ee4565b91506128fe826128bd565b602082019050919050565b60006020820190508181036000830152612922816128e6565b9050919050565b7f56657273696f6e206e756d626572206973206e6f742030000000000000000000600082015250565b600061295f601783611ee4565b915061296a82612929565b602082019050919050565b6000602082019050818103600083015261298e81612952565b9050919050565b7f4368616e6e656c2069732066696e616c697a6564000000000000000000000000600082015250565b60006129cb601483611ee4565b91506129d682612995565b602082019050919050565b600060208201905081810360008301526129fa816129be565b9050919050565b600060c08284031215612a1757612a16612797565b5b612a2160c061280d565b90506000612a31848285016119f9565b6000830152506020612a4584828501611c20565b6020830152506040612a5984828501611c20565b6040830152506060612a6d848285016119f9565b6060830152506080612a818482850161234a565b60808301525060a0612a958482850161234a565b60a08301525092915050565b600060c08284031215612ab757612ab66119ce565b5b6000612ac584828501612a01565b91505092915050565b600060408284031215612ae457612ae3612797565b5b612aee604061280d565b90506000612afe84828501612854565b6000830152506020612b1284828501612854565b60208301525092915050565b600060408284031215612b3457612b336119ce565b5b6000612b4284828501612ace565b91505092915050565b6000612b56826119d8565b91507f7fffffffffffffffffffffffffffffffffffffffffffffffffffffffffffffff8203612b8857612b87611961565b5b600182019050919050565b60c082016000820151612ba96000850182611a3b565b506020820151612bbc6020850182611a4a565b506040820151612bcf6040850182611a4a565b506060820151612be26060850182611a3b565b506080820151612bf56080850182611a65565b5060a0820151612c0860a0850182611a65565b50505050565b604082016000820151612c246000850182611b30565b506020820151612c376020850182611b30565b50505050565b608082016000820151612c536000850182611a65565b506020820151612c666020850182611a65565b506040820151612c796040850182611a65565b506060820151612c8c6060850182611a65565b50505050565b61018082016000820151612ca96000850182612b93565b506020820151612cbc60c0850182612c0e565b506040820151612cd0610100850182612c3d565b50505050565b600061018082019050612cec6000830184612c92565b92915050565b7f53656e6465722068617320616c72656164792066756e6465642074686973206360008201527f68616e6e656c0000000000000000000000000000000000000000000000000000602082015250565b6000612d4e602683611ee4565b9150612d5982612cf2565b604082019050919050565b60006020820190508181036000830152612d7d81612d41565b9050919050565b7f43616e6e6f742066756e642061206368616e6e656c2077697468203020457468600082015250565b6000612dba602083611ee4565b9150612dc582612d84565b602082019050919050565b60006020820190508181036000830152612de981612dad565b9050919050565b600081519050919050565b60005b83811015612e19578082015181840152602081019050612dfe565b60008484015250505050565b6000612e3082612df0565b612e3a8185611ee4565b9350612e4a818560208601612dfb565b612e538161279c565b840191505092915050565b60006040820190508181036000830152612e788185612e25565b9050612e876020830184611c8c565b9392505050565b7f4e487b7100000000000000000000000000000000000000000000000000000000600052605160045260246000fdfe5061727469636970616e74204120686173207375636365737366756c6c792066756e64656420746865206368616e6e656c2077697468205061727469636970616e74204220686173207375636365737366756c6c792066756e64656420746865206368616e6e656c207769746820a2646970667358221220b672ca27146202b74447e52de7947748682b38065fac6eeaf44f238575781e9964736f6c63430008130033",
  "linkReferences": {},
  "deployedLinkReferences": {}
}