{
  "_format": "hh-sol-artifact-1",
  "contractName": "ChannelLogic",
  "sourceName": "contracts/ChannelLogic.sol",
  "abi": [
    {
      "anonymous": false,
      "inputs": [
        {
          "indexed": true,
          "internalType": "uint256",
          "name": "transactionId",
          "type": "uint256"
        },
        {
          "indexed": false,
          "internalType": "address",
          "name": "sender",
          "type": "address"
        },
        {
          "indexed": false,
          "internalType": "address",
          "name": "receiver",
          "type": "address"
        },
        {
          "indexed": false,
          "internalType": "uint256",
          "name": "amount",
          "type": "uint256"
        }
      ],
      "name": "NewTransaction",
      "type": "event"
    },
    {
      "anonymous": false,
      "inputs": [
        {
          "indexed": false,
          "internalType": "int256",
          "name": "channel_id",
          "type": "int256"
        },
        {
          "indexed": false,
          "internalType": "address",
          "name": "party",
          "type": "address"
        }
      ],
      "name": "PartyFinalized",
      "type": "event"
    },
    {
      "inputs": [],
      "name": "Contract_Balance",
      "outputs": [
        {
          "internalType": "uint256",
          "name": "",
          "type": "uint256"
        }
      ],
      "stateMutability": "view",
      "type": "function"
    },
    {
      "inputs": [
        {
          "internalType": "int256",
          "name": "",
          "type": "int256"
        }
      ],
      "name": "balances",
      "outputs": [
        {
          "internalType": "uint256",
          "name": "",
          "type": "uint256"
        }
      ],
      "stateMutability": "view",
      "type": "function"
    },
    {
      "inputs": [],
      "name": "channelCount",
      "outputs": [
        {
          "internalType": "int256",
          "name": "",
          "type": "int256"
        }
      ],
      "stateMutability": "view",
      "type": "function"
    },
    {
      "inputs": [],
      "name": "channel_count",
      "outputs": [
        {
          "internalType": "int256",
          "name": "",
          "type": "int256"
        }
      ],
      "stateMutability": "view",
      "type": "function"
    },
    {
      "inputs": [
        {
          "internalType": "int256",
          "name": "",
          "type": "int256"
        }
      ],
      "name": "channels",
      "outputs": [
        {
          "components": [
            {
              "internalType": "int256",
              "name": "channel_id",
              "type": "int256"
            },
            {
              "internalType": "uint256",
              "name": "balance_A",
              "type": "uint256"
            },
            {
              "internalType": "uint256",
              "name": "balance_B",
              "type": "uint256"
            },
            {
              "internalType": "int256",
              "name": "version_num",
              "type": "int256"
            },
            {
              "internalType": "bool",
              "name": "finalized",
              "type": "bool"
            }
          ],
          "internalType": "struct Channel_State",
          "name": "state",
          "type": "tuple"
        },
        {
          "components": [
            {
              "components": [
                {
                  "internalType": "address payable",
                  "name": "addresse",
                  "type": "address"
                }
              ],
              "internalType": "struct Participant",
              "name": "participant_a",
              "type": "tuple"
            },
            {
              "components": [
                {
                  "internalType": "address payable",
                  "name": "addresse",
                  "type": "address"
                }
              ],
              "internalType": "struct Participant",
              "name": "participant_b",
              "type": "tuple"
            }
          ],
          "internalType": "struct Channel_Params",
          "name": "params",
          "type": "tuple"
        },
        {
          "components": [
            {
              "internalType": "bool",
              "name": "funded_a",
              "type": "bool"
            },
            {
              "internalType": "bool",
              "name": "funded_b",
              "type": "bool"
            }
          ],
          "internalType": "struct Channel_Control",
          "name": "control",
          "type": "tuple"
        }
      ],
      "stateMutability": "view",
      "type": "function"
    },
    {
      "inputs": [
        {
          "internalType": "int256",
          "name": "channel_id",
          "type": "int256"
        }
      ],
      "name": "close",
      "outputs": [],
      "stateMutability": "nonpayable",
      "type": "function"
    },
    {
      "inputs": [
        {
          "components": [
            {
              "internalType": "int256",
              "name": "channel_id",
              "type": "int256"
            },
            {
              "internalType": "uint256",
              "name": "balance_A",
              "type": "uint256"
            },
            {
              "internalType": "uint256",
              "name": "balance_B",
              "type": "uint256"
            },
            {
              "internalType": "int256",
              "name": "version_num",
              "type": "int256"
            },
            {
              "internalType": "bool",
              "name": "finalized",
              "type": "bool"
            }
          ],
          "internalType": "struct Channel_State",
          "name": "newState",
          "type": "tuple"
        }
      ],
      "name": "finalize",
      "outputs": [],
      "stateMutability": "nonpayable",
      "type": "function"
    },
    {
      "inputs": [
        {
          "internalType": "contract FlashBorrower",
          "name": "receiver",
          "type": "address"
        },
        {
          "internalType": "uint256",
          "name": "amount",
          "type": "uint256"
        },
        {
          "internalType": "bytes",
          "name": "data",
          "type": "bytes"
        }
      ],
      "name": "flashLoan",
      "outputs": [
        {
          "internalType": "bool",
          "name": "",
          "type": "bool"
        }
      ],
      "stateMutability": "nonpayable",
      "type": "function"
    },
    {
      "inputs": [
        {
          "internalType": "int256",
          "name": "channel_id",
          "type": "int256"
        },
        {
          "internalType": "uint256",
          "name": "amount",
          "type": "uint256"
        }
      ],
      "name": "fund",
      "outputs": [],
      "stateMutability": "payable",
      "type": "function"
    },
    {
      "inputs": [
        {
          "components": [
            {
              "components": [
                {
                  "internalType": "address payable",
                  "name": "addresse",
                  "type": "address"
                }
              ],
              "internalType": "struct Participant",
              "name": "participant_a",
              "type": "tuple"
            },
            {
              "components": [
                {
                  "internalType": "address payable",
                  "name": "addresse",
                  "type": "address"
                }
              ],
              "internalType": "struct Participant",
              "name": "participant_b",
              "type": "tuple"
            }
          ],
          "internalType": "struct Channel_Params",
          "name": "params",
          "type": "tuple"
        },
        {
          "components": [
            {
              "internalType": "int256",
              "name": "channel_id",
              "type": "int256"
            },
            {
              "internalType": "uint256",
              "name": "balance_A",
              "type": "uint256"
            },
            {
              "internalType": "uint256",
              "name": "balance_B",
              "type": "uint256"
            },
            {
              "internalType": "int256",
              "name": "version_num",
              "type": "int256"
            },
            {
              "internalType": "bool",
              "name": "finalized",
              "type": "bool"
            }
          ],
          "internalType": "struct Channel_State",
          "name": "state",
          "type": "tuple"
        }
      ],
      "name": "open",
      "outputs": [],
      "stateMutability": "nonpayable",
      "type": "function"
    },
    {
      "inputs": [
        {
          "internalType": "uint256",
          "name": "",
          "type": "uint256"
        }
      ],
      "name": "participants",
      "outputs": [
        {
          "internalType": "address payable",
          "name": "addresse",
          "type": "address"
        }
      ],
      "stateMutability": "view",
      "type": "function"
    },
    {
      "stateMutability": "payable",
      "type": "receive"
    }
  ],
  "bytecode": "0x608060405260016000556000600155600a600355600060045534801561002457600080fd5b5061274c806100346000396000f3fe60806040526004361061009f5760003560e01c806372142c3b1161006457806372142c3b146101ad578063a9e3d444146101d6578063acf8bf2a14610201578063c8d537211461022c578063e0232b4214610257578063f6d5c8a014610294576100be565b8062e061c0146100c357806301b31363146100df5780631e2659781461010857806335c1d349146101475780633b8ec14b14610184576100be565b366100be5734600160008282546100b6919061154a565b925050819055005b600080fd5b6100dd60048036038101906100d891906115f4565b6102d1565b005b3480156100eb57600080fd5b5061010660048036038101906101019190611677565b61074d565b005b34801561011457600080fd5b5061012f600480360381019061012a91906116b7565b610a97565b60405161013e93929190611840565b60405180910390f35b34801561015357600080fd5b5061016e60048036038101906101699190611878565b610c2c565b60405161017b91906118b4565b60405180910390f35b34801561019057600080fd5b506101ab60048036038101906101a691906118cf565b610c76565b005b3480156101b957600080fd5b506101d460048036038101906101cf91906116b7565b610e33565b005b3480156101e257600080fd5b506101eb6112da565b6040516101f8919061190b565b60405180910390f35b34801561020d57600080fd5b506102166112e0565b6040516102239190611935565b60405180910390f35b34801561023857600080fd5b506102416112ea565b60405161024e9190611935565b60405180910390f35b34801561026357600080fd5b5061027e60048036038101906102799190611a05565b6112f0565b60405161028b9190611a88565b60405180910390f35b3480156102a057600080fd5b506102bb60048036038101906102b691906116b7565b6112fe565b6040516102c8919061190b565b60405180910390f35b600060056000848152602001908152602001600020905082816000016000015414610331576040517f08c379a000000000000000000000000000000000000000000000000000000000815260040161032890611b00565b60405180910390fd5b600015158160000160040160009054906101000a900460ff1615151461038c576040517f08c379a000000000000000000000000000000000000000000000000000000000815260040161038390611b6c565b60405180910390fd5b8060050160000160000160009054906101000a900473ffffffffffffffffffffffffffffffffffffffff1673ffffffffffffffffffffffffffffffffffffffff163373ffffffffffffffffffffffffffffffffffffffff160361054c57600015158160070160000160009054906101000a900460ff16151514610444576040517f08c379a000000000000000000000000000000000000000000000000000000000815260040161043b90611bd8565b60405180910390fd5b6000803073ffffffffffffffffffffffffffffffffffffffff163460405161046b90611c29565b60006040518083038185875af1925050503d80600081146104a8576040519150601f19603f3d011682016040523d82523d6000602084013e6104ad565b606091505b5091509150816104f2576040517f08c379a00000000000000000000000000000000000000000000000000000000081526004016104e990611c8a565b60405180910390fd5b6104fb47611316565b83836000016001016000828254610512919061154a565b9250508190555060018360070160000160006101000a81548160ff0219169083151502179055508383600001600101819055505050610748565b8060050160010160000160009054906101000a900473ffffffffffffffffffffffffffffffffffffffff1673ffffffffffffffffffffffffffffffffffffffff163373ffffffffffffffffffffffffffffffffffffffff160361070c57600015158160070160000160019054906101000a900460ff16151514610604576040517f08c379a00000000000000000000000000000000000000000000000000000000081526004016105fb90611cf6565b60405180910390fd5b6000803073ffffffffffffffffffffffffffffffffffffffff163460405161062b90611c29565b60006040518083038185875af1925050503d8060008114610668576040519150601f19603f3d011682016040523d82523d6000602084013e61066d565b606091505b5091509150816106b2576040517f08c379a00000000000000000000000000000000000000000000000000000000081526004016106a990611c8a565b60405180910390fd5b6106bb47611316565b838360000160020160008282546106d2919061154a565b9250508190555060018360070160000160016101000a81548160ff0219169083151502179055508383600001600201819055505050610747565b6040517f08c379a000000000000000000000000000000000000000000000000000000000815260040161073e90611d62565b60405180910390fd5b5b505050565b8060000135600560008360000135815260200190815260200160002060000160000154036107b0576040517f08c379a00000000000000000000000000000000000000000000000000000000081526004016107a790611dce565b60405180910390fd5b600015156107e4836000018036038101906107cb9190611ee7565b846020018036038101906107df9190611ee7565b6113af565b151514610826576040517f08c379a000000000000000000000000000000000000000000000000000000000815260040161081d90611f60565b60405180910390fd5b600081606001351461086d576040517f08c379a000000000000000000000000000000000000000000000000000000000815260040161086490611fcc565b60405180910390fd5b600015158160800160208101906108849190612018565b1515146108c6576040517f08c379a00000000000000000000000000000000000000000000000000000000081526004016108bd90611b6c565b60405180910390fd5b6108ce611436565b818036038101906108df91906120d1565b8160000181905250828036038101906108f8919061214e565b81602001819052506000816040015160000190151590811515815250506000816040015160200190151590811515815250508060056000846000013581526020019081526020016000206000820151816000016000820151816000015560208201518160010155604082015181600201556060820151816003015560808201518160040160006101000a81548160ff021916908315150217905550505060208201518160050160008201518160000160008201518160000160006101000a81548173ffffffffffffffffffffffffffffffffffffffff021916908373ffffffffffffffffffffffffffffffffffffffff160217905550505060208201518160010160008201518160000160006101000a81548173ffffffffffffffffffffffffffffffffffffffff021916908373ffffffffffffffffffffffffffffffffffffffff1602179055505050505060408201518160070160008201518160000160006101000a81548160ff02191690831515021790555060208201518160000160016101000a81548160ff0219169083151502179055505050905050505050565b6005602052806000526040600020600091509050806000016040518060a0016040529081600082015481526020016001820154815260200160028201548152602001600382015481526020016004820160009054906101000a900460ff1615151515815250509080600501604051806040016040529081600082016040518060200160405290816000820160009054906101000a900473ffffffffffffffffffffffffffffffffffffffff1673ffffffffffffffffffffffffffffffffffffffff1673ffffffffffffffffffffffffffffffffffffffff16815250508152602001600182016040518060200160405290816000820160009054906101000a900473ffffffffffffffffffffffffffffffffffffffff1673ffffffffffffffffffffffffffffffffffffffff1673ffffffffffffffffffffffffffffffffffffffff16815250508152505090806007016040518060400160405290816000820160009054906101000a900460ff161515151581526020016000820160019054906101000a900460ff161515151581525050905083565b60028181548110610c3c57600080fd5b906000526020600020016000915090508060000160009054906101000a900473ffffffffffffffffffffffffffffffffffffffff16905081565b806000013560056000836000013581526020019081526020016000206000016000015414610cd9576040517f08c379a0000000000000000000000000000000000000000000000000000000008152600401610cd090611b00565b60405180910390fd5b60001515600560008360000135815260200190815260200160002060000160040160009054906101000a900460ff16151514610d4a576040517f08c379a0000000000000000000000000000000000000000000000000000000008152600401610d41906121c7565b60405180910390fd5b60011515816080016020810190610d619190612018565b151514610da3576040517f08c379a0000000000000000000000000000000000000000000000000000000008152600401610d9a90612233565b60405180910390fd5b600560008260000135815260200190815260200160002060000160030154816060013513610e06576040517f08c379a0000000000000000000000000000000000000000000000000000000008152600401610dfd9061229f565b60405180910390fd5b8060056000836000013581526020019081526020016000206000018181610e2d9190612503565b90505050565b600060056000838152602001908152602001600020905081816000016000015414610e93576040517f08c379a0000000000000000000000000000000000000000000000000000000008152600401610e8a90611b00565b60405180910390fd5b3373ffffffffffffffffffffffffffffffffffffffff168160050160000160000160009054906101000a900473ffffffffffffffffffffffffffffffffffffffff1673ffffffffffffffffffffffffffffffffffffffff161480610f4c57503373ffffffffffffffffffffffffffffffffffffffff168160050160010160000160009054906101000a900473ffffffffffffffffffffffffffffffffffffffff1673ffffffffffffffffffffffffffffffffffffffff16145b610f8b576040517f08c379a0000000000000000000000000000000000000000000000000000000008152600401610f8290612583565b60405180910390fd5b8060000160040160009054906101000a900460ff16610fdf576040517f08c379a0000000000000000000000000000000000000000000000000000000008152600401610fd6906125ef565b60405180910390fd5b60008060008111611025576040517f08c379a000000000000000000000000000000000000000000000000000000000815260040161101c9061265b565b60405180910390fd5b60006005600086815260200190815260200160002060000160010154111561113e57600560008581526020019081526020016000206000016001015490506000808460050160000160000160009054906101000a900473ffffffffffffffffffffffffffffffffffffffff1673ffffffffffffffffffffffffffffffffffffffff16836040516110b490611c29565b60006040518083038185875af1925050503d80600081146110f1576040519150601f19603f3d011682016040523d82523d6000602084013e6110f6565b606091505b50915091508161113b576040517f08c379a0000000000000000000000000000000000000000000000000000000008152600401611132906126c7565b60405180910390fd5b50505b60006005600086815260200190815260200160002060000160020154111561125757600560008581526020019081526020016000206000016002015490506000808460050160010160000160009054906101000a900473ffffffffffffffffffffffffffffffffffffffff1673ffffffffffffffffffffffffffffffffffffffff16836040516111cd90611c29565b60006040518083038185875af1925050503d806000811461120a576040519150601f19603f3d011682016040523d82523d6000602084013e61120f565b606091505b509150915081611254576040517f08c379a000000000000000000000000000000000000000000000000000000000815260040161124b906126c7565b60405180910390fd5b50505b8260050160000160000160009054906101000a900473ffffffffffffffffffffffffffffffffffffffff1673ffffffffffffffffffffffffffffffffffffffff168273ffffffffffffffffffffffffffffffffffffffff16036112c657600083600001600101819055506112d4565b600083600001600201819055505b50505050565b60015481565b6000600354905090565b60035481565b600060019050949350505050565b60066020528060005260406000206000915090505481565b6113ac8160405160240161132a919061190b565b6040516020818303038152906040527ff82c50f1000000000000000000000000000000000000000000000000000000007bffffffffffffffffffffffffffffffffffffffffffffffffffffffff19166020820180517bffffffffffffffffffffffffffffffffffffffffffffffffffffffff83818316178352505050506113f0565b50565b6000816000015173ffffffffffffffffffffffffffffffffffffffff16836000015173ffffffffffffffffffffffffffffffffffffffff1614905092915050565b611407816113ff61140a61142b565b63ffffffff16565b50565b60006a636f6e736f6c652e6c6f679050600080835160208501845afa505050565b611469819050919050565b6040518060600160405280611449611473565b81526020016114566114a4565b81526020016114636114ca565b81525090565b6114716126e7565b565b6040518060a00160405280600081526020016000815260200160008152602001600081526020016000151581525090565b60405180604001604052806114b76114e8565b81526020016114c46114e8565b81525090565b60405180604001604052806000151581526020016000151581525090565b6040518060200160405280600073ffffffffffffffffffffffffffffffffffffffff1681525090565b6000819050919050565b7f4e487b7100000000000000000000000000000000000000000000000000000000600052601160045260246000fd5b600061155582611511565b915061156083611511565b92508282019050808211156115785761157761151b565b5b92915050565b6000604051905090565b600080fd5b600080fd5b6000819050919050565b6115a581611592565b81146115b057600080fd5b50565b6000813590506115c28161159c565b92915050565b6115d181611511565b81146115dc57600080fd5b50565b6000813590506115ee816115c8565b92915050565b6000806040838503121561160b5761160a611588565b5b6000611619858286016115b3565b925050602061162a858286016115df565b9150509250929050565b600080fd5b60006040828403121561164f5761164e611634565b5b81905092915050565b600060a0828403121561166e5761166d611634565b5b81905092915050565b60008060e0838503121561168e5761168d611588565b5b600061169c85828601611639565b92505060406116ad85828601611658565b9150509250929050565b6000602082840312156116cd576116cc611588565b5b60006116db848285016115b3565b91505092915050565b6116ed81611592565b82525050565b6116fc81611511565b82525050565b60008115159050919050565b61171781611702565b82525050565b60a08201600082015161173360008501826116e4565b50602082015161174660208501826116f3565b50604082015161175960408501826116f3565b50606082015161176c60608501826116e4565b50608082015161177f608085018261170e565b50505050565b600073ffffffffffffffffffffffffffffffffffffffff82169050919050565b60006117b082611785565b9050919050565b6117c0816117a5565b82525050565b6020820160008201516117dc60008501826117b7565b50505050565b6040820160008201516117f860008501826117c6565b50602082015161180b60208501826117c6565b50505050565b604082016000820151611827600085018261170e565b50602082015161183a602085018261170e565b50505050565b600061012082019050611856600083018661171d565b61186360a08301856117e2565b61187060e0830184611811565b949350505050565b60006020828403121561188e5761188d611588565b5b600061189c848285016115df565b91505092915050565b6118ae816117a5565b82525050565b60006020820190506118c960008301846118a5565b92915050565b600060a082840312156118e5576118e4611588565b5b60006118f384828501611658565b91505092915050565b61190581611511565b82525050565b600060208201905061192060008301846118fc565b92915050565b61192f81611592565b82525050565b600060208201905061194a6000830184611926565b92915050565b600061195b82611785565b9050919050565b600061196d82611950565b9050919050565b61197d81611962565b811461198857600080fd5b50565b60008135905061199a81611974565b92915050565b600080fd5b600080fd5b600080fd5b60008083601f8401126119c5576119c46119a0565b5b8235905067ffffffffffffffff8111156119e2576119e16119a5565b5b6020830191508360018202830111156119fe576119fd6119aa565b5b9250929050565b60008060008060608587031215611a1f57611a1e611588565b5b6000611a2d8782880161198b565b9450506020611a3e878288016115df565b935050604085013567ffffffffffffffff811115611a5f57611a5e61158d565b5b611a6b878288016119af565b925092505092959194509250565b611a8281611702565b82525050565b6000602082019050611a9d6000830184611a79565b92915050565b600082825260208201905092915050565b7f4368616e6e656c20646f6573206e6f7420657869737400000000000000000000600082015250565b6000611aea601683611aa3565b9150611af582611ab4565b602082019050919050565b60006020820190508181036000830152611b1981611add565b9050919050565b7f4368616e6e656c2069732066696e616c697a6564000000000000000000000000600082015250565b6000611b56601483611aa3565b9150611b6182611b20565b602082019050919050565b60006020820190508181036000830152611b8581611b49565b9050919050565b7f5061727469636970616e74204120616c72656164792066756e64656400000000600082015250565b6000611bc2601c83611aa3565b9150611bcd82611b8c565b602082019050919050565b60006020820190508181036000830152611bf181611bb5565b9050919050565b600081905092915050565b50565b6000611c13600083611bf8565b9150611c1e82611c03565b600082019050919050565b6000611c3482611c06565b9150819050919050565b7f4661696c656420746f2073656e64204574686572000000000000000000000000600082015250565b6000611c74601483611aa3565b9150611c7f82611c3e565b602082019050919050565b60006020820190508181036000830152611ca381611c67565b9050919050565b7f5061727469636970616e74204220616c72656164792066756e64656400000000600082015250565b6000611ce0601c83611aa3565b9150611ceb82611caa565b602082019050919050565b60006020820190508181036000830152611d0f81611cd3565b9050919050565b7f43616c6c6572206973206e6f742061207061727469636970616e740000000000600082015250565b6000611d4c601b83611aa3565b9150611d5782611d16565b602082019050919050565b60006020820190508181036000830152611d7b81611d3f565b9050919050565b7f4368616e6e656c20616c72656164792065786973747300000000000000000000600082015250565b6000611db8601683611aa3565b9150611dc382611d82565b602082019050919050565b60006020820190508181036000830152611de781611dab565b9050919050565b600080fd5b6000601f19601f8301169050919050565b7f4e487b7100000000000000000000000000000000000000000000000000000000600052604160045260246000fd5b611e3c82611df3565b810181811067ffffffffffffffff82111715611e5b57611e5a611e04565b5b80604052505050565b6000611e6e61157e565b9050611e7a8282611e33565b919050565b611e88816117a5565b8114611e9357600080fd5b50565b600081359050611ea581611e7f565b92915050565b600060208284031215611ec157611ec0611dee565b5b611ecb6020611e64565b90506000611edb84828501611e96565b60008301525092915050565b600060208284031215611efd57611efc611588565b5b6000611f0b84828501611eab565b91505092915050565b7f5061727469636970616e747320617265207468652073616d6500000000000000600082015250565b6000611f4a601983611aa3565b9150611f5582611f14565b602082019050919050565b60006020820190508181036000830152611f7981611f3d565b9050919050565b7f56657273696f6e206e756d626572206973206e6f742030000000000000000000600082015250565b6000611fb6601783611aa3565b9150611fc182611f80565b602082019050919050565b60006020820190508181036000830152611fe581611fa9565b9050919050565b611ff581611702565b811461200057600080fd5b50565b60008135905061201281611fec565b92915050565b60006020828403121561202e5761202d611588565b5b600061203c84828501612003565b91505092915050565b600060a0828403121561205b5761205a611dee565b5b61206560a0611e64565b90506000612075848285016115b3565b6000830152506020612089848285016115df565b602083015250604061209d848285016115df565b60408301525060606120b1848285016115b3565b60608301525060806120c584828501612003565b60808301525092915050565b600060a082840312156120e7576120e6611588565b5b60006120f584828501612045565b91505092915050565b60006040828403121561211457612113611dee565b5b61211e6040611e64565b9050600061212e84828501611eab565b600083015250602061214284828501611eab565b60208301525092915050565b60006040828403121561216457612163611588565b5b6000612172848285016120fe565b91505092915050565b7f4368616e6e656c20697320616c72656164792066696e616c697a656400000000600082015250565b60006121b1601c83611aa3565b91506121bc8261217b565b602082019050919050565b600060208201905081810360008301526121e0816121a4565b9050919050565b7f4e6577204368616e6e656c206973206e6f742066696e616c697a656400000000600082015250565b600061221d601c83611aa3565b9150612228826121e7565b602082019050919050565b6000602082019050818103600083015261224c81612210565b9050919050565b7f56657273696f6e204e756d626572206973206e6f7420696e6372656173656400600082015250565b6000612289601f83611aa3565b915061229482612253565b602082019050919050565b600060208201905081810360008301526122b88161227c565b9050919050565b600081356122cc8161159c565b80915050919050565b60008160001b9050919050565b60007fffffffffffffffffffffffffffffffffffffffffffffffffffffffffffffffff61230e846122d5565b9350801983169250808416831791505092915050565b6000819050919050565b600061234961234461233f84611592565b612324565b611592565b9050919050565b6000819050919050565b6123638261232e565b61237661236f82612350565b83546122e2565b8255505050565b6000813561238a816115c8565b80915050919050565b60006123ae6123a96123a484611511565b612324565b611511565b9050919050565b6000819050919050565b6123c882612393565b6123db6123d4826123b5565b83546122e2565b8255505050565b600081356123ef81611fec565b80915050919050565b600060ff612405846122d5565b9350801983169250808416831791505092915050565b600061242682611702565b9050919050565b6000819050919050565b6124408261241b565b61245361244c8261242d565b83546123f8565b8255505050565b60008101600083018061246c816122bf565b9050612478818461235a565b50505060018101602083018061248d8161237d565b905061249981846123bf565b5050506002810160408301806124ae8161237d565b90506124ba81846123bf565b5050506003810160608301806124cf816122bf565b90506124db818461235a565b5050506004810160808301806124f0816123e2565b90506124fc8184612437565b5050505050565b61250d828261245a565b5050565b7f43616c6c6572206973206e6f742061207061727469636970616e74206f66207460008201527f686520676976656e206368616e6e656c00000000000000000000000000000000602082015250565b600061256d603083611aa3565b915061257882612511565b604082019050919050565b6000602082019050818103600083015261259c81612560565b9050919050565b7f4368616e6e656c206973206e6f74207965742066696e616c6973656400000000600082015250565b60006125d9601c83611aa3565b91506125e4826125a3565b602082019050919050565b60006020820190508181036000830152612608816125cc565b9050919050565b7f4e6f7468696e6720746f207472616e7366657200000000000000000000000000600082015250565b6000612645601383611aa3565b91506126508261260f565b602082019050919050565b6000602082019050818103600083015261267481612638565b9050919050565b7f5472616e73666572206661696c65640000000000000000000000000000000000600082015250565b60006126b1600f83611aa3565b91506126bc8261267b565b602082019050919050565b600060208201905081810360008301526126e0816126a4565b9050919050565b7f4e487b7100000000000000000000000000000000000000000000000000000000600052605160045260246000fdfea26469706673582212209f7e894d90255eea0a04a2d2c721aff33fed089e5f9fe2a3ebca7ef16cb074c764736f6c63430008130033",
  "linkReferences": {},
  "deployedLinkReferences": {}
}