{
  "_format": "hh-sol-artifact-1",
  "contractName": "ChannelLogic",
  "sourceName": "contracts/ChannelLogic.sol",
  "abi": [
    {
      "anonymous": false,
      "inputs": [
        {
          "indexed": true,
          "internalType": "uint256",
          "name": "transactionId",
          "type": "uint256"
        },
        {
          "indexed": false,
          "internalType": "address",
          "name": "sender",
          "type": "address"
        },
        {
          "indexed": false,
          "internalType": "address",
          "name": "receiver",
          "type": "address"
        },
        {
          "indexed": false,
          "internalType": "uint256",
          "name": "amount",
          "type": "uint256"
        }
      ],
      "name": "NewTransaction",
      "type": "event"
    },
    {
      "anonymous": false,
      "inputs": [
        {
          "indexed": false,
          "internalType": "int256",
          "name": "channel_id",
          "type": "int256"
        },
        {
          "indexed": false,
          "internalType": "address",
          "name": "party",
          "type": "address"
        }
      ],
      "name": "PartyFinalized",
      "type": "event"
    },
    {
      "inputs": [],
      "name": "Contract_Balance",
      "outputs": [
        {
          "internalType": "uint256",
          "name": "",
          "type": "uint256"
        }
      ],
      "stateMutability": "view",
      "type": "function"
    },
    {
      "inputs": [
        {
          "internalType": "int256",
          "name": "",
          "type": "int256"
        }
      ],
      "name": "balances",
      "outputs": [
        {
          "internalType": "uint256",
          "name": "",
          "type": "uint256"
        }
      ],
      "stateMutability": "view",
      "type": "function"
    },
    {
      "inputs": [],
      "name": "channel_count",
      "outputs": [
        {
          "internalType": "int256",
          "name": "",
          "type": "int256"
        }
      ],
      "stateMutability": "view",
      "type": "function"
    },
    {
      "inputs": [
        {
          "internalType": "int256",
          "name": "",
          "type": "int256"
        }
      ],
      "name": "channels",
      "outputs": [
        {
          "components": [
            {
              "internalType": "int256",
              "name": "channel_id",
              "type": "int256"
            },
            {
              "internalType": "uint256",
              "name": "balance_A",
              "type": "uint256"
            },
            {
              "internalType": "uint256",
              "name": "balance_B",
              "type": "uint256"
            },
            {
              "internalType": "int256",
              "name": "version_num",
              "type": "int256"
            },
            {
              "internalType": "bool",
              "name": "finalized",
              "type": "bool"
            }
          ],
          "internalType": "struct Channel_State",
          "name": "state",
          "type": "tuple"
        },
        {
          "components": [
            {
              "components": [
                {
                  "internalType": "address payable",
                  "name": "addresse",
                  "type": "address"
                }
              ],
              "internalType": "struct Participant",
              "name": "participant_a",
              "type": "tuple"
            },
            {
              "components": [
                {
                  "internalType": "address payable",
                  "name": "addresse",
                  "type": "address"
                }
              ],
              "internalType": "struct Participant",
              "name": "participant_b",
              "type": "tuple"
            }
          ],
          "internalType": "struct Channel_Params",
          "name": "params",
          "type": "tuple"
        },
        {
          "components": [
            {
              "internalType": "bool",
              "name": "funded_a",
              "type": "bool"
            },
            {
              "internalType": "bool",
              "name": "funded_b",
              "type": "bool"
            }
          ],
          "internalType": "struct Channel_Control",
          "name": "control",
          "type": "tuple"
        }
      ],
      "stateMutability": "view",
      "type": "function"
    },
    {
      "inputs": [
        {
          "internalType": "int256",
          "name": "channel_id",
          "type": "int256"
        }
      ],
      "name": "close",
      "outputs": [],
      "stateMutability": "nonpayable",
      "type": "function"
    },
    {
      "inputs": [
        {
          "components": [
            {
              "internalType": "int256",
              "name": "channel_id",
              "type": "int256"
            },
            {
              "internalType": "uint256",
              "name": "balance_A",
              "type": "uint256"
            },
            {
              "internalType": "uint256",
              "name": "balance_B",
              "type": "uint256"
            },
            {
              "internalType": "int256",
              "name": "version_num",
              "type": "int256"
            },
            {
              "internalType": "bool",
              "name": "finalized",
              "type": "bool"
            }
          ],
          "internalType": "struct Channel_State",
          "name": "newState",
          "type": "tuple"
        }
      ],
      "name": "finalize",
      "outputs": [],
      "stateMutability": "nonpayable",
      "type": "function"
    },
    {
      "inputs": [
        {
          "internalType": "contract FlashBorrower",
          "name": "receiver",
          "type": "address"
        },
        {
          "internalType": "uint256",
          "name": "amount",
          "type": "uint256"
        },
        {
          "internalType": "bytes",
          "name": "data",
          "type": "bytes"
        }
      ],
      "name": "flashLoan",
      "outputs": [
        {
          "internalType": "bool",
          "name": "",
          "type": "bool"
        }
      ],
      "stateMutability": "nonpayable",
      "type": "function"
    },
    {
      "inputs": [
        {
          "internalType": "int256",
          "name": "channel_id",
          "type": "int256"
        },
        {
          "internalType": "uint256",
          "name": "amount",
          "type": "uint256"
        }
      ],
      "name": "fund",
      "outputs": [],
      "stateMutability": "payable",
      "type": "function"
    },
    {
      "inputs": [
        {
          "components": [
            {
              "components": [
                {
                  "internalType": "address payable",
                  "name": "addresse",
                  "type": "address"
                }
              ],
              "internalType": "struct Participant",
              "name": "participant_a",
              "type": "tuple"
            },
            {
              "components": [
                {
                  "internalType": "address payable",
                  "name": "addresse",
                  "type": "address"
                }
              ],
              "internalType": "struct Participant",
              "name": "participant_b",
              "type": "tuple"
            }
          ],
          "internalType": "struct Channel_Params",
          "name": "params",
          "type": "tuple"
        },
        {
          "components": [
            {
              "internalType": "int256",
              "name": "channel_id",
              "type": "int256"
            },
            {
              "internalType": "uint256",
              "name": "balance_A",
              "type": "uint256"
            },
            {
              "internalType": "uint256",
              "name": "balance_B",
              "type": "uint256"
            },
            {
              "internalType": "int256",
              "name": "version_num",
              "type": "int256"
            },
            {
              "internalType": "bool",
              "name": "finalized",
              "type": "bool"
            }
          ],
          "internalType": "struct Channel_State",
          "name": "state",
          "type": "tuple"
        }
      ],
      "name": "open",
      "outputs": [],
      "stateMutability": "nonpayable",
      "type": "function"
    },
    {
      "inputs": [
        {
          "internalType": "uint256",
          "name": "",
          "type": "uint256"
        }
      ],
      "name": "participants",
      "outputs": [
        {
          "internalType": "address payable",
          "name": "addresse",
          "type": "address"
        }
      ],
      "stateMutability": "view",
      "type": "function"
    },
    {
      "stateMutability": "payable",
      "type": "receive"
    }
  ],
  "bytecode": "0x6080604052600160005560006001556000600355600060045534801561002457600080fd5b5061270c806100346000396000f3fe6080604052600436106100945760003560e01c806372142c3b1161005957806372142c3b146101a2578063a9e3d444146101cb578063c8d53721146101f6578063e0232b4214610221578063f6d5c8a01461025e576100b3565b8062e061c0146100b857806301b31363146100d45780631e265978146100fd57806335c1d3491461013c5780633b8ec14b14610179576100b3565b366100b35734600160008282546100ab919061150a565b925050819055005b600080fd5b6100d260048036038101906100cd91906115b4565b61029b565b005b3480156100e057600080fd5b506100fb60048036038101906100f69190611637565b610717565b005b34801561010957600080fd5b50610124600480360381019061011f9190611677565b610a61565b60405161013393929190611800565b60405180910390f35b34801561014857600080fd5b50610163600480360381019061015e9190611838565b610bf6565b6040516101709190611874565b60405180910390f35b34801561018557600080fd5b506101a0600480360381019061019b919061188f565b610c40565b005b3480156101ae57600080fd5b506101c960048036038101906101c49190611677565b610dfd565b005b3480156101d757600080fd5b506101e06112a4565b6040516101ed91906118cb565b60405180910390f35b34801561020257600080fd5b5061020b6112aa565b60405161021891906118f5565b60405180910390f35b34801561022d57600080fd5b50610248600480360381019061024391906119c5565b6112b0565b6040516102559190611a48565b60405180910390f35b34801561026a57600080fd5b5061028560048036038101906102809190611677565b6112be565b60405161029291906118cb565b60405180910390f35b6000600560008481526020019081526020016000209050828160000160000154146102fb576040517f08c379a00000000000000000000000000000000000000000000000000000000081526004016102f290611ac0565b60405180910390fd5b600015158160000160040160009054906101000a900460ff16151514610356576040517f08c379a000000000000000000000000000000000000000000000000000000000815260040161034d90611b2c565b60405180910390fd5b8060050160000160000160009054906101000a900473ffffffffffffffffffffffffffffffffffffffff1673ffffffffffffffffffffffffffffffffffffffff163373ffffffffffffffffffffffffffffffffffffffff160361051657600015158160070160000160009054906101000a900460ff1615151461040e576040517f08c379a000000000000000000000000000000000000000000000000000000000815260040161040590611b98565b60405180910390fd5b6000803073ffffffffffffffffffffffffffffffffffffffff163460405161043590611be9565b60006040518083038185875af1925050503d8060008114610472576040519150601f19603f3d011682016040523d82523d6000602084013e610477565b606091505b5091509150816104bc576040517f08c379a00000000000000000000000000000000000000000000000000000000081526004016104b390611c4a565b60405180910390fd5b6104c5476112d6565b838360000160010160008282546104dc919061150a565b9250508190555060018360070160000160006101000a81548160ff0219169083151502179055508383600001600101819055505050610712565b8060050160010160000160009054906101000a900473ffffffffffffffffffffffffffffffffffffffff1673ffffffffffffffffffffffffffffffffffffffff163373ffffffffffffffffffffffffffffffffffffffff16036106d657600015158160070160000160019054906101000a900460ff161515146105ce576040517f08c379a00000000000000000000000000000000000000000000000000000000081526004016105c590611cb6565b60405180910390fd5b6000803073ffffffffffffffffffffffffffffffffffffffff16346040516105f590611be9565b60006040518083038185875af1925050503d8060008114610632576040519150601f19603f3d011682016040523d82523d6000602084013e610637565b606091505b50915091508161067c576040517f08c379a000000000000000000000000000000000000000000000000000000000815260040161067390611c4a565b60405180910390fd5b610685476112d6565b8383600001600201600082825461069c919061150a565b9250508190555060018360070160000160016101000a81548160ff0219169083151502179055508383600001600201819055505050610711565b6040517f08c379a000000000000000000000000000000000000000000000000000000000815260040161070890611d22565b60405180910390fd5b5b505050565b80600001356005600083600001358152602001908152602001600020600001600001540361077a576040517f08c379a000000000000000000000000000000000000000000000000000000000815260040161077190611d8e565b60405180910390fd5b600015156107ae836000018036038101906107959190611ea7565b846020018036038101906107a99190611ea7565b61136f565b1515146107f0576040517f08c379a00000000000000000000000000000000000000000000000000000000081526004016107e790611f20565b60405180910390fd5b6000816060013514610837576040517f08c379a000000000000000000000000000000000000000000000000000000000815260040161082e90611f8c565b60405180910390fd5b6000151581608001602081019061084e9190611fd8565b151514610890576040517f08c379a000000000000000000000000000000000000000000000000000000000815260040161088790611b2c565b60405180910390fd5b6108986113f6565b818036038101906108a99190612091565b8160000181905250828036038101906108c2919061210e565b81602001819052506000816040015160000190151590811515815250506000816040015160200190151590811515815250508060056000846000013581526020019081526020016000206000820151816000016000820151816000015560208201518160010155604082015181600201556060820151816003015560808201518160040160006101000a81548160ff021916908315150217905550505060208201518160050160008201518160000160008201518160000160006101000a81548173ffffffffffffffffffffffffffffffffffffffff021916908373ffffffffffffffffffffffffffffffffffffffff160217905550505060208201518160010160008201518160000160006101000a81548173ffffffffffffffffffffffffffffffffffffffff021916908373ffffffffffffffffffffffffffffffffffffffff1602179055505050505060408201518160070160008201518160000160006101000a81548160ff02191690831515021790555060208201518160000160016101000a81548160ff0219169083151502179055505050905050505050565b6005602052806000526040600020600091509050806000016040518060a0016040529081600082015481526020016001820154815260200160028201548152602001600382015481526020016004820160009054906101000a900460ff1615151515815250509080600501604051806040016040529081600082016040518060200160405290816000820160009054906101000a900473ffffffffffffffffffffffffffffffffffffffff1673ffffffffffffffffffffffffffffffffffffffff1673ffffffffffffffffffffffffffffffffffffffff16815250508152602001600182016040518060200160405290816000820160009054906101000a900473ffffffffffffffffffffffffffffffffffffffff1673ffffffffffffffffffffffffffffffffffffffff1673ffffffffffffffffffffffffffffffffffffffff16815250508152505090806007016040518060400160405290816000820160009054906101000a900460ff161515151581526020016000820160019054906101000a900460ff161515151581525050905083565b60028181548110610c0657600080fd5b906000526020600020016000915090508060000160009054906101000a900473ffffffffffffffffffffffffffffffffffffffff16905081565b806000013560056000836000013581526020019081526020016000206000016000015414610ca3576040517f08c379a0000000000000000000000000000000000000000000000000000000008152600401610c9a90611ac0565b60405180910390fd5b60001515600560008360000135815260200190815260200160002060000160040160009054906101000a900460ff16151514610d14576040517f08c379a0000000000000000000000000000000000000000000000000000000008152600401610d0b90612187565b60405180910390fd5b60011515816080016020810190610d2b9190611fd8565b151514610d6d576040517f08c379a0000000000000000000000000000000000000000000000000000000008152600401610d64906121f3565b60405180910390fd5b600560008260000135815260200190815260200160002060000160030154816060013513610dd0576040517f08c379a0000000000000000000000000000000000000000000000000000000008152600401610dc79061225f565b60405180910390fd5b8060056000836000013581526020019081526020016000206000018181610df791906124c3565b90505050565b600060056000838152602001908152602001600020905081816000016000015414610e5d576040517f08c379a0000000000000000000000000000000000000000000000000000000008152600401610e5490611ac0565b60405180910390fd5b3373ffffffffffffffffffffffffffffffffffffffff168160050160000160000160009054906101000a900473ffffffffffffffffffffffffffffffffffffffff1673ffffffffffffffffffffffffffffffffffffffff161480610f1657503373ffffffffffffffffffffffffffffffffffffffff168160050160010160000160009054906101000a900473ffffffffffffffffffffffffffffffffffffffff1673ffffffffffffffffffffffffffffffffffffffff16145b610f55576040517f08c379a0000000000000000000000000000000000000000000000000000000008152600401610f4c90612543565b60405180910390fd5b8060000160040160009054906101000a900460ff16610fa9576040517f08c379a0000000000000000000000000000000000000000000000000000000008152600401610fa0906125af565b60405180910390fd5b60008060008111610fef576040517f08c379a0000000000000000000000000000000000000000000000000000000008152600401610fe69061261b565b60405180910390fd5b60006005600086815260200190815260200160002060000160010154111561110857600560008581526020019081526020016000206000016001015490506000808460050160000160000160009054906101000a900473ffffffffffffffffffffffffffffffffffffffff1673ffffffffffffffffffffffffffffffffffffffff168360405161107e90611be9565b60006040518083038185875af1925050503d80600081146110bb576040519150601f19603f3d011682016040523d82523d6000602084013e6110c0565b606091505b509150915081611105576040517f08c379a00000000000000000000000000000000000000000000000000000000081526004016110fc90612687565b60405180910390fd5b50505b60006005600086815260200190815260200160002060000160020154111561122157600560008581526020019081526020016000206000016002015490506000808460050160010160000160009054906101000a900473ffffffffffffffffffffffffffffffffffffffff1673ffffffffffffffffffffffffffffffffffffffff168360405161119790611be9565b60006040518083038185875af1925050503d80600081146111d4576040519150601f19603f3d011682016040523d82523d6000602084013e6111d9565b606091505b50915091508161121e576040517f08c379a000000000000000000000000000000000000000000000000000000000815260040161121590612687565b60405180910390fd5b50505b8260050160000160000160009054906101000a900473ffffffffffffffffffffffffffffffffffffffff1673ffffffffffffffffffffffffffffffffffffffff168273ffffffffffffffffffffffffffffffffffffffff1603611290576000836000016001018190555061129e565b600083600001600201819055505b50505050565b60015481565b60035481565b600060019050949350505050565b60066020528060005260406000206000915090505481565b61136c816040516024016112ea91906118cb565b6040516020818303038152906040527ff82c50f1000000000000000000000000000000000000000000000000000000007bffffffffffffffffffffffffffffffffffffffffffffffffffffffff19166020820180517bffffffffffffffffffffffffffffffffffffffffffffffffffffffff83818316178352505050506113b0565b50565b6000816000015173ffffffffffffffffffffffffffffffffffffffff16836000015173ffffffffffffffffffffffffffffffffffffffff1614905092915050565b6113c7816113bf6113ca6113eb565b63ffffffff16565b50565b60006a636f6e736f6c652e6c6f679050600080835160208501845afa505050565b611429819050919050565b6040518060600160405280611409611433565b8152602001611416611464565b815260200161142361148a565b81525090565b6114316126a7565b565b6040518060a00160405280600081526020016000815260200160008152602001600081526020016000151581525090565b60405180604001604052806114776114a8565b81526020016114846114a8565b81525090565b60405180604001604052806000151581526020016000151581525090565b6040518060200160405280600073ffffffffffffffffffffffffffffffffffffffff1681525090565b6000819050919050565b7f4e487b7100000000000000000000000000000000000000000000000000000000600052601160045260246000fd5b6000611515826114d1565b9150611520836114d1565b9250828201905080821115611538576115376114db565b5b92915050565b6000604051905090565b600080fd5b600080fd5b6000819050919050565b61156581611552565b811461157057600080fd5b50565b6000813590506115828161155c565b92915050565b611591816114d1565b811461159c57600080fd5b50565b6000813590506115ae81611588565b92915050565b600080604083850312156115cb576115ca611548565b5b60006115d985828601611573565b92505060206115ea8582860161159f565b9150509250929050565b600080fd5b60006040828403121561160f5761160e6115f4565b5b81905092915050565b600060a0828403121561162e5761162d6115f4565b5b81905092915050565b60008060e0838503121561164e5761164d611548565b5b600061165c858286016115f9565b925050604061166d85828601611618565b9150509250929050565b60006020828403121561168d5761168c611548565b5b600061169b84828501611573565b91505092915050565b6116ad81611552565b82525050565b6116bc816114d1565b82525050565b60008115159050919050565b6116d7816116c2565b82525050565b60a0820160008201516116f360008501826116a4565b50602082015161170660208501826116b3565b50604082015161171960408501826116b3565b50606082015161172c60608501826116a4565b50608082015161173f60808501826116ce565b50505050565b600073ffffffffffffffffffffffffffffffffffffffff82169050919050565b600061177082611745565b9050919050565b61178081611765565b82525050565b60208201600082015161179c6000850182611777565b50505050565b6040820160008201516117b86000850182611786565b5060208201516117cb6020850182611786565b50505050565b6040820160008201516117e760008501826116ce565b5060208201516117fa60208501826116ce565b50505050565b60006101208201905061181660008301866116dd565b61182360a08301856117a2565b61183060e08301846117d1565b949350505050565b60006020828403121561184e5761184d611548565b5b600061185c8482850161159f565b91505092915050565b61186e81611765565b82525050565b60006020820190506118896000830184611865565b92915050565b600060a082840312156118a5576118a4611548565b5b60006118b384828501611618565b91505092915050565b6118c5816114d1565b82525050565b60006020820190506118e060008301846118bc565b92915050565b6118ef81611552565b82525050565b600060208201905061190a60008301846118e6565b92915050565b600061191b82611745565b9050919050565b600061192d82611910565b9050919050565b61193d81611922565b811461194857600080fd5b50565b60008135905061195a81611934565b92915050565b600080fd5b600080fd5b600080fd5b60008083601f84011261198557611984611960565b5b8235905067ffffffffffffffff8111156119a2576119a1611965565b5b6020830191508360018202830111156119be576119bd61196a565b5b9250929050565b600080600080606085870312156119df576119de611548565b5b60006119ed8782880161194b565b94505060206119fe8782880161159f565b935050604085013567ffffffffffffffff811115611a1f57611a1e61154d565b5b611a2b8782880161196f565b925092505092959194509250565b611a42816116c2565b82525050565b6000602082019050611a5d6000830184611a39565b92915050565b600082825260208201905092915050565b7f4368616e6e656c20646f6573206e6f7420657869737400000000000000000000600082015250565b6000611aaa601683611a63565b9150611ab582611a74565b602082019050919050565b60006020820190508181036000830152611ad981611a9d565b9050919050565b7f4368616e6e656c2069732066696e616c697a6564000000000000000000000000600082015250565b6000611b16601483611a63565b9150611b2182611ae0565b602082019050919050565b60006020820190508181036000830152611b4581611b09565b9050919050565b7f5061727469636970616e74204120616c72656164792066756e64656400000000600082015250565b6000611b82601c83611a63565b9150611b8d82611b4c565b602082019050919050565b60006020820190508181036000830152611bb181611b75565b9050919050565b600081905092915050565b50565b6000611bd3600083611bb8565b9150611bde82611bc3565b600082019050919050565b6000611bf482611bc6565b9150819050919050565b7f4661696c656420746f2073656e64204574686572000000000000000000000000600082015250565b6000611c34601483611a63565b9150611c3f82611bfe565b602082019050919050565b60006020820190508181036000830152611c6381611c27565b9050919050565b7f5061727469636970616e74204220616c72656164792066756e64656400000000600082015250565b6000611ca0601c83611a63565b9150611cab82611c6a565b602082019050919050565b60006020820190508181036000830152611ccf81611c93565b9050919050565b7f43616c6c6572206973206e6f742061207061727469636970616e740000000000600082015250565b6000611d0c601b83611a63565b9150611d1782611cd6565b602082019050919050565b60006020820190508181036000830152611d3b81611cff565b9050919050565b7f4368616e6e656c20616c72656164792065786973747300000000000000000000600082015250565b6000611d78601683611a63565b9150611d8382611d42565b602082019050919050565b60006020820190508181036000830152611da781611d6b565b9050919050565b600080fd5b6000601f19601f8301169050919050565b7f4e487b7100000000000000000000000000000000000000000000000000000000600052604160045260246000fd5b611dfc82611db3565b810181811067ffffffffffffffff82111715611e1b57611e1a611dc4565b5b80604052505050565b6000611e2e61153e565b9050611e3a8282611df3565b919050565b611e4881611765565b8114611e5357600080fd5b50565b600081359050611e6581611e3f565b92915050565b600060208284031215611e8157611e80611dae565b5b611e8b6020611e24565b90506000611e9b84828501611e56565b60008301525092915050565b600060208284031215611ebd57611ebc611548565b5b6000611ecb84828501611e6b565b91505092915050565b7f5061727469636970616e747320617265207468652073616d6500000000000000600082015250565b6000611f0a601983611a63565b9150611f1582611ed4565b602082019050919050565b60006020820190508181036000830152611f3981611efd565b9050919050565b7f56657273696f6e206e756d626572206973206e6f742030000000000000000000600082015250565b6000611f76601783611a63565b9150611f8182611f40565b602082019050919050565b60006020820190508181036000830152611fa581611f69565b9050919050565b611fb5816116c2565b8114611fc057600080fd5b50565b600081359050611fd281611fac565b92915050565b600060208284031215611fee57611fed611548565b5b6000611ffc84828501611fc3565b91505092915050565b600060a0828403121561201b5761201a611dae565b5b61202560a0611e24565b9050600061203584828501611573565b60008301525060206120498482850161159f565b602083015250604061205d8482850161159f565b604083015250606061207184828501611573565b606083015250608061208584828501611fc3565b60808301525092915050565b600060a082840312156120a7576120a6611548565b5b60006120b584828501612005565b91505092915050565b6000604082840312156120d4576120d3611dae565b5b6120de6040611e24565b905060006120ee84828501611e6b565b600083015250602061210284828501611e6b565b60208301525092915050565b60006040828403121561212457612123611548565b5b6000612132848285016120be565b91505092915050565b7f4368616e6e656c20697320616c72656164792066696e616c697a656400000000600082015250565b6000612171601c83611a63565b915061217c8261213b565b602082019050919050565b600060208201905081810360008301526121a081612164565b9050919050565b7f4e6577204368616e6e656c206973206e6f742066696e616c697a656400000000600082015250565b60006121dd601c83611a63565b91506121e8826121a7565b602082019050919050565b6000602082019050818103600083015261220c816121d0565b9050919050565b7f56657273696f6e204e756d626572206973206e6f7420696e6372656173656400600082015250565b6000612249601f83611a63565b915061225482612213565b602082019050919050565b600060208201905081810360008301526122788161223c565b9050919050565b6000813561228c8161155c565b80915050919050565b60008160001b9050919050565b60007fffffffffffffffffffffffffffffffffffffffffffffffffffffffffffffffff6122ce84612295565b9350801983169250808416831791505092915050565b6000819050919050565b60006123096123046122ff84611552565b6122e4565b611552565b9050919050565b6000819050919050565b612323826122ee565b61233661232f82612310565b83546122a2565b8255505050565b6000813561234a81611588565b80915050919050565b600061236e612369612364846114d1565b6122e4565b6114d1565b9050919050565b6000819050919050565b61238882612353565b61239b61239482612375565b83546122a2565b8255505050565b600081356123af81611fac565b80915050919050565b600060ff6123c584612295565b9350801983169250808416831791505092915050565b60006123e6826116c2565b9050919050565b6000819050919050565b612400826123db565b61241361240c826123ed565b83546123b8565b8255505050565b60008101600083018061242c8161227f565b9050612438818461231a565b50505060018101602083018061244d8161233d565b9050612459818461237f565b50505060028101604083018061246e8161233d565b905061247a818461237f565b50505060038101606083018061248f8161227f565b905061249b818461231a565b5050506004810160808301806124b0816123a2565b90506124bc81846123f7565b5050505050565b6124cd828261241a565b5050565b7f43616c6c6572206973206e6f742061207061727469636970616e74206f66207460008201527f686520676976656e206368616e6e656c00000000000000000000000000000000602082015250565b600061252d603083611a63565b9150612538826124d1565b604082019050919050565b6000602082019050818103600083015261255c81612520565b9050919050565b7f4368616e6e656c206973206e6f74207965742066696e616c6973656400000000600082015250565b6000612599601c83611a63565b91506125a482612563565b602082019050919050565b600060208201905081810360008301526125c88161258c565b9050919050565b7f4e6f7468696e6720746f207472616e7366657200000000000000000000000000600082015250565b6000612605601383611a63565b9150612610826125cf565b602082019050919050565b60006020820190508181036000830152612634816125f8565b9050919050565b7f5472616e73666572206661696c65640000000000000000000000000000000000600082015250565b6000612671600f83611a63565b915061267c8261263b565b602082019050919050565b600060208201905081810360008301526126a081612664565b9050919050565b7f4e487b7100000000000000000000000000000000000000000000000000000000600052605160045260246000fdfea2646970667358221220698abc9d3baf19fc402d4edcc1fc93089684f6eef736c24d7b277aa7b4d11fe964736f6c63430008130033",
  "linkReferences": {},
  "deployedLinkReferences": {}
}