{
  "_format": "hh-sol-artifact-1",
  "contractName": "ChannelLogic",
  "sourceName": "contracts/ChannelLogic.sol",
  "abi": [
    {
      "anonymous": false,
      "inputs": [],
      "name": "ChannelClose",
      "type": "event"
    },
    {
      "anonymous": false,
      "inputs": [
        {
          "indexed": false,
          "internalType": "bool",
          "name": "senderIsA",
          "type": "bool"
        },
        {
          "indexed": false,
          "internalType": "uint256",
          "name": "amount",
          "type": "uint256"
        }
      ],
      "name": "ChannelFund",
      "type": "event"
    },
    {
      "anonymous": false,
      "inputs": [],
      "name": "ChannelOpen",
      "type": "event"
    },
    {
      "anonymous": false,
      "inputs": [],
      "name": "ChannelWithdraw",
      "type": "event"
    },
    {
      "anonymous": false,
      "inputs": [
        {
          "indexed": false,
          "internalType": "uint256",
          "name": "newBalance",
          "type": "uint256"
        }
      ],
      "name": "ContractBalanceUpdated",
      "type": "event"
    },
    {
      "anonymous": false,
      "inputs": [],
      "name": "loanHappend",
      "type": "event"
    },
    {
      "inputs": [],
      "name": "channel_count",
      "outputs": [
        {
          "internalType": "int256",
          "name": "",
          "type": "int256"
        }
      ],
      "stateMutability": "view",
      "type": "function"
    },
    {
      "inputs": [
        {
          "internalType": "int256",
          "name": "",
          "type": "int256"
        }
      ],
      "name": "channels",
      "outputs": [
        {
          "components": [
            {
              "internalType": "int256",
              "name": "channel_id",
              "type": "int256"
            },
            {
              "internalType": "uint256",
              "name": "balance_A",
              "type": "uint256"
            },
            {
              "internalType": "uint256",
              "name": "balance_B",
              "type": "uint256"
            },
            {
              "internalType": "int256",
              "name": "version_num",
              "type": "int256"
            },
            {
              "internalType": "bool",
              "name": "finalized",
              "type": "bool"
            }
          ],
          "internalType": "struct Channel_State",
          "name": "state",
          "type": "tuple"
        },
        {
          "components": [
            {
              "components": [
                {
                  "internalType": "address payable",
                  "name": "addresse",
                  "type": "address"
                }
              ],
              "internalType": "struct Participant",
              "name": "participant_a",
              "type": "tuple"
            },
            {
              "components": [
                {
                  "internalType": "address payable",
                  "name": "addresse",
                  "type": "address"
                }
              ],
              "internalType": "struct Participant",
              "name": "participant_b",
              "type": "tuple"
            }
          ],
          "internalType": "struct Channel_Params",
          "name": "params",
          "type": "tuple"
        },
        {
          "components": [
            {
              "internalType": "bool",
              "name": "funded_a",
              "type": "bool"
            },
            {
              "internalType": "bool",
              "name": "funded_b",
              "type": "bool"
            },
            {
              "internalType": "bool",
              "name": "withdrawed_a",
              "type": "bool"
            },
            {
              "internalType": "bool",
              "name": "withdrawed_b",
              "type": "bool"
            },
            {
              "internalType": "uint256",
              "name": "sum_of_balances",
              "type": "uint256"
            },
            {
              "internalType": "bool",
              "name": "closed",
              "type": "bool"
            }
          ],
          "internalType": "struct Channel_Control",
          "name": "control",
          "type": "tuple"
        }
      ],
      "stateMutability": "view",
      "type": "function"
    },
    {
      "inputs": [
        {
          "components": [
            {
              "internalType": "int256",
              "name": "channel_id",
              "type": "int256"
            },
            {
              "internalType": "uint256",
              "name": "balance_A",
              "type": "uint256"
            },
            {
              "internalType": "uint256",
              "name": "balance_B",
              "type": "uint256"
            },
            {
              "internalType": "int256",
              "name": "version_num",
              "type": "int256"
            },
            {
              "internalType": "bool",
              "name": "finalized",
              "type": "bool"
            }
          ],
          "internalType": "struct Channel_State",
          "name": "finalState",
          "type": "tuple"
        }
      ],
      "name": "close",
      "outputs": [],
      "stateMutability": "nonpayable",
      "type": "function"
    },
    {
      "inputs": [
        {
          "internalType": "uint256",
          "name": "amount",
          "type": "uint256"
        }
      ],
      "name": "flashFee",
      "outputs": [
        {
          "internalType": "uint256",
          "name": "",
          "type": "uint256"
        }
      ],
      "stateMutability": "view",
      "type": "function"
    },
    {
      "inputs": [
        {
          "internalType": "contract FlashBorrower",
          "name": "receiver",
          "type": "address"
        },
        {
          "internalType": "uint256",
          "name": "amount",
          "type": "uint256"
        }
      ],
      "name": "flashLoan",
      "outputs": [
        {
          "internalType": "bool",
          "name": "",
          "type": "bool"
        }
      ],
      "stateMutability": "nonpayable",
      "type": "function"
    },
    {
      "inputs": [
        {
          "internalType": "int256",
          "name": "channel_id",
          "type": "int256"
        }
      ],
      "name": "fund",
      "outputs": [],
      "stateMutability": "payable",
      "type": "function"
    },
    {
      "inputs": [],
      "name": "maxFlashLoan",
      "outputs": [
        {
          "internalType": "uint256",
          "name": "",
          "type": "uint256"
        }
      ],
      "stateMutability": "view",
      "type": "function"
    },
    {
      "inputs": [
        {
          "components": [
            {
              "components": [
                {
                  "internalType": "address payable",
                  "name": "addresse",
                  "type": "address"
                }
              ],
              "internalType": "struct Participant",
              "name": "participant_a",
              "type": "tuple"
            },
            {
              "components": [
                {
                  "internalType": "address payable",
                  "name": "addresse",
                  "type": "address"
                }
              ],
              "internalType": "struct Participant",
              "name": "participant_b",
              "type": "tuple"
            }
          ],
          "internalType": "struct Channel_Params",
          "name": "params",
          "type": "tuple"
        },
        {
          "components": [
            {
              "internalType": "int256",
              "name": "channel_id",
              "type": "int256"
            },
            {
              "internalType": "uint256",
              "name": "balance_A",
              "type": "uint256"
            },
            {
              "internalType": "uint256",
              "name": "balance_B",
              "type": "uint256"
            },
            {
              "internalType": "int256",
              "name": "version_num",
              "type": "int256"
            },
            {
              "internalType": "bool",
              "name": "finalized",
              "type": "bool"
            }
          ],
          "internalType": "struct Channel_State",
          "name": "state",
          "type": "tuple"
        }
      ],
      "name": "open",
      "outputs": [],
      "stateMutability": "nonpayable",
      "type": "function"
    },
    {
      "inputs": [
        {
          "internalType": "uint256",
          "name": "",
          "type": "uint256"
        }
      ],
      "name": "participants",
      "outputs": [
        {
          "internalType": "address payable",
          "name": "addresse",
          "type": "address"
        }
      ],
      "stateMutability": "view",
      "type": "function"
    },
    {
      "inputs": [],
      "name": "payBack",
      "outputs": [
        {
          "internalType": "bool",
          "name": "",
          "type": "bool"
        }
      ],
      "stateMutability": "payable",
      "type": "function"
    },
    {
      "inputs": [
        {
          "internalType": "int256",
          "name": "channel_id",
          "type": "int256"
        }
      ],
      "name": "withdraw",
      "outputs": [],
      "stateMutability": "nonpayable",
      "type": "function"
    },
    {
      "stateMutability": "payable",
      "type": "receive"
    }
  ],
  "bytecode": "0x60806040526103e86000556000600255600060035534801561002057600080fd5b506136ff806100306000396000f3fe6080604052600436106100a05760003560e01c80637e62eab8116100645780637e62eab8146101d15780639d9e465c146101fa578063a7af467a14610237578063acda226614610274578063c8d537211461029d578063e7fc8953146102c8576100de565b8063019f64cc146100e357806301b31363146101015780631e2659781461012a578063242c127c1461016957806335c1d34914610194576100de565b366100de577f0f3e6fb3ceb369618319f4cdcb672be913a6ce581123b8488c5ee84a3f3b48f3346040516100d4919061224f565b60405180910390a1005b600080fd5b6100eb6102e4565b6040516100f89190612285565b60405180910390f35b34801561010d57600080fd5b50610128600480360381019061012391906122f2565b61034c565b005b34801561013657600080fd5b50610151600480360381019061014c9190612368565b6107bf565b60405161016093929190612531565b60405180910390f35b34801561017557600080fd5b5061017e6109af565b60405161018b919061224f565b60405180910390f35b3480156101a057600080fd5b506101bb60048036038101906101b69190612595565b6109be565b6040516101c891906125d1565b60405180910390f35b3480156101dd57600080fd5b506101f860048036038101906101f39190612368565b610a08565b005b34801561020657600080fd5b50610221600480360381019061021c919061263c565b610efb565b60405161022e9190612285565b60405180910390f35b34801561024357600080fd5b5061025e60048036038101906102599190612595565b61114a565b60405161026b919061224f565b60405180910390f35b34801561028057600080fd5b5061029b6004803603810190610296919061267c565b61115c565b005b3480156102a957600080fd5b506102b261185a565b6040516102bf91906126b8565b60405180910390f35b6102e260048036038101906102dd9190612368565b611860565b005b6000600654341461032a576040517f08c379a000000000000000000000000000000000000000000000000000000000815260040161032190612756565b60405180910390fd5b6001600760006101000a81548160ff0219169083151502179055506001905090565b8060000135600460008360000135815260200190815260200160002060000160000154036103af576040517f08c379a00000000000000000000000000000000000000000000000000000000081526004016103a6906127c2565b60405180910390fd5b600015156103e3836000018036038101906103ca91906128db565b846020018036038101906103de91906128db565b611d1c565b151514610425576040517f08c379a000000000000000000000000000000000000000000000000000000000815260040161041c90612954565b60405180910390fd5b600081606001351461046c576040517f08c379a0000000000000000000000000000000000000000000000000000000008152600401610463906129c0565b60405180910390fd5b600015158160800160208101906104839190612a0c565b1515146104c5576040517f08c379a00000000000000000000000000000000000000000000000000000000081526004016104bc90612a85565b60405180910390fd5b6104cd612139565b818036038101906104de9190612b31565b8160000181905250828036038101906104f79190612bae565b81602001819052506000816040015160000190151590811515815250506000816040015160200190151590811515815250506000816040015160400190151590811515815250506000816040015160600190151590811515815250506000816040015160a00190151590811515815250506000816040015160800181815250506002600081548092919061058a90612c0a565b91905055508060046000846000013581526020019081526020016000206000820151816000016000820151816000015560208201518160010155604082015181600201556060820151816003015560808201518160040160006101000a81548160ff021916908315150217905550505060208201518160050160008201518160000160008201518160000160006101000a81548173ffffffffffffffffffffffffffffffffffffffff021916908373ffffffffffffffffffffffffffffffffffffffff160217905550505060208201518160010160008201518160000160006101000a81548173ffffffffffffffffffffffffffffffffffffffff021916908373ffffffffffffffffffffffffffffffffffffffff1602179055505050505060408201518160070160008201518160000160006101000a81548160ff02191690831515021790555060208201518160000160016101000a81548160ff02191690831515021790555060408201518160000160026101000a81548160ff02191690831515021790555060608201518160000160036101000a81548160ff0219169083151502179055506080820151816001015560a08201518160020160006101000a81548160ff02191690831515021790555050509050506005826000013590806001815401808255809150506001900390600052602060002001600090919091909150557f6b3cb66dd3b05a5d6d883902e05aaf7c9b58fdccac36fd8036693fd6bf5c740960405160405180910390a1505050565b6004602052806000526040600020600091509050806000016040518060a0016040529081600082015481526020016001820154815260200160028201548152602001600382015481526020016004820160009054906101000a900460ff1615151515815250509080600501604051806040016040529081600082016040518060200160405290816000820160009054906101000a900473ffffffffffffffffffffffffffffffffffffffff1673ffffffffffffffffffffffffffffffffffffffff1673ffffffffffffffffffffffffffffffffffffffff16815250508152602001600182016040518060200160405290816000820160009054906101000a900473ffffffffffffffffffffffffffffffffffffffff1673ffffffffffffffffffffffffffffffffffffffff1673ffffffffffffffffffffffffffffffffffffffff16815250508152505090806007016040518060c00160405290816000820160009054906101000a900460ff161515151581526020016000820160019054906101000a900460ff161515151581526020016000820160029054906101000a900460ff161515151581526020016000820160039054906101000a900460ff16151515158152602001600182015481526020016002820160009054906101000a900460ff161515151581525050905083565b60006109b9611d5d565b905090565b600181815481106109ce57600080fd5b906000526020600020016000915090508060000160009054906101000a900473ffffffffffffffffffffffffffffffffffffffff16905081565b600060046000838152602001908152602001600020905081816000016000015414610a68576040517f08c379a0000000000000000000000000000000000000000000000000000000008152600401610a5f90612c9e565b60405180910390fd5b3373ffffffffffffffffffffffffffffffffffffffff168160050160000160000160009054906101000a900473ffffffffffffffffffffffffffffffffffffffff1673ffffffffffffffffffffffffffffffffffffffff161480610b2157503373ffffffffffffffffffffffffffffffffffffffff168160050160010160000160009054906101000a900473ffffffffffffffffffffffffffffffffffffffff1673ffffffffffffffffffffffffffffffffffffffff16145b610b60576040517f08c379a0000000000000000000000000000000000000000000000000000000008152600401610b5790612d30565b60405180910390fd5b8060070160020160009054906101000a900460ff16610bb4576040517f08c379a0000000000000000000000000000000000000000000000000000000008152600401610bab90612dc2565b60405180910390fd5b60008160050160000160000160009054906101000a900473ffffffffffffffffffffffffffffffffffffffff1673ffffffffffffffffffffffffffffffffffffffff163373ffffffffffffffffffffffffffffffffffffffff16149050600081610c25578260000160020154610c2e565b82600001600101545b905060008111610c73576040517f08c379a0000000000000000000000000000000000000000000000000000000008152600401610c6a90612e54565b60405180910390fd5b8115610da3578260070160000160029054906101000a900460ff1615610cce576040517f08c379a0000000000000000000000000000000000000000000000000000000008152600401610cc590612ee6565b60405180910390fd5b60018360070160000160026101000a81548160ff0219169083151502179055506000803373ffffffffffffffffffffffffffffffffffffffff1683604051610d1590612f37565b60006040518083038185875af1925050503d8060008114610d52576040519150601f19603f3d011682016040523d82523d6000602084013e610d57565b606091505b509150915081610d9c576040517f08c379a0000000000000000000000000000000000000000000000000000000008152600401610d9390612f98565b60405180910390fd5b5050610ec9565b8260070160000160039054906101000a900460ff1615610df8576040517f08c379a0000000000000000000000000000000000000000000000000000000008152600401610def90612ee6565b60405180910390fd5b60018360070160000160036101000a81548160ff0219169083151502179055506000803373ffffffffffffffffffffffffffffffffffffffff1683604051610e3f90612f37565b60006040518083038185875af1925050503d8060008114610e7c576040519150601f19603f3d011682016040523d82523d6000602084013e610e81565b606091505b509150915081610ec6576040517f08c379a0000000000000000000000000000000000000000000000000000000008152600401610ebd90612f98565b60405180910390fd5b50505b7ff4e42c6379370115781872be13360a00ea462056c2f9f55b769625ddfd16e77260405160405180910390a150505050565b6000610f05611d5d565b670de0b6b3a764000083610f199190612fb8565b1115610f5a576040517f08c379a0000000000000000000000000000000000000000000000000000000008152600401610f5190613092565b60405180910390fd5b60004790506000600760006101000a81548160ff0219169083151502179055506000803373ffffffffffffffffffffffffffffffffffffffff16670de0b6b3a764000086610fa89190612fb8565b604051610fb490612f37565b60006040518083038185875af1925050503d8060008114610ff1576040519150601f19603f3d011682016040523d82523d6000602084013e610ff6565b606091505b5091509150670de0b6b3a764000061100d86611d65565b8661101891906130b2565b6110229190612fb8565b6006819055508573ffffffffffffffffffffffffffffffffffffffff16636d2b653f338761104f89611d65565b6040518463ffffffff1660e01b815260040161106d939291906130f5565b6020604051808303816000875af115801561108c573d6000803e3d6000fd5b505050506040513d601f19601f820116820180604052508101906110b09190613141565b50600760009054906101000a900460ff16611100576040517f08c379a00000000000000000000000000000000000000000000000000000000081526004016110f7906131ba565b60405180910390fd5b61111161110c86611d65565b611d89565b7fd27bb4cd7540ec377599ff260c9cc3354ced40df3d7b901faf87124179f5ee0e60405160405180910390a16001935050505092915050565b600061115582611d65565b9050919050565b60006004600083600001358152602001908152602001600020604051806060016040529081600082016040518060a0016040529081600082015481526020016001820154815260200160028201548152602001600382015481526020016004820160009054906101000a900460ff161515151581525050815260200160058201604051806040016040529081600082016040518060200160405290816000820160009054906101000a900473ffffffffffffffffffffffffffffffffffffffff1673ffffffffffffffffffffffffffffffffffffffff1673ffffffffffffffffffffffffffffffffffffffff16815250508152602001600182016040518060200160405290816000820160009054906101000a900473ffffffffffffffffffffffffffffffffffffffff1673ffffffffffffffffffffffffffffffffffffffff1673ffffffffffffffffffffffffffffffffffffffff1681525050815250508152602001600782016040518060c00160405290816000820160009054906101000a900460ff161515151581526020016000820160019054906101000a900460ff161515151581526020016000820160029054906101000a900460ff161515151581526020016000820160039054906101000a900460ff16151515158152602001600182015481526020016002820160009054906101000a900460ff1615151515815250508152505090508160000135816000015160000151146113b4576040517f08c379a00000000000000000000000000000000000000000000000000000000081526004016113ab90612c9e565b60405180910390fd5b3373ffffffffffffffffffffffffffffffffffffffff168160200151600001516000015173ffffffffffffffffffffffffffffffffffffffff16148061143157503373ffffffffffffffffffffffffffffffffffffffff168160200151602001516000015173ffffffffffffffffffffffffffffffffffffffff16145b611470576040517f08c379a000000000000000000000000000000000000000000000000000000000815260040161146790612d30565b60405180910390fd5b8160800160208101906114839190612a0c565b6114c2576040517f08c379a00000000000000000000000000000000000000000000000000000000081526004016114b990613226565b60405180910390fd5b806040015160a001511561150b576040517f08c379a0000000000000000000000000000000000000000000000000000000008152600401611502906132b8565b60405180910390fd5b8060400151608001518260400135836020013561152891906130b2565b14611568576040517f08c379a000000000000000000000000000000000000000000000000000000000815260040161155f90613370565b60405180910390fd5b818036038101906115799190612b31565b81600001819052506001816040015160a001901515908115158152505060008160200151600001516000015173ffffffffffffffffffffffffffffffffffffffff163373ffffffffffffffffffffffffffffffffffffffff161490506000816115ea578260000151604001516115f4565b8260000151602001515b90506000811115611828578115611718578260400151604001511561164e576040517f08c379a000000000000000000000000000000000000000000000000000000000815260040161164590612ee6565b60405180910390fd5b6001836040015160400190151590811515815250506000803373ffffffffffffffffffffffffffffffffffffffff168360405161168a90612f37565b60006040518083038185875af1925050503d80600081146116c7576040519150601f19603f3d011682016040523d82523d6000602084013e6116cc565b606091505b509150915081611711576040517f08c379a000000000000000000000000000000000000000000000000000000000815260040161170890612f98565b60405180910390fd5b5050611827565b82604001516060015115611761576040517f08c379a000000000000000000000000000000000000000000000000000000000815260040161175890612ee6565b60405180910390fd5b6001836040015160600190151590811515815250506000803373ffffffffffffffffffffffffffffffffffffffff168360405161179d90612f37565b60006040518083038185875af1925050503d80600081146117da576040519150601f19603f3d011682016040523d82523d6000602084013e6117df565b606091505b509150915081611824576040517f08c379a000000000000000000000000000000000000000000000000000000000815260040161181b90612f98565b60405180910390fd5b50505b5b7f63553cd67b42375701691fc25657e232c2f052da26ac1dedce404476404a56c060405160405180910390a150505050565b60025481565b6000600460008381526020019081526020016000209050818160000160000154146118c0576040517f08c379a00000000000000000000000000000000000000000000000000000000081526004016118b790612c9e565b60405180910390fd5b3373ffffffffffffffffffffffffffffffffffffffff168160050160000160000160009054906101000a900473ffffffffffffffffffffffffffffffffffffffff1673ffffffffffffffffffffffffffffffffffffffff16148061197957503373ffffffffffffffffffffffffffffffffffffffff168160050160010160000160009054906101000a900473ffffffffffffffffffffffffffffffffffffffff1673ffffffffffffffffffffffffffffffffffffffff16145b6119b8576040517f08c379a00000000000000000000000000000000000000000000000000000000081526004016119af90612d30565b60405180910390fd5b60008160050160000160000160009054906101000a900473ffffffffffffffffffffffffffffffffffffffff1673ffffffffffffffffffffffffffffffffffffffff163373ffffffffffffffffffffffffffffffffffffffff161490508015611a7b57600015158260070160000160009054906101000a900460ff16151514611a76576040517f08c379a0000000000000000000000000000000000000000000000000000000008152600401611a6d90613402565b60405180910390fd5b611ad7565b600015158260070160000160019054906101000a900460ff16151514611ad6576040517f08c379a0000000000000000000000000000000000000000000000000000000008152600401611acd90613402565b60405180910390fd5b5b600015158260000160040160009054906101000a900460ff16151514611b32576040517f08c379a0000000000000000000000000000000000000000000000000000000008152600401611b2990612a85565b60405180910390fd5b600034905060008111611b7a576040517f08c379a0000000000000000000000000000000000000000000000000000000008152600401611b719061346e565b60405180910390fd5b8115611c135780836000016001018190555060018360070160000160006101000a81548160ff021916908315150217905550611bd560405180606001604052806037815260200161365c603791398460000160010154612057565b7f15962eab8e35ee59d6efe04904ec7a4c85d72704c15c8fb34e7a1c8fe61d04538282604051611c0692919061348e565b60405180910390a1611ca2565b80836000016002018190555060018360070160000160016101000a81548160ff021916908315150217905550611c68604051806060016040528060378152602001613693603791398460000160020154612057565b7f15962eab8e35ee59d6efe04904ec7a4c85d72704c15c8fb34e7a1c8fe61d04538282604051611c9992919061348e565b60405180910390a15b80836007016001016000828254611cb991906130b2565b92505081905550611d166040518060400160405280601681526020017f5468656972206e65772062616c616e63652069733a20000000000000000000008152503373ffffffffffffffffffffffffffffffffffffffff1631612057565b50505050565b6000816000015173ffffffffffffffffffffffffffffffffffffffff16836000015173ffffffffffffffffffffffffffffffffffffffff1614905092915050565b600047905090565b600061271060005483611d789190612fb8565b611d8291906134e6565b9050919050565b60005b6005805490508110156120535760006004600060058481548110611db357611db2613517565b5b90600052602060002001548152602001908152602001600020604051806060016040529081600082016040518060a0016040529081600082015481526020016001820154815260200160028201548152602001600382015481526020016004820160009054906101000a900460ff161515151581525050815260200160058201604051806040016040529081600082016040518060200160405290816000820160009054906101000a900473ffffffffffffffffffffffffffffffffffffffff1673ffffffffffffffffffffffffffffffffffffffff1673ffffffffffffffffffffffffffffffffffffffff16815250508152602001600182016040518060200160405290816000820160009054906101000a900473ffffffffffffffffffffffffffffffffffffffff1673ffffffffffffffffffffffffffffffffffffffff1673ffffffffffffffffffffffffffffffffffffffff1681525050815250508152602001600782016040518060c00160405290816000820160009054906101000a900460ff161515151581526020016000820160019054906101000a900460ff161515151581526020016000820160029054906101000a900460ff161515151581526020016000820160039054906101000a900460ff16151515158152602001600182015481526020016002820160009054906101000a900460ff1615151515815250508152505090508247826040015160800151611fd291906134e6565b611fdc9190612fb8565b8160400151608001818151611ff191906130b2565b9150818152505061203f6040518060400160405280600681526020017f486965723a200000000000000000000000000000000000000000000000000000815250826040015160800151612057565b50808061204b90613546565b915050611d8c565b5050565b6120ef828260405160240161206d9291906135fc565b6040516020818303038152906040527fb60e72cc000000000000000000000000000000000000000000000000000000007bffffffffffffffffffffffffffffffffffffffffffffffffffffffff19166020820180517bffffffffffffffffffffffffffffffffffffffffffffffffffffffff83818316178352505050506120f3565b5050565b61210a8161210261210d61212e565b63ffffffff16565b50565b60006a636f6e736f6c652e6c6f679050600080835160208501845afa505050565b61216c819050919050565b604051806060016040528061214c612176565b81526020016121596121a7565b81526020016121666121cd565b81525090565b61217461362c565b565b6040518060a00160405280600081526020016000815260200160008152602001600081526020016000151581525090565b60405180604001604052806121ba61220d565b81526020016121c761220d565b81525090565b6040518060c00160405280600015158152602001600015158152602001600015158152602001600015158152602001600081526020016000151581525090565b6040518060200160405280600073ffffffffffffffffffffffffffffffffffffffff1681525090565b6000819050919050565b61224981612236565b82525050565b60006020820190506122646000830184612240565b92915050565b60008115159050919050565b61227f8161226a565b82525050565b600060208201905061229a6000830184612276565b92915050565b6000604051905090565b600080fd5b600080fd5b6000604082840312156122ca576122c96122af565b5b81905092915050565b600060a082840312156122e9576122e86122af565b5b81905092915050565b60008060e08385031215612309576123086122aa565b5b6000612317858286016122b4565b9250506040612328858286016122d3565b9150509250929050565b6000819050919050565b61234581612332565b811461235057600080fd5b50565b6000813590506123628161233c565b92915050565b60006020828403121561237e5761237d6122aa565b5b600061238c84828501612353565b91505092915050565b61239e81612332565b82525050565b6123ad81612236565b82525050565b6123bc8161226a565b82525050565b60a0820160008201516123d86000850182612395565b5060208201516123eb60208501826123a4565b5060408201516123fe60408501826123a4565b5060608201516124116060850182612395565b50608082015161242460808501826123b3565b50505050565b600073ffffffffffffffffffffffffffffffffffffffff82169050919050565b60006124558261242a565b9050919050565b6124658161244a565b82525050565b602082016000820151612481600085018261245c565b50505050565b60408201600082015161249d600085018261246b565b5060208201516124b0602085018261246b565b50505050565b60c0820160008201516124cc60008501826123b3565b5060208201516124df60208501826123b3565b5060408201516124f260408501826123b3565b50606082015161250560608501826123b3565b50608082015161251860808501826123a4565b5060a082015161252b60a08501826123b3565b50505050565b60006101a08201905061254760008301866123c2565b61255460a0830185612487565b61256160e08301846124b6565b949350505050565b61257281612236565b811461257d57600080fd5b50565b60008135905061258f81612569565b92915050565b6000602082840312156125ab576125aa6122aa565b5b60006125b984828501612580565b91505092915050565b6125cb8161244a565b82525050565b60006020820190506125e660008301846125c2565b92915050565b60006125f78261242a565b9050919050565b6000612609826125ec565b9050919050565b612619816125fe565b811461262457600080fd5b50565b60008135905061263681612610565b92915050565b60008060408385031215612653576126526122aa565b5b600061266185828601612627565b925050602061267285828601612580565b9150509250929050565b600060a08284031215612692576126916122aa565b5b60006126a0848285016122d3565b91505092915050565b6126b281612332565b82525050565b60006020820190506126cd60008301846126a9565b92915050565b600082825260208201905092915050565b7f446964206e6f742073656e642073756666696369656e742066756e647320746f60008201527f20706179206261636b2074686520666c617368206c6f616e0000000000000000602082015250565b60006127406038836126d3565b915061274b826126e4565b604082019050919050565b6000602082019050818103600083015261276f81612733565b9050919050565b7f4368616e6e656c20616c72656164792065786973747300000000000000000000600082015250565b60006127ac6016836126d3565b91506127b782612776565b602082019050919050565b600060208201905081810360008301526127db8161279f565b9050919050565b600080fd5b6000601f19601f8301169050919050565b7f4e487b7100000000000000000000000000000000000000000000000000000000600052604160045260246000fd5b612830826127e7565b810181811067ffffffffffffffff8211171561284f5761284e6127f8565b5b80604052505050565b60006128626122a0565b905061286e8282612827565b919050565b61287c8161244a565b811461288757600080fd5b50565b60008135905061289981612873565b92915050565b6000602082840312156128b5576128b46127e2565b5b6128bf6020612858565b905060006128cf8482850161288a565b60008301525092915050565b6000602082840312156128f1576128f06122aa565b5b60006128ff8482850161289f565b91505092915050565b7f5061727469636970616e747320617265207468652073616d6500000000000000600082015250565b600061293e6019836126d3565b915061294982612908565b602082019050919050565b6000602082019050818103600083015261296d81612931565b9050919050565b7f56657273696f6e206e756d626572206973206e6f742030000000000000000000600082015250565b60006129aa6017836126d3565b91506129b582612974565b602082019050919050565b600060208201905081810360008301526129d98161299d565b9050919050565b6129e98161226a565b81146129f457600080fd5b50565b600081359050612a06816129e0565b92915050565b600060208284031215612a2257612a216122aa565b5b6000612a30848285016129f7565b91505092915050565b7f4368616e6e656c2069732066696e616c697a6564000000000000000000000000600082015250565b6000612a6f6014836126d3565b9150612a7a82612a39565b602082019050919050565b60006020820190508181036000830152612a9e81612a62565b9050919050565b600060a08284031215612abb57612aba6127e2565b5b612ac560a0612858565b90506000612ad584828501612353565b6000830152506020612ae984828501612580565b6020830152506040612afd84828501612580565b6040830152506060612b1184828501612353565b6060830152506080612b25848285016129f7565b60808301525092915050565b600060a08284031215612b4757612b466122aa565b5b6000612b5584828501612aa5565b91505092915050565b600060408284031215612b7457612b736127e2565b5b612b7e6040612858565b90506000612b8e8482850161289f565b6000830152506020612ba28482850161289f565b60208301525092915050565b600060408284031215612bc457612bc36122aa565b5b6000612bd284828501612b5e565b91505092915050565b7f4e487b7100000000000000000000000000000000000000000000000000000000600052601160045260246000fd5b6000612c1582612332565b91507f7fffffffffffffffffffffffffffffffffffffffffffffffffffffffffffffff8203612c4757612c46612bdb565b5b600182019050919050565b7f4368616e6e656c20646f6573206e6f7420657869737400000000000000000000600082015250565b6000612c886016836126d3565b9150612c9382612c52565b602082019050919050565b60006020820190508181036000830152612cb781612c7b565b9050919050565b7f53656e646572206973206e6f742061207061727469636970616e74206f66207460008201527f686520676976656e206368616e6e656c00000000000000000000000000000000602082015250565b6000612d1a6030836126d3565b9150612d2582612cbe565b604082019050919050565b60006020820190508181036000830152612d4981612d0d565b9050919050565b7f4368616e6e656c20686173206e6f74206265656e20636c6f736564207965742c60008201527f2075736520636c6f736520696e73746561640000000000000000000000000000602082015250565b6000612dac6032836126d3565b9150612db782612d50565b604082019050919050565b60006020820190508181036000830152612ddb81612d9f565b9050919050565b7f5468657265206973206e6f2062616c616e636520666f7220796f7520696e207460008201527f686973206368616e6e656c20746f207769746864726177000000000000000000602082015250565b6000612e3e6037836126d3565b9150612e4982612de2565b604082019050919050565b60006020820190508181036000830152612e6d81612e31565b9050919050565b7f53656e6465722068617320616c72656164792077697468647261776e2074686560008201527f69722062616c616e636500000000000000000000000000000000000000000000602082015250565b6000612ed0602a836126d3565b9150612edb82612e74565b604082019050919050565b60006020820190508181036000830152612eff81612ec3565b9050919050565b600081905092915050565b50565b6000612f21600083612f06565b9150612f2c82612f11565b600082019050919050565b6000612f4282612f14565b9150819050919050565b7f5472616e73666572206661696c65640000000000000000000000000000000000600082015250565b6000612f82600f836126d3565b9150612f8d82612f4c565b602082019050919050565b60006020820190508181036000830152612fb181612f75565b9050919050565b6000612fc382612236565b9150612fce83612236565b9250828202612fdc81612236565b91508282048414831517612ff357612ff2612bdb565b5b5092915050565b7f416d6f756e7420657863656564732074686520666c617368206c6f616e206c6960008201527f6d69742c2074727920746f2063686f6f7365206120736d616c6c657220616d6f60208201527f756e740000000000000000000000000000000000000000000000000000000000604082015250565b600061307c6043836126d3565b915061308782612ffa565b606082019050919050565b600060208201905081810360008301526130ab8161306f565b9050919050565b60006130bd82612236565b91506130c883612236565b92508282019050808211156130e0576130df612bdb565b5b92915050565b6130ef816125ec565b82525050565b600060608201905061310a60008301866130e6565b6131176020830185612240565b6131246040830184612240565b949350505050565b60008151905061313b816129e0565b92915050565b600060208284031215613157576131566122aa565b5b60006131658482850161312c565b91505092915050565b7f5061796261636b20646964206e6f742068617070656e206f72206661696c6564600082015250565b60006131a46020836126d3565b91506131af8261316e565b602082019050919050565b600060208201905081810360008301526131d381613197565b9050919050565b7f4368616e6e656c206973206e6f74207965742066696e616c6973656400000000600082015250565b6000613210601c836126d3565b915061321b826131da565b602082019050919050565b6000602082019050818103600083015261323f81613203565b9050919050565b7f4368616e6e656c2068617320616c7265616479206265656e20636c6f7365642c60008201527f2075736520776974686472617720696e73746561640000000000000000000000602082015250565b60006132a26035836126d3565b91506132ad82613246565b604082019050919050565b600060208201905081810360008301526132d181613295565b9050919050565b7f5468652073756d206f66207468652062616c616e63657320646f6573206e6f7460008201527f206d61746368207468652073756d206f66207468652062616c616e636573206960208201527f6e2074686520636f6e74726f6c20737472756374000000000000000000000000604082015250565b600061335a6054836126d3565b9150613365826132d8565b606082019050919050565b600060208201905081810360008301526133898161334d565b9050919050565b7f53656e6465722068617320616c72656164792066756e6465642074686973206360008201527f68616e6e656c0000000000000000000000000000000000000000000000000000602082015250565b60006133ec6026836126d3565b91506133f782613390565b604082019050919050565b6000602082019050818103600083015261341b816133df565b9050919050565b7f43616e6e6f742066756e642061206368616e6e656c2077697468203020457468600082015250565b60006134586020836126d3565b915061346382613422565b602082019050919050565b600060208201905081810360008301526134878161344b565b9050919050565b60006040820190506134a36000830185612276565b6134b06020830184612240565b9392505050565b7f4e487b7100000000000000000000000000000000000000000000000000000000600052601260045260246000fd5b60006134f182612236565b91506134fc83612236565b92508261350c5761350b6134b7565b5b828204905092915050565b7f4e487b7100000000000000000000000000000000000000000000000000000000600052603260045260246000fd5b600061355182612236565b91507fffffffffffffffffffffffffffffffffffffffffffffffffffffffffffffffff820361358357613582612bdb565b5b600182019050919050565b600081519050919050565b60005b838110156135b757808201518184015260208101905061359c565b60008484015250505050565b60006135ce8261358e565b6135d881856126d3565b93506135e8818560208601613599565b6135f1816127e7565b840191505092915050565b6000604082019050818103600083015261361681856135c3565b90506136256020830184612240565b9392505050565b7f4e487b7100000000000000000000000000000000000000000000000000000000600052605160045260246000fdfe5061727469636970616e74204120686173207375636365737366756c6c792066756e64656420746865206368616e6e656c2077697468205061727469636970616e74204220686173207375636365737366756c6c792066756e64656420746865206368616e6e656c207769746820a2646970667358221220d0394e50456f67dea124885ff1176e8cf121f44cc2d8e4fce88c7c6060f4136764736f6c63430008130033",
  "linkReferences": {},
  "deployedLinkReferences": {}
}