{
  "_format": "hh-sol-artifact-1",
  "contractName": "ChannelLogic",
  "sourceName": "contracts/ChannelLogic.sol",
  "abi": [
    {
      "anonymous": false,
      "inputs": [
        {
          "indexed": false,
          "internalType": "bool",
          "name": "senderIsA",
          "type": "bool"
        }
      ],
      "name": "ChannelClose",
      "type": "event"
    },
    {
      "anonymous": false,
      "inputs": [
        {
          "indexed": false,
          "internalType": "bool",
          "name": "senderIsA",
          "type": "bool"
        },
        {
          "indexed": false,
          "internalType": "uint256",
          "name": "amount",
          "type": "uint256"
        }
      ],
      "name": "ChannelFund",
      "type": "event"
    },
    {
      "anonymous": false,
      "inputs": [],
      "name": "ChannelOpen",
      "type": "event"
    },
    {
      "anonymous": false,
      "inputs": [
        {
          "indexed": false,
          "internalType": "bool",
          "name": "senderIsA",
          "type": "bool"
        }
      ],
      "name": "ChannelWithdraw",
      "type": "event"
    },
    {
      "anonymous": false,
      "inputs": [
        {
          "indexed": false,
          "internalType": "uint256",
          "name": "newBalance",
          "type": "uint256"
        }
      ],
      "name": "ContractBalanceUpdated",
      "type": "event"
    },
    {
      "anonymous": false,
      "inputs": [],
      "name": "loanHappend",
      "type": "event"
    },
    {
      "inputs": [],
      "name": "channel_count",
      "outputs": [
        {
          "internalType": "int256",
          "name": "",
          "type": "int256"
        }
      ],
      "stateMutability": "view",
      "type": "function"
    },
    {
      "inputs": [
        {
          "internalType": "uint256",
          "name": "",
          "type": "uint256"
        }
      ],
      "name": "channels",
      "outputs": [
        {
          "components": [
            {
              "internalType": "uint256",
              "name": "channel_id",
              "type": "uint256"
            },
            {
              "internalType": "uint256",
              "name": "balance_A",
              "type": "uint256"
            },
            {
              "internalType": "uint256",
              "name": "balance_B",
              "type": "uint256"
            },
            {
              "internalType": "int256",
              "name": "version_num",
              "type": "int256"
            },
            {
              "internalType": "bool",
              "name": "finalized",
              "type": "bool"
            }
          ],
          "internalType": "struct Channel_State",
          "name": "state",
          "type": "tuple"
        },
        {
          "components": [
            {
              "components": [
                {
                  "internalType": "address payable",
                  "name": "addresse",
                  "type": "address"
                }
              ],
              "internalType": "struct Participant",
              "name": "participant_a",
              "type": "tuple"
            },
            {
              "components": [
                {
                  "internalType": "address payable",
                  "name": "addresse",
                  "type": "address"
                }
              ],
              "internalType": "struct Participant",
              "name": "participant_b",
              "type": "tuple"
            }
          ],
          "internalType": "struct Channel_Params",
          "name": "params",
          "type": "tuple"
        },
        {
          "components": [
            {
              "internalType": "bool",
              "name": "funded_a",
              "type": "bool"
            },
            {
              "internalType": "bool",
              "name": "funded_b",
              "type": "bool"
            },
            {
              "internalType": "bool",
              "name": "withdrawed_a",
              "type": "bool"
            },
            {
              "internalType": "bool",
              "name": "withdrawed_b",
              "type": "bool"
            },
            {
              "internalType": "uint256",
              "name": "sum_of_balances",
              "type": "uint256"
            },
            {
              "internalType": "bool",
              "name": "closed",
              "type": "bool"
            }
          ],
          "internalType": "struct Channel_Control",
          "name": "control",
          "type": "tuple"
        }
      ],
      "stateMutability": "view",
      "type": "function"
    },
    {
      "inputs": [
        {
          "components": [
            {
              "internalType": "uint256",
              "name": "channel_id",
              "type": "uint256"
            },
            {
              "internalType": "uint256",
              "name": "balance_A",
              "type": "uint256"
            },
            {
              "internalType": "uint256",
              "name": "balance_B",
              "type": "uint256"
            },
            {
              "internalType": "int256",
              "name": "version_num",
              "type": "int256"
            },
            {
              "internalType": "bool",
              "name": "finalized",
              "type": "bool"
            }
          ],
          "internalType": "struct Channel_State",
          "name": "finalState",
          "type": "tuple"
        }
      ],
      "name": "close",
      "outputs": [],
      "stateMutability": "nonpayable",
      "type": "function"
    },
    {
      "inputs": [
        {
          "internalType": "uint256",
          "name": "amount",
          "type": "uint256"
        }
      ],
      "name": "flashFee",
      "outputs": [
        {
          "internalType": "uint256",
          "name": "",
          "type": "uint256"
        }
      ],
      "stateMutability": "view",
      "type": "function"
    },
    {
      "inputs": [
        {
          "internalType": "contract FlashBorrower",
          "name": "receiver",
          "type": "address"
        },
        {
          "internalType": "uint256",
          "name": "amount",
          "type": "uint256"
        }
      ],
      "name": "flashLoan",
      "outputs": [
        {
          "internalType": "bool",
          "name": "",
          "type": "bool"
        }
      ],
      "stateMutability": "nonpayable",
      "type": "function"
    },
    {
      "inputs": [
        {
          "internalType": "uint256",
          "name": "channel_id",
          "type": "uint256"
        }
      ],
      "name": "fund",
      "outputs": [],
      "stateMutability": "payable",
      "type": "function"
    },
    {
      "inputs": [],
      "name": "maxFlashLoan",
      "outputs": [
        {
          "internalType": "uint256",
          "name": "",
          "type": "uint256"
        }
      ],
      "stateMutability": "view",
      "type": "function"
    },
    {
      "inputs": [
        {
          "components": [
            {
              "components": [
                {
                  "internalType": "address payable",
                  "name": "addresse",
                  "type": "address"
                }
              ],
              "internalType": "struct Participant",
              "name": "participant_a",
              "type": "tuple"
            },
            {
              "components": [
                {
                  "internalType": "address payable",
                  "name": "addresse",
                  "type": "address"
                }
              ],
              "internalType": "struct Participant",
              "name": "participant_b",
              "type": "tuple"
            }
          ],
          "internalType": "struct Channel_Params",
          "name": "params",
          "type": "tuple"
        },
        {
          "components": [
            {
              "internalType": "uint256",
              "name": "channel_id",
              "type": "uint256"
            },
            {
              "internalType": "uint256",
              "name": "balance_A",
              "type": "uint256"
            },
            {
              "internalType": "uint256",
              "name": "balance_B",
              "type": "uint256"
            },
            {
              "internalType": "int256",
              "name": "version_num",
              "type": "int256"
            },
            {
              "internalType": "bool",
              "name": "finalized",
              "type": "bool"
            }
          ],
          "internalType": "struct Channel_State",
          "name": "state",
          "type": "tuple"
        }
      ],
      "name": "open",
      "outputs": [],
      "stateMutability": "nonpayable",
      "type": "function"
    },
    {
      "inputs": [
        {
          "internalType": "uint256",
          "name": "",
          "type": "uint256"
        }
      ],
      "name": "participants",
      "outputs": [
        {
          "internalType": "address payable",
          "name": "addresse",
          "type": "address"
        }
      ],
      "stateMutability": "view",
      "type": "function"
    },
    {
      "inputs": [],
      "name": "payBack",
      "outputs": [
        {
          "internalType": "bool",
          "name": "",
          "type": "bool"
        }
      ],
      "stateMutability": "payable",
      "type": "function"
    },
    {
      "inputs": [
        {
          "internalType": "uint256",
          "name": "channel_id",
          "type": "uint256"
        }
      ],
      "name": "withdraw",
      "outputs": [],
      "stateMutability": "nonpayable",
      "type": "function"
    },
    {
      "stateMutability": "payable",
      "type": "receive"
    }
  ],
  "bytecode": "0x60806040526103e86000556000600255600060035534801561002057600080fd5b50613969806100306000396000f3fe6080604052600436106100a05760003560e01c8063a7af467a11610064578063a7af467a146101cf578063b72a411a1461020c578063c8d5372114610235578063ca1d209d14610260578063e3026a811461027c578063e5949b5d146102a5576100de565b8063019f64cc146100e3578063242c127c146101015780632e1a7d4d1461012c57806335c1d349146101555780639d9e465c14610192576100de565b366100de577f0f3e6fb3ceb369618319f4cdcb672be913a6ce581123b8488c5ee84a3f3b48f3346040516100d49190612182565b60405180910390a1005b600080fd5b6100eb6102e4565b6040516100f891906121b8565b60405180910390f35b34801561010d57600080fd5b5061011661034c565b6040516101239190612182565b60405180910390f35b34801561013857600080fd5b50610153600480360381019061014e919061220e565b61035b565b005b34801561016157600080fd5b5061017c6004803603810190610177919061220e565b610873565b604051610189919061227c565b60405180910390f35b34801561019e57600080fd5b506101b960048036038101906101b491906122e7565b6108bd565b6040516101c691906121b8565b60405180910390f35b3480156101db57600080fd5b506101f660048036038101906101f1919061220e565b610b4f565b6040516102039190612182565b60405180910390f35b34801561021857600080fd5b50610233600480360381019061022e919061234b565b610b61565b005b34801561024157600080fd5b5061024a6111f7565b6040516102579190612391565b60405180910390f35b61027a6004803603810190610275919061220e565b6111fd565b005b34801561028857600080fd5b506102a3600480360381019061029e91906123cb565b6116b9565b005b3480156102b157600080fd5b506102cc60048036038101906102c7919061220e565b611b2c565b6040516102db93929190612575565b60405180910390f35b6000600654341461032a576040517f08c379a000000000000000000000000000000000000000000000000000000000815260040161032190612630565b60405180910390fd5b6001600760006101000a81548160ff0219169083151502179055506001905090565b6000610356611d1c565b905090565b6000600460008381526020019081526020016000209050818160000160000154146103bb576040517f08c379a00000000000000000000000000000000000000000000000000000000081526004016103b29061269c565b60405180910390fd5b3373ffffffffffffffffffffffffffffffffffffffff168160050160000160000160009054906101000a900473ffffffffffffffffffffffffffffffffffffffff1673ffffffffffffffffffffffffffffffffffffffff16148061047457503373ffffffffffffffffffffffffffffffffffffffff168160050160010160000160009054906101000a900473ffffffffffffffffffffffffffffffffffffffff1673ffffffffffffffffffffffffffffffffffffffff16145b6104b3576040517f08c379a00000000000000000000000000000000000000000000000000000000081526004016104aa9061272e565b60405180910390fd5b8060070160020160009054906101000a900460ff16610507576040517f08c379a00000000000000000000000000000000000000000000000000000000081526004016104fe906127c0565b60405180910390fd5b60008160050160000160000160009054906101000a900473ffffffffffffffffffffffffffffffffffffffff1673ffffffffffffffffffffffffffffffffffffffff163373ffffffffffffffffffffffffffffffffffffffff16149050600081610578578260000160020154610581565b82600001600101545b9050600081116105c6576040517f08c379a00000000000000000000000000000000000000000000000000000000081526004016105bd90612852565b60405180910390fd5b8115610703578260070160000160029054906101000a900460ff1615610621576040517f08c379a0000000000000000000000000000000000000000000000000000000008152600401610618906128e4565b60405180910390fd5b60018360070160000160026101000a81548160ff021916908315150217905550600083600001600101819055506000803373ffffffffffffffffffffffffffffffffffffffff168360405161067590612935565b60006040518083038185875af1925050503d80600081146106b2576040519150601f19603f3d011682016040523d82523d6000602084013e6106b7565b606091505b5091509150816106fc576040517f08c379a00000000000000000000000000000000000000000000000000000000081526004016106f390612996565b60405180910390fd5b5050610836565b8260070160000160039054906101000a900460ff1615610758576040517f08c379a000000000000000000000000000000000000000000000000000000000815260040161074f906128e4565b60405180910390fd5b60018360070160000160036101000a81548160ff021916908315150217905550600083600001600201819055506000803373ffffffffffffffffffffffffffffffffffffffff16836040516107ac90612935565b60006040518083038185875af1925050503d80600081146107e9576040519150601f19603f3d011682016040523d82523d6000602084013e6107ee565b606091505b509150915081610833576040517f08c379a000000000000000000000000000000000000000000000000000000000815260040161082a90612996565b60405180910390fd5b50505b7f5f2e9412d2c47b448c01c5bf2fb6f78f827bef13cf6224ad47c8ed2e47a0147f8260405161086591906121b8565b60405180910390a150505050565b6001818154811061088357600080fd5b906000526020600020016000915090508060000160009054906101000a900473ffffffffffffffffffffffffffffffffffffffff16905081565b6000808211610901576040517f08c379a00000000000000000000000000000000000000000000000000000000081526004016108f890612a02565b60405180910390fd5b610909611d1c565b82111561094b576040517f08c379a000000000000000000000000000000000000000000000000000000000815260040161094290612aba565b60405180910390fd5b6000600760006101000a81548160ff0219169083151502179055506000803373ffffffffffffffffffffffffffffffffffffffff168460405161098d90612935565b60006040518083038185875af1925050503d80600081146109ca576040519150601f19603f3d011682016040523d82523d6000602084013e6109cf565b606091505b509150915081610a14576040517f08c379a0000000000000000000000000000000000000000000000000000000008152600401610a0b90612996565b60405180910390fd5b610a1d84611d24565b84610a289190612b09565b6006819055508473ffffffffffffffffffffffffffffffffffffffff16636d2b653f3386610a5588611d24565b6040518463ffffffff1660e01b8152600401610a7393929190612b4c565b6020604051808303816000875af1158015610a92573d6000803e3d6000fd5b505050506040513d601f19601f82011682018060405250810190610ab69190612baf565b50600760009054906101000a900460ff16610b06576040517f08c379a0000000000000000000000000000000000000000000000000000000008152600401610afd90612c28565b60405180910390fd5b610b17610b1285611d24565b611d48565b7fd27bb4cd7540ec377599ff260c9cc3354ced40df3d7b901faf87124179f5ee0e60405160405180910390a160019250505092915050565b6000610b5a82611d24565b9050919050565b6000600460008360000135815260200190815260200160002090508160000135816000016000015414610bc9576040517f08c379a0000000000000000000000000000000000000000000000000000000008152600401610bc09061269c565b60405180910390fd5b3373ffffffffffffffffffffffffffffffffffffffff168160050160000160000160009054906101000a900473ffffffffffffffffffffffffffffffffffffffff1673ffffffffffffffffffffffffffffffffffffffff161480610c8257503373ffffffffffffffffffffffffffffffffffffffff168160050160010160000160009054906101000a900473ffffffffffffffffffffffffffffffffffffffff1673ffffffffffffffffffffffffffffffffffffffff16145b610cc1576040517f08c379a0000000000000000000000000000000000000000000000000000000008152600401610cb89061272e565b60405180910390fd5b816080016020810190610cd49190612c5d565b610d13576040517f08c379a0000000000000000000000000000000000000000000000000000000008152600401610d0a90612cd6565b60405180910390fd5b8060070160020160009054906101000a900460ff1615610d68576040517f08c379a0000000000000000000000000000000000000000000000000000000008152600401610d5f90612d68565b60405180910390fd5b806007016001015482604001358360200135610d849190612b09565b14610dc4576040517f08c379a0000000000000000000000000000000000000000000000000000000008152600401610dbb90612e20565b60405180910390fd5b81816000018181610dd5919061309b565b90505060018160070160020160006101000a81548160ff02191690831515021790555060008160050160000160000160009054906101000a900473ffffffffffffffffffffffffffffffffffffffff1673ffffffffffffffffffffffffffffffffffffffff163373ffffffffffffffffffffffffffffffffffffffff16149050600081610e69578260000160020154610e72565b82600001600101545b905060008111156110ee578115610fba578260070160000160029054906101000a900460ff1615610ed8576040517f08c379a0000000000000000000000000000000000000000000000000000000008152600401610ecf906128e4565b60405180910390fd5b60018360070160000160026101000a81548160ff021916908315150217905550600083600001600101819055506000803373ffffffffffffffffffffffffffffffffffffffff1683604051610f2c90612935565b60006040518083038185875af1925050503d8060008114610f69576040519150601f19603f3d011682016040523d82523d6000602084013e610f6e565b606091505b509150915081610fb3576040517f08c379a0000000000000000000000000000000000000000000000000000000008152600401610faa90612996565b60405180910390fd5b50506110ed565b8260070160000160039054906101000a900460ff161561100f576040517f08c379a0000000000000000000000000000000000000000000000000000000008152600401611006906128e4565b60405180910390fd5b60018360070160000160036101000a81548160ff021916908315150217905550600083600001600201819055506000803373ffffffffffffffffffffffffffffffffffffffff168360405161106390612935565b60006040518083038185875af1925050503d80600081146110a0576040519150601f19603f3d011682016040523d82523d6000602084013e6110a5565b606091505b5091509150816110ea576040517f08c379a00000000000000000000000000000000000000000000000000000000081526004016110e190612996565b60405180910390fd5b50505b5b60005b6005805490508110156111b957846000013560058281548110611117576111166130a9565b5b9060005260206000200154036111a6576005600160058054905061113b91906130d8565b8154811061114c5761114b6130a9565b5b90600052602060002001546005828154811061116b5761116a6130a9565b5b9060005260206000200181905550600580548061118b5761118a61310c565b5b600190038181906000526020600020016000905590556111b9565b80806111b19061313b565b9150506110f1565b507fd7495a5b90f37913fe77ee0135d8181b440a2c259cd301f62f3ab4fc6cd42b9d826040516111e991906121b8565b60405180910390a150505050565b60025481565b60006004600083815260200190815260200160002090508181600001600001541461125d576040517f08c379a00000000000000000000000000000000000000000000000000000000081526004016112549061269c565b60405180910390fd5b3373ffffffffffffffffffffffffffffffffffffffff168160050160000160000160009054906101000a900473ffffffffffffffffffffffffffffffffffffffff1673ffffffffffffffffffffffffffffffffffffffff16148061131657503373ffffffffffffffffffffffffffffffffffffffff168160050160010160000160009054906101000a900473ffffffffffffffffffffffffffffffffffffffff1673ffffffffffffffffffffffffffffffffffffffff16145b611355576040517f08c379a000000000000000000000000000000000000000000000000000000000815260040161134c9061272e565b60405180910390fd5b60008160050160000160000160009054906101000a900473ffffffffffffffffffffffffffffffffffffffff1673ffffffffffffffffffffffffffffffffffffffff163373ffffffffffffffffffffffffffffffffffffffff16149050801561141857600015158260070160000160009054906101000a900460ff16151514611413576040517f08c379a000000000000000000000000000000000000000000000000000000000815260040161140a906131f5565b60405180910390fd5b611474565b600015158260070160000160019054906101000a900460ff16151514611473576040517f08c379a000000000000000000000000000000000000000000000000000000000815260040161146a906131f5565b60405180910390fd5b5b600015158260000160040160009054906101000a900460ff161515146114cf576040517f08c379a00000000000000000000000000000000000000000000000000000000081526004016114c690613261565b60405180910390fd5b600034905060008111611517576040517f08c379a000000000000000000000000000000000000000000000000000000000815260040161150e906132cd565b60405180910390fd5b81156115b05780836000016001018190555060018360070160000160006101000a81548160ff0219169083151502179055506115726040518060600160405280603781526020016138a5603791398460000160010154611eb0565b7f15962eab8e35ee59d6efe04904ec7a4c85d72704c15c8fb34e7a1c8fe61d045382826040516115a39291906132ed565b60405180910390a161163f565b80836000016002018190555060018360070160000160016101000a81548160ff0219169083151502179055506116056040518060600160405280603781526020016138fd603791398460000160020154611eb0565b7f15962eab8e35ee59d6efe04904ec7a4c85d72704c15c8fb34e7a1c8fe61d045382826040516116369291906132ed565b60405180910390a15b808360070160010160008282546116569190612b09565b925050819055506116b36040518060400160405280601681526020017f5468656972206e65772062616c616e63652069733a20000000000000000000008152503373ffffffffffffffffffffffffffffffffffffffff1631611eb0565b50505050565b80600001356004600083600001358152602001908152602001600020600001600001540361171c576040517f08c379a000000000000000000000000000000000000000000000000000000000815260040161171390613362565b60405180910390fd5b6000151561175083600001803603810190611737919061347b565b8460200180360381019061174b919061347b565b611f4c565b151514611792576040517f08c379a0000000000000000000000000000000000000000000000000000000008152600401611789906134f4565b60405180910390fd5b60008160600135146117d9576040517f08c379a00000000000000000000000000000000000000000000000000000000081526004016117d090613560565b60405180910390fd5b600015158160800160208101906117f09190612c5d565b151514611832576040517f08c379a000000000000000000000000000000000000000000000000000000000815260040161182990613261565b60405180910390fd5b61183a61206c565b8180360381019061184b9190613621565b816000018190525082803603810190611864919061369e565b81602001819052506000816040015160000190151590811515815250506000816040015160200190151590811515815250506000816040015160400190151590811515815250506000816040015160600190151590811515815250506000816040015160a0019015159081151581525050600081604001516080018181525050600260008154809291906118f7906136cb565b91905055508060046000846000013581526020019081526020016000206000820151816000016000820151816000015560208201518160010155604082015181600201556060820151816003015560808201518160040160006101000a81548160ff021916908315150217905550505060208201518160050160008201518160000160008201518160000160006101000a81548173ffffffffffffffffffffffffffffffffffffffff021916908373ffffffffffffffffffffffffffffffffffffffff160217905550505060208201518160010160008201518160000160006101000a81548173ffffffffffffffffffffffffffffffffffffffff021916908373ffffffffffffffffffffffffffffffffffffffff1602179055505050505060408201518160070160008201518160000160006101000a81548160ff02191690831515021790555060208201518160000160016101000a81548160ff02191690831515021790555060408201518160000160026101000a81548160ff02191690831515021790555060608201518160000160036101000a81548160ff0219169083151502179055506080820151816001015560a08201518160020160006101000a81548160ff02191690831515021790555050509050506005826000013590806001815401808255809150506001900390600052602060002001600090919091909150557f6b3cb66dd3b05a5d6d883902e05aaf7c9b58fdccac36fd8036693fd6bf5c740960405160405180910390a1505050565b6004602052806000526040600020600091509050806000016040518060a0016040529081600082015481526020016001820154815260200160028201548152602001600382015481526020016004820160009054906101000a900460ff1615151515815250509080600501604051806040016040529081600082016040518060200160405290816000820160009054906101000a900473ffffffffffffffffffffffffffffffffffffffff1673ffffffffffffffffffffffffffffffffffffffff1673ffffffffffffffffffffffffffffffffffffffff16815250508152602001600182016040518060200160405290816000820160009054906101000a900473ffffffffffffffffffffffffffffffffffffffff1673ffffffffffffffffffffffffffffffffffffffff1673ffffffffffffffffffffffffffffffffffffffff16815250508152505090806007016040518060c00160405290816000820160009054906101000a900460ff161515151581526020016000820160019054906101000a900460ff161515151581526020016000820160029054906101000a900460ff161515151581526020016000820160039054906101000a900460ff16151515158152602001600182015481526020016002820160009054906101000a900460ff161515151581525050905083565b600047905090565b600061271060005483611d379190613713565b611d419190613784565b9050919050565b611d866040518060400160405280601a81526020017f52656163686564206368616e6e656c4469737472696275746f72000000000000815250611f8d565b60005b600580549050811015611eac5760006004600060058481548110611db057611daf6130a9565b5b906000526020600020015481526020019081526020016000209050611e116040518060400160405280601781526020017f73756d206f662062616c616e636573206461766f723a200000000000000000008152508260070160010154611eb0565b6064838447611e2091906130d8565b60648460070160010154611e349190613713565b611e3e9190613784565b611e489190613713565b611e529190613784565b816007016001016000828254611e689190612b09565b92505081905550611e986040518060600160405280602181526020016138dc602191398260070160010154611eb0565b508080611ea49061313b565b915050611d89565b5050565b611f488282604051602401611ec6929190613823565b6040516020818303038152906040527fb60e72cc000000000000000000000000000000000000000000000000000000007bffffffffffffffffffffffffffffffffffffffffffffffffffffffff19166020820180517bffffffffffffffffffffffffffffffffffffffffffffffffffffffff8381831617835250505050612026565b5050565b6000816000015173ffffffffffffffffffffffffffffffffffffffff16836000015173ffffffffffffffffffffffffffffffffffffffff1614905092915050565b61202381604051602401611fa19190613853565b6040516020818303038152906040527f41304fac000000000000000000000000000000000000000000000000000000007bffffffffffffffffffffffffffffffffffffffffffffffffffffffff19166020820180517bffffffffffffffffffffffffffffffffffffffffffffffffffffffff8381831617835250505050612026565b50565b61203d81612035612040612061565b63ffffffff16565b50565b60006a636f6e736f6c652e6c6f679050600080835160208501845afa505050565b61209f819050919050565b604051806060016040528061207f6120a9565b815260200161208c6120da565b8152602001612099612100565b81525090565b6120a7613875565b565b6040518060a00160405280600081526020016000815260200160008152602001600081526020016000151581525090565b60405180604001604052806120ed612140565b81526020016120fa612140565b81525090565b6040518060c00160405280600015158152602001600015158152602001600015158152602001600015158152602001600081526020016000151581525090565b6040518060200160405280600073ffffffffffffffffffffffffffffffffffffffff1681525090565b6000819050919050565b61217c81612169565b82525050565b60006020820190506121976000830184612173565b92915050565b60008115159050919050565b6121b28161219d565b82525050565b60006020820190506121cd60008301846121a9565b92915050565b6000604051905090565b600080fd5b6121eb81612169565b81146121f657600080fd5b50565b600081359050612208816121e2565b92915050565b600060208284031215612224576122236121dd565b5b6000612232848285016121f9565b91505092915050565b600073ffffffffffffffffffffffffffffffffffffffff82169050919050565b60006122668261223b565b9050919050565b6122768161225b565b82525050565b6000602082019050612291600083018461226d565b92915050565b60006122a28261223b565b9050919050565b60006122b482612297565b9050919050565b6122c4816122a9565b81146122cf57600080fd5b50565b6000813590506122e1816122bb565b92915050565b600080604083850312156122fe576122fd6121dd565b5b600061230c858286016122d2565b925050602061231d858286016121f9565b9150509250929050565b600080fd5b600060a0828403121561234257612341612327565b5b81905092915050565b600060a08284031215612361576123606121dd565b5b600061236f8482850161232c565b91505092915050565b6000819050919050565b61238b81612378565b82525050565b60006020820190506123a66000830184612382565b92915050565b6000604082840312156123c2576123c1612327565b5b81905092915050565b60008060e083850312156123e2576123e16121dd565b5b60006123f0858286016123ac565b92505060406124018582860161232c565b9150509250929050565b61241481612169565b82525050565b61242381612378565b82525050565b6124328161219d565b82525050565b60a08201600082015161244e600085018261240b565b506020820151612461602085018261240b565b506040820151612474604085018261240b565b506060820151612487606085018261241a565b50608082015161249a6080850182612429565b50505050565b6124a98161225b565b82525050565b6020820160008201516124c560008501826124a0565b50505050565b6040820160008201516124e160008501826124af565b5060208201516124f460208501826124af565b50505050565b60c0820160008201516125106000850182612429565b5060208201516125236020850182612429565b5060408201516125366040850182612429565b5060608201516125496060850182612429565b50608082015161255c608085018261240b565b5060a082015161256f60a0850182612429565b50505050565b60006101a08201905061258b6000830186612438565b61259860a08301856124cb565b6125a560e08301846124fa565b949350505050565b600082825260208201905092915050565b7f446964206e6f742073656e642073756666696369656e742066756e647320746f60008201527f20706179206261636b2074686520666c617368206c6f616e0000000000000000602082015250565b600061261a6038836125ad565b9150612625826125be565b604082019050919050565b600060208201905081810360008301526126498161260d565b9050919050565b7f4368616e6e656c20646f6573206e6f7420657869737400000000000000000000600082015250565b60006126866016836125ad565b915061269182612650565b602082019050919050565b600060208201905081810360008301526126b581612679565b9050919050565b7f53656e646572206973206e6f742061207061727469636970616e74206f66207460008201527f686520676976656e206368616e6e656c00000000000000000000000000000000602082015250565b60006127186030836125ad565b9150612723826126bc565b604082019050919050565b600060208201905081810360008301526127478161270b565b9050919050565b7f4368616e6e656c20686173206e6f74206265656e20636c6f736564207965742c60008201527f2075736520636c6f736520696e73746561640000000000000000000000000000602082015250565b60006127aa6032836125ad565b91506127b58261274e565b604082019050919050565b600060208201905081810360008301526127d98161279d565b9050919050565b7f5468657265206973206e6f2062616c616e636520666f7220796f7520696e207460008201527f686973206368616e6e656c20746f207769746864726177000000000000000000602082015250565b600061283c6037836125ad565b9150612847826127e0565b604082019050919050565b6000602082019050818103600083015261286b8161282f565b9050919050565b7f53656e6465722068617320616c72656164792077697468647261776e2074686560008201527f69722062616c616e636500000000000000000000000000000000000000000000602082015250565b60006128ce602a836125ad565b91506128d982612872565b604082019050919050565b600060208201905081810360008301526128fd816128c1565b9050919050565b600081905092915050565b50565b600061291f600083612904565b915061292a8261290f565b600082019050919050565b600061294082612912565b9150819050919050565b7f5472616e73666572206661696c65640000000000000000000000000000000000600082015250565b6000612980600f836125ad565b915061298b8261294a565b602082019050919050565b600060208201905081810360008301526129af81612973565b9050919050565b7f416d6f756e742068617320746f2062652067726561746572207468616e203000600082015250565b60006129ec601f836125ad565b91506129f7826129b6565b602082019050919050565b60006020820190508181036000830152612a1b816129df565b9050919050565b7f416d6f756e7420657863656564732074686520666c617368206c6f616e206c6960008201527f6d69742c2074727920746f2063686f6f7365206120736d616c6c657220616d6f60208201527f756e740000000000000000000000000000000000000000000000000000000000604082015250565b6000612aa46043836125ad565b9150612aaf82612a22565b606082019050919050565b60006020820190508181036000830152612ad381612a97565b9050919050565b7f4e487b7100000000000000000000000000000000000000000000000000000000600052601160045260246000fd5b6000612b1482612169565b9150612b1f83612169565b9250828201905080821115612b3757612b36612ada565b5b92915050565b612b4681612297565b82525050565b6000606082019050612b616000830186612b3d565b612b6e6020830185612173565b612b7b6040830184612173565b949350505050565b612b8c8161219d565b8114612b9757600080fd5b50565b600081519050612ba981612b83565b92915050565b600060208284031215612bc557612bc46121dd565b5b6000612bd384828501612b9a565b91505092915050565b7f5061796261636b20646964206e6f742068617070656e206f72206661696c6564600082015250565b6000612c126020836125ad565b9150612c1d82612bdc565b602082019050919050565b60006020820190508181036000830152612c4181612c05565b9050919050565b600081359050612c5781612b83565b92915050565b600060208284031215612c7357612c726121dd565b5b6000612c8184828501612c48565b91505092915050565b7f4368616e6e656c206973206e6f74207965742066696e616c6973656400000000600082015250565b6000612cc0601c836125ad565b9150612ccb82612c8a565b602082019050919050565b60006020820190508181036000830152612cef81612cb3565b9050919050565b7f4368616e6e656c2068617320616c7265616479206265656e20636c6f7365642c60008201527f2075736520776974686472617720696e73746561640000000000000000000000602082015250565b6000612d526035836125ad565b9150612d5d82612cf6565b604082019050919050565b60006020820190508181036000830152612d8181612d45565b9050919050565b7f5468652073756d206f66207468652062616c616e63657320646f6573206e6f7460008201527f206d61746368207468652073756d206f66207468652062616c616e636573206960208201527f6e2074686520636f6e74726f6c20737472756374000000000000000000000000604082015250565b6000612e0a6054836125ad565b9150612e1582612d88565b606082019050919050565b60006020820190508181036000830152612e3981612dfd565b9050919050565b60008135612e4d816121e2565b80915050919050565b60008160001b9050919050565b60007fffffffffffffffffffffffffffffffffffffffffffffffffffffffffffffffff612e8f84612e56565b9350801983169250808416831791505092915050565b6000819050919050565b6000612eca612ec5612ec084612169565b612ea5565b612169565b9050919050565b6000819050919050565b612ee482612eaf565b612ef7612ef082612ed1565b8354612e63565b8255505050565b612f0781612378565b8114612f1257600080fd5b50565b60008135612f2281612efe565b80915050919050565b6000612f46612f41612f3c84612378565b612ea5565b612378565b9050919050565b6000819050919050565b612f6082612f2b565b612f73612f6c82612f4d565b8354612e63565b8255505050565b60008135612f8781612b83565b80915050919050565b600060ff612f9d84612e56565b9350801983169250808416831791505092915050565b6000612fbe8261219d565b9050919050565b6000819050919050565b612fd882612fb3565b612feb612fe482612fc5565b8354612f90565b8255505050565b60008101600083018061300481612e40565b90506130108184612edb565b50505060018101602083018061302581612e40565b90506130318184612edb565b50505060028101604083018061304681612e40565b90506130528184612edb565b50505060038101606083018061306781612f15565b90506130738184612f57565b50505060048101608083018061308881612f7a565b90506130948184612fcf565b5050505050565b6130a58282612ff2565b5050565b7f4e487b7100000000000000000000000000000000000000000000000000000000600052603260045260246000fd5b60006130e382612169565b91506130ee83612169565b925082820390508181111561310657613105612ada565b5b92915050565b7f4e487b7100000000000000000000000000000000000000000000000000000000600052603160045260246000fd5b600061314682612169565b91507fffffffffffffffffffffffffffffffffffffffffffffffffffffffffffffffff820361317857613177612ada565b5b600182019050919050565b7f53656e6465722068617320616c72656164792066756e6465642074686973206360008201527f68616e6e656c0000000000000000000000000000000000000000000000000000602082015250565b60006131df6026836125ad565b91506131ea82613183565b604082019050919050565b6000602082019050818103600083015261320e816131d2565b9050919050565b7f4368616e6e656c2069732066696e616c697a6564000000000000000000000000600082015250565b600061324b6014836125ad565b915061325682613215565b602082019050919050565b6000602082019050818103600083015261327a8161323e565b9050919050565b7f43616e6e6f742066756e642061206368616e6e656c2077697468203020457468600082015250565b60006132b76020836125ad565b91506132c282613281565b602082019050919050565b600060208201905081810360008301526132e6816132aa565b9050919050565b600060408201905061330260008301856121a9565b61330f6020830184612173565b9392505050565b7f4368616e6e656c20616c72656164792065786973747300000000000000000000600082015250565b600061334c6016836125ad565b915061335782613316565b602082019050919050565b6000602082019050818103600083015261337b8161333f565b9050919050565b600080fd5b6000601f19601f8301169050919050565b7f4e487b7100000000000000000000000000000000000000000000000000000000600052604160045260246000fd5b6133d082613387565b810181811067ffffffffffffffff821117156133ef576133ee613398565b5b80604052505050565b60006134026121d3565b905061340e82826133c7565b919050565b61341c8161225b565b811461342757600080fd5b50565b60008135905061343981613413565b92915050565b60006020828403121561345557613454613382565b5b61345f60206133f8565b9050600061346f8482850161342a565b60008301525092915050565b600060208284031215613491576134906121dd565b5b600061349f8482850161343f565b91505092915050565b7f5061727469636970616e747320617265207468652073616d6500000000000000600082015250565b60006134de6019836125ad565b91506134e9826134a8565b602082019050919050565b6000602082019050818103600083015261350d816134d1565b9050919050565b7f56657273696f6e206e756d626572206973206e6f742030000000000000000000600082015250565b600061354a6017836125ad565b915061355582613514565b602082019050919050565b600060208201905081810360008301526135798161353d565b9050919050565b60008135905061358f81612efe565b92915050565b600060a082840312156135ab576135aa613382565b5b6135b560a06133f8565b905060006135c5848285016121f9565b60008301525060206135d9848285016121f9565b60208301525060406135ed848285016121f9565b604083015250606061360184828501613580565b606083015250608061361584828501612c48565b60808301525092915050565b600060a08284031215613637576136366121dd565b5b600061364584828501613595565b91505092915050565b60006040828403121561366457613663613382565b5b61366e60406133f8565b9050600061367e8482850161343f565b60008301525060206136928482850161343f565b60208301525092915050565b6000604082840312156136b4576136b36121dd565b5b60006136c28482850161364e565b91505092915050565b60006136d682612378565b91507f7fffffffffffffffffffffffffffffffffffffffffffffffffffffffffffffff820361370857613707612ada565b5b600182019050919050565b600061371e82612169565b915061372983612169565b925082820261373781612169565b9150828204841483151761374e5761374d612ada565b5b5092915050565b7f4e487b7100000000000000000000000000000000000000000000000000000000600052601260045260246000fd5b600061378f82612169565b915061379a83612169565b9250826137aa576137a9613755565b5b828204905092915050565b600081519050919050565b60005b838110156137de5780820151818401526020810190506137c3565b60008484015250505050565b60006137f5826137b5565b6137ff81856125ad565b935061380f8185602086016137c0565b61381881613387565b840191505092915050565b6000604082019050818103600083015261383d81856137ea565b905061384c6020830184612173565b9392505050565b6000602082019050818103600083015261386d81846137ea565b905092915050565b7f4e487b7100000000000000000000000000000000000000000000000000000000600052605160045260246000fdfe5061727469636970616e74204120686173207375636365737366756c6c792066756e64656420746865206368616e6e656c20776974682053756d206f662062616c616e636573206e6163682064656d205570646174653a205061727469636970616e74204220686173207375636365737366756c6c792066756e64656420746865206368616e6e656c207769746820a2646970667358221220f55a60d3a8316c1f006ef67ca5a54a156904f31ea354848edcc87705b96d0a8964736f6c63430008130033",
  "linkReferences": {},
  "deployedLinkReferences": {}
}