{
  "_format": "hh-sol-artifact-1",
  "contractName": "ChannelLogic",
  "sourceName": "contracts/ChannelLogic.sol",
  "abi": [
    {
      "anonymous": false,
      "inputs": [],
      "name": "ChannelClose",
      "type": "event"
    },
    {
      "anonymous": false,
      "inputs": [
        {
          "indexed": false,
          "internalType": "bool",
          "name": "senderIsA",
          "type": "bool"
        },
        {
          "indexed": false,
          "internalType": "uint256",
          "name": "amount",
          "type": "uint256"
        }
      ],
      "name": "ChannelFund",
      "type": "event"
    },
    {
      "anonymous": false,
      "inputs": [],
      "name": "ChannelOpen",
      "type": "event"
    },
    {
      "anonymous": false,
      "inputs": [],
      "name": "ChannelWithdraw",
      "type": "event"
    },
    {
      "anonymous": false,
      "inputs": [
        {
          "indexed": false,
          "internalType": "uint256",
          "name": "newBalance",
          "type": "uint256"
        }
      ],
      "name": "ContractBalanceUpdated",
      "type": "event"
    },
    {
      "anonymous": false,
      "inputs": [],
      "name": "loanHappend",
      "type": "event"
    },
    {
      "inputs": [],
      "name": "channel_count",
      "outputs": [
        {
          "internalType": "int256",
          "name": "",
          "type": "int256"
        }
      ],
      "stateMutability": "view",
      "type": "function"
    },
    {
      "inputs": [
        {
          "internalType": "int256",
          "name": "",
          "type": "int256"
        }
      ],
      "name": "channels",
      "outputs": [
        {
          "components": [
            {
              "internalType": "int256",
              "name": "channel_id",
              "type": "int256"
            },
            {
              "internalType": "uint256",
              "name": "balance_A",
              "type": "uint256"
            },
            {
              "internalType": "uint256",
              "name": "balance_B",
              "type": "uint256"
            },
            {
              "internalType": "int256",
              "name": "version_num",
              "type": "int256"
            },
            {
              "internalType": "bool",
              "name": "finalized",
              "type": "bool"
            }
          ],
          "internalType": "struct Channel_State",
          "name": "state",
          "type": "tuple"
        },
        {
          "components": [
            {
              "components": [
                {
                  "internalType": "address payable",
                  "name": "addresse",
                  "type": "address"
                }
              ],
              "internalType": "struct Participant",
              "name": "participant_a",
              "type": "tuple"
            },
            {
              "components": [
                {
                  "internalType": "address payable",
                  "name": "addresse",
                  "type": "address"
                }
              ],
              "internalType": "struct Participant",
              "name": "participant_b",
              "type": "tuple"
            }
          ],
          "internalType": "struct Channel_Params",
          "name": "params",
          "type": "tuple"
        },
        {
          "components": [
            {
              "internalType": "bool",
              "name": "funded_a",
              "type": "bool"
            },
            {
              "internalType": "bool",
              "name": "funded_b",
              "type": "bool"
            },
            {
              "internalType": "bool",
              "name": "withdrawed_a",
              "type": "bool"
            },
            {
              "internalType": "bool",
              "name": "withdrawed_b",
              "type": "bool"
            },
            {
              "internalType": "uint256",
              "name": "sum_of_balances",
              "type": "uint256"
            },
            {
              "internalType": "bool",
              "name": "closed",
              "type": "bool"
            }
          ],
          "internalType": "struct Channel_Control",
          "name": "control",
          "type": "tuple"
        }
      ],
      "stateMutability": "view",
      "type": "function"
    },
    {
      "inputs": [
        {
          "components": [
            {
              "internalType": "int256",
              "name": "channel_id",
              "type": "int256"
            },
            {
              "internalType": "uint256",
              "name": "balance_A",
              "type": "uint256"
            },
            {
              "internalType": "uint256",
              "name": "balance_B",
              "type": "uint256"
            },
            {
              "internalType": "int256",
              "name": "version_num",
              "type": "int256"
            },
            {
              "internalType": "bool",
              "name": "finalized",
              "type": "bool"
            }
          ],
          "internalType": "struct Channel_State",
          "name": "finalState",
          "type": "tuple"
        }
      ],
      "name": "close",
      "outputs": [],
      "stateMutability": "nonpayable",
      "type": "function"
    },
    {
      "inputs": [
        {
          "internalType": "uint256",
          "name": "amount",
          "type": "uint256"
        }
      ],
      "name": "flashFee",
      "outputs": [
        {
          "internalType": "uint256",
          "name": "",
          "type": "uint256"
        }
      ],
      "stateMutability": "view",
      "type": "function"
    },
    {
      "inputs": [
        {
          "internalType": "contract FlashBorrower",
          "name": "receiver",
          "type": "address"
        },
        {
          "internalType": "uint256",
          "name": "amount",
          "type": "uint256"
        }
      ],
      "name": "flashLoan",
      "outputs": [
        {
          "internalType": "bool",
          "name": "",
          "type": "bool"
        }
      ],
      "stateMutability": "nonpayable",
      "type": "function"
    },
    {
      "inputs": [
        {
          "internalType": "int256",
          "name": "channel_id",
          "type": "int256"
        }
      ],
      "name": "fund",
      "outputs": [],
      "stateMutability": "payable",
      "type": "function"
    },
    {
      "inputs": [],
      "name": "maxFlashLoan",
      "outputs": [
        {
          "internalType": "uint256",
          "name": "",
          "type": "uint256"
        }
      ],
      "stateMutability": "view",
      "type": "function"
    },
    {
      "inputs": [
        {
          "components": [
            {
              "components": [
                {
                  "internalType": "address payable",
                  "name": "addresse",
                  "type": "address"
                }
              ],
              "internalType": "struct Participant",
              "name": "participant_a",
              "type": "tuple"
            },
            {
              "components": [
                {
                  "internalType": "address payable",
                  "name": "addresse",
                  "type": "address"
                }
              ],
              "internalType": "struct Participant",
              "name": "participant_b",
              "type": "tuple"
            }
          ],
          "internalType": "struct Channel_Params",
          "name": "params",
          "type": "tuple"
        },
        {
          "components": [
            {
              "internalType": "int256",
              "name": "channel_id",
              "type": "int256"
            },
            {
              "internalType": "uint256",
              "name": "balance_A",
              "type": "uint256"
            },
            {
              "internalType": "uint256",
              "name": "balance_B",
              "type": "uint256"
            },
            {
              "internalType": "int256",
              "name": "version_num",
              "type": "int256"
            },
            {
              "internalType": "bool",
              "name": "finalized",
              "type": "bool"
            }
          ],
          "internalType": "struct Channel_State",
          "name": "state",
          "type": "tuple"
        }
      ],
      "name": "open",
      "outputs": [],
      "stateMutability": "nonpayable",
      "type": "function"
    },
    {
      "inputs": [
        {
          "internalType": "uint256",
          "name": "",
          "type": "uint256"
        }
      ],
      "name": "participants",
      "outputs": [
        {
          "internalType": "address payable",
          "name": "addresse",
          "type": "address"
        }
      ],
      "stateMutability": "view",
      "type": "function"
    },
    {
      "inputs": [],
      "name": "payBack",
      "outputs": [
        {
          "internalType": "bool",
          "name": "",
          "type": "bool"
        }
      ],
      "stateMutability": "payable",
      "type": "function"
    },
    {
      "inputs": [
        {
          "internalType": "int256",
          "name": "channel_id",
          "type": "int256"
        }
      ],
      "name": "withdraw",
      "outputs": [],
      "stateMutability": "nonpayable",
      "type": "function"
    },
    {
      "stateMutability": "payable",
      "type": "receive"
    }
  ],
  "bytecode": "0x60806040526103e86000556000600255600060035534801561002057600080fd5b50613687806100306000396000f3fe6080604052600436106100a05760003560e01c80637e62eab8116100645780637e62eab8146101d15780639d9e465c146101fa578063a7af467a14610237578063acda226614610274578063c8d537211461029d578063e7fc8953146102c8576100de565b8063019f64cc146100e357806301b31363146101015780631e2659781461012a578063242c127c1461016957806335c1d34914610194576100de565b366100de577f0f3e6fb3ceb369618319f4cdcb672be913a6ce581123b8488c5ee84a3f3b48f3346040516100d491906121d7565b60405180910390a1005b600080fd5b6100eb6102e4565b6040516100f8919061220d565b60405180910390f35b34801561010d57600080fd5b506101286004803603810190610123919061227a565b61034c565b005b34801561013657600080fd5b50610151600480360381019061014c91906122f0565b6107bf565b604051610160939291906124b9565b60405180910390f35b34801561017557600080fd5b5061017e6109af565b60405161018b91906121d7565b60405180910390f35b3480156101a057600080fd5b506101bb60048036038101906101b6919061251d565b6109be565b6040516101c89190612559565b60405180910390f35b3480156101dd57600080fd5b506101f860048036038101906101f391906122f0565b610a08565b005b34801561020657600080fd5b50610221600480360381019061021c91906125c4565b610efb565b60405161022e919061220d565b60405180910390f35b34801561024357600080fd5b5061025e6004803603810190610259919061251d565b611137565b60405161026b91906121d7565b60405180910390f35b34801561028057600080fd5b5061029b60048036038101906102969190612604565b611149565b005b3480156102a957600080fd5b506102b2611847565b6040516102bf9190612640565b60405180910390f35b6102e260048036038101906102dd91906122f0565b61184d565b005b6000600654341461032a576040517f08c379a0000000000000000000000000000000000000000000000000000000008152600401610321906126de565b60405180910390fd5b6001600760006101000a81548160ff0219169083151502179055506001905090565b8060000135600460008360000135815260200190815260200160002060000160000154036103af576040517f08c379a00000000000000000000000000000000000000000000000000000000081526004016103a69061274a565b60405180910390fd5b600015156103e3836000018036038101906103ca9190612863565b846020018036038101906103de9190612863565b611ceb565b151514610425576040517f08c379a000000000000000000000000000000000000000000000000000000000815260040161041c906128dc565b60405180910390fd5b600081606001351461046c576040517f08c379a000000000000000000000000000000000000000000000000000000000815260040161046390612948565b60405180910390fd5b600015158160800160208101906104839190612994565b1515146104c5576040517f08c379a00000000000000000000000000000000000000000000000000000000081526004016104bc90612a0d565b60405180910390fd5b6104cd6120c1565b818036038101906104de9190612ab9565b8160000181905250828036038101906104f79190612b36565b81602001819052506000816040015160000190151590811515815250506000816040015160200190151590811515815250506000816040015160400190151590811515815250506000816040015160600190151590811515815250506000816040015160a00190151590811515815250506000816040015160800181815250506002600081548092919061058a90612b92565b91905055508060046000846000013581526020019081526020016000206000820151816000016000820151816000015560208201518160010155604082015181600201556060820151816003015560808201518160040160006101000a81548160ff021916908315150217905550505060208201518160050160008201518160000160008201518160000160006101000a81548173ffffffffffffffffffffffffffffffffffffffff021916908373ffffffffffffffffffffffffffffffffffffffff160217905550505060208201518160010160008201518160000160006101000a81548173ffffffffffffffffffffffffffffffffffffffff021916908373ffffffffffffffffffffffffffffffffffffffff1602179055505050505060408201518160070160008201518160000160006101000a81548160ff02191690831515021790555060208201518160000160016101000a81548160ff02191690831515021790555060408201518160000160026101000a81548160ff02191690831515021790555060608201518160000160036101000a81548160ff0219169083151502179055506080820151816001015560a08201518160020160006101000a81548160ff02191690831515021790555050509050506005826000013590806001815401808255809150506001900390600052602060002001600090919091909150557f6b3cb66dd3b05a5d6d883902e05aaf7c9b58fdccac36fd8036693fd6bf5c740960405160405180910390a1505050565b6004602052806000526040600020600091509050806000016040518060a0016040529081600082015481526020016001820154815260200160028201548152602001600382015481526020016004820160009054906101000a900460ff1615151515815250509080600501604051806040016040529081600082016040518060200160405290816000820160009054906101000a900473ffffffffffffffffffffffffffffffffffffffff1673ffffffffffffffffffffffffffffffffffffffff1673ffffffffffffffffffffffffffffffffffffffff16815250508152602001600182016040518060200160405290816000820160009054906101000a900473ffffffffffffffffffffffffffffffffffffffff1673ffffffffffffffffffffffffffffffffffffffff1673ffffffffffffffffffffffffffffffffffffffff16815250508152505090806007016040518060c00160405290816000820160009054906101000a900460ff161515151581526020016000820160019054906101000a900460ff161515151581526020016000820160029054906101000a900460ff161515151581526020016000820160039054906101000a900460ff16151515158152602001600182015481526020016002820160009054906101000a900460ff161515151581525050905083565b60006109b9611d2c565b905090565b600181815481106109ce57600080fd5b906000526020600020016000915090508060000160009054906101000a900473ffffffffffffffffffffffffffffffffffffffff16905081565b600060046000838152602001908152602001600020905081816000016000015414610a68576040517f08c379a0000000000000000000000000000000000000000000000000000000008152600401610a5f90612c26565b60405180910390fd5b3373ffffffffffffffffffffffffffffffffffffffff168160050160000160000160009054906101000a900473ffffffffffffffffffffffffffffffffffffffff1673ffffffffffffffffffffffffffffffffffffffff161480610b2157503373ffffffffffffffffffffffffffffffffffffffff168160050160010160000160009054906101000a900473ffffffffffffffffffffffffffffffffffffffff1673ffffffffffffffffffffffffffffffffffffffff16145b610b60576040517f08c379a0000000000000000000000000000000000000000000000000000000008152600401610b5790612cb8565b60405180910390fd5b8060070160020160009054906101000a900460ff16610bb4576040517f08c379a0000000000000000000000000000000000000000000000000000000008152600401610bab90612d4a565b60405180910390fd5b60008160050160000160000160009054906101000a900473ffffffffffffffffffffffffffffffffffffffff1673ffffffffffffffffffffffffffffffffffffffff163373ffffffffffffffffffffffffffffffffffffffff16149050600081610c25578260000160020154610c2e565b82600001600101545b905060008111610c73576040517f08c379a0000000000000000000000000000000000000000000000000000000008152600401610c6a90612ddc565b60405180910390fd5b8115610da3578260070160000160029054906101000a900460ff1615610cce576040517f08c379a0000000000000000000000000000000000000000000000000000000008152600401610cc590612e6e565b60405180910390fd5b60018360070160000160026101000a81548160ff0219169083151502179055506000803373ffffffffffffffffffffffffffffffffffffffff1683604051610d1590612ebf565b60006040518083038185875af1925050503d8060008114610d52576040519150601f19603f3d011682016040523d82523d6000602084013e610d57565b606091505b509150915081610d9c576040517f08c379a0000000000000000000000000000000000000000000000000000000008152600401610d9390612f20565b60405180910390fd5b5050610ec9565b8260070160000160039054906101000a900460ff1615610df8576040517f08c379a0000000000000000000000000000000000000000000000000000000008152600401610def90612e6e565b60405180910390fd5b60018360070160000160036101000a81548160ff0219169083151502179055506000803373ffffffffffffffffffffffffffffffffffffffff1683604051610e3f90612ebf565b60006040518083038185875af1925050503d8060008114610e7c576040519150601f19603f3d011682016040523d82523d6000602084013e610e81565b606091505b509150915081610ec6576040517f08c379a0000000000000000000000000000000000000000000000000000000008152600401610ebd90612f20565b60405180910390fd5b50505b7ff4e42c6379370115781872be13360a00ea462056c2f9f55b769625ddfd16e77260405160405180910390a150505050565b6000610f05611d2c565b821115610f47576040517f08c379a0000000000000000000000000000000000000000000000000000000008152600401610f3e90612fd8565b60405180910390fd5b60004790506000600760006101000a81548160ff0219169083151502179055506000803373ffffffffffffffffffffffffffffffffffffffff16670de0b6b3a764000086610f959190612ff8565b604051610fa190612ebf565b60006040518083038185875af1925050503d8060008114610fde576040519150601f19603f3d011682016040523d82523d6000602084013e610fe3565b606091505b5091509150670de0b6b3a7640000610ffa86611d34565b86611005919061303a565b61100f9190612ff8565b6006819055508573ffffffffffffffffffffffffffffffffffffffff16636d2b653f338761103c89611d34565b6040518463ffffffff1660e01b815260040161105a9392919061307d565b6020604051808303816000875af1158015611079573d6000803e3d6000fd5b505050506040513d601f19601f8201168201806040525081019061109d91906130c9565b50600760009054906101000a900460ff166110ed576040517f08c379a00000000000000000000000000000000000000000000000000000000081526004016110e490613142565b60405180910390fd5b6110fe6110f986611d34565b611d58565b7fd27bb4cd7540ec377599ff260c9cc3354ced40df3d7b901faf87124179f5ee0e60405160405180910390a16001935050505092915050565b600061114282611d34565b9050919050565b60006004600083600001358152602001908152602001600020604051806060016040529081600082016040518060a0016040529081600082015481526020016001820154815260200160028201548152602001600382015481526020016004820160009054906101000a900460ff161515151581525050815260200160058201604051806040016040529081600082016040518060200160405290816000820160009054906101000a900473ffffffffffffffffffffffffffffffffffffffff1673ffffffffffffffffffffffffffffffffffffffff1673ffffffffffffffffffffffffffffffffffffffff16815250508152602001600182016040518060200160405290816000820160009054906101000a900473ffffffffffffffffffffffffffffffffffffffff1673ffffffffffffffffffffffffffffffffffffffff1673ffffffffffffffffffffffffffffffffffffffff1681525050815250508152602001600782016040518060c00160405290816000820160009054906101000a900460ff161515151581526020016000820160019054906101000a900460ff161515151581526020016000820160029054906101000a900460ff161515151581526020016000820160039054906101000a900460ff16151515158152602001600182015481526020016002820160009054906101000a900460ff1615151515815250508152505090508160000135816000015160000151146113a1576040517f08c379a000000000000000000000000000000000000000000000000000000000815260040161139890612c26565b60405180910390fd5b3373ffffffffffffffffffffffffffffffffffffffff168160200151600001516000015173ffffffffffffffffffffffffffffffffffffffff16148061141e57503373ffffffffffffffffffffffffffffffffffffffff168160200151602001516000015173ffffffffffffffffffffffffffffffffffffffff16145b61145d576040517f08c379a000000000000000000000000000000000000000000000000000000000815260040161145490612cb8565b60405180910390fd5b8160800160208101906114709190612994565b6114af576040517f08c379a00000000000000000000000000000000000000000000000000000000081526004016114a6906131ae565b60405180910390fd5b806040015160a00151156114f8576040517f08c379a00000000000000000000000000000000000000000000000000000000081526004016114ef90613240565b60405180910390fd5b80604001516080015182604001358360200135611515919061303a565b14611555576040517f08c379a000000000000000000000000000000000000000000000000000000000815260040161154c906132f8565b60405180910390fd5b818036038101906115669190612ab9565b81600001819052506001816040015160a001901515908115158152505060008160200151600001516000015173ffffffffffffffffffffffffffffffffffffffff163373ffffffffffffffffffffffffffffffffffffffff161490506000816115d7578260000151604001516115e1565b8260000151602001515b90506000811115611815578115611705578260400151604001511561163b576040517f08c379a000000000000000000000000000000000000000000000000000000000815260040161163290612e6e565b60405180910390fd5b6001836040015160400190151590811515815250506000803373ffffffffffffffffffffffffffffffffffffffff168360405161167790612ebf565b60006040518083038185875af1925050503d80600081146116b4576040519150601f19603f3d011682016040523d82523d6000602084013e6116b9565b606091505b5091509150816116fe576040517f08c379a00000000000000000000000000000000000000000000000000000000081526004016116f590612f20565b60405180910390fd5b5050611814565b8260400151606001511561174e576040517f08c379a000000000000000000000000000000000000000000000000000000000815260040161174590612e6e565b60405180910390fd5b6001836040015160600190151590811515815250506000803373ffffffffffffffffffffffffffffffffffffffff168360405161178a90612ebf565b60006040518083038185875af1925050503d80600081146117c7576040519150601f19603f3d011682016040523d82523d6000602084013e6117cc565b606091505b509150915081611811576040517f08c379a000000000000000000000000000000000000000000000000000000000815260040161180890612f20565b60405180910390fd5b50505b5b7f63553cd67b42375701691fc25657e232c2f052da26ac1dedce404476404a56c060405160405180910390a150505050565b60025481565b6000600460008381526020019081526020016000209050818160000160000154146118ad576040517f08c379a00000000000000000000000000000000000000000000000000000000081526004016118a490612c26565b60405180910390fd5b3373ffffffffffffffffffffffffffffffffffffffff168160050160000160000160009054906101000a900473ffffffffffffffffffffffffffffffffffffffff1673ffffffffffffffffffffffffffffffffffffffff16148061196657503373ffffffffffffffffffffffffffffffffffffffff168160050160010160000160009054906101000a900473ffffffffffffffffffffffffffffffffffffffff1673ffffffffffffffffffffffffffffffffffffffff16145b6119a5576040517f08c379a000000000000000000000000000000000000000000000000000000000815260040161199c90612cb8565b60405180910390fd5b60008160050160000160000160009054906101000a900473ffffffffffffffffffffffffffffffffffffffff1673ffffffffffffffffffffffffffffffffffffffff163373ffffffffffffffffffffffffffffffffffffffff161490508015611a6857600015158260070160000160009054906101000a900460ff16151514611a63576040517f08c379a0000000000000000000000000000000000000000000000000000000008152600401611a5a9061338a565b60405180910390fd5b611ac4565b600015158260070160000160019054906101000a900460ff16151514611ac3576040517f08c379a0000000000000000000000000000000000000000000000000000000008152600401611aba9061338a565b60405180910390fd5b5b600015158260000160040160009054906101000a900460ff16151514611b1f576040517f08c379a0000000000000000000000000000000000000000000000000000000008152600401611b1690612a0d565b60405180910390fd5b600034905060008111611b67576040517f08c379a0000000000000000000000000000000000000000000000000000000008152600401611b5e906133f6565b60405180910390fd5b8115611c005780836000016001018190555060018360070160000160006101000a81548160ff021916908315150217905550611bc26040518060600160405280603781526020016135e4603791398460000160010154611fdf565b7f15962eab8e35ee59d6efe04904ec7a4c85d72704c15c8fb34e7a1c8fe61d04538282604051611bf3929190613416565b60405180910390a1611c8f565b80836000016002018190555060018360070160000160016101000a81548160ff021916908315150217905550611c5560405180606001604052806037815260200161361b603791398460000160020154611fdf565b7f15962eab8e35ee59d6efe04904ec7a4c85d72704c15c8fb34e7a1c8fe61d04538282604051611c86929190613416565b60405180910390a15b611ce56040518060400160405280601681526020017f5468656972206e65772062616c616e63652069733a20000000000000000000008152503373ffffffffffffffffffffffffffffffffffffffff1631611fdf565b50505050565b6000816000015173ffffffffffffffffffffffffffffffffffffffff16836000015173ffffffffffffffffffffffffffffffffffffffff1614905092915050565b600047905090565b600061271060005483611d479190612ff8565b611d51919061346e565b9050919050565b60005b600580549050811015611fdb5760006004600060058481548110611d8257611d8161349f565b5b90600052602060002001548152602001908152602001600020604051806060016040529081600082016040518060a0016040529081600082015481526020016001820154815260200160028201548152602001600382015481526020016004820160009054906101000a900460ff161515151581525050815260200160058201604051806040016040529081600082016040518060200160405290816000820160009054906101000a900473ffffffffffffffffffffffffffffffffffffffff1673ffffffffffffffffffffffffffffffffffffffff1673ffffffffffffffffffffffffffffffffffffffff16815250508152602001600182016040518060200160405290816000820160009054906101000a900473ffffffffffffffffffffffffffffffffffffffff1673ffffffffffffffffffffffffffffffffffffffff1673ffffffffffffffffffffffffffffffffffffffff1681525050815250508152602001600782016040518060c00160405290816000820160009054906101000a900460ff161515151581526020016000820160019054906101000a900460ff161515151581526020016000820160029054906101000a900460ff161515151581526020016000820160039054906101000a900460ff16151515158152602001600182015481526020016002820160009054906101000a900460ff1615151515815250508152505090508247826040015160800151611fa1919061346e565b611fab9190612ff8565b8160400151608001818151611fc0919061303a565b91508181525050508080611fd3906134ce565b915050611d5b565b5050565b6120778282604051602401611ff5929190613584565b6040516020818303038152906040527fb60e72cc000000000000000000000000000000000000000000000000000000007bffffffffffffffffffffffffffffffffffffffffffffffffffffffff19166020820180517bffffffffffffffffffffffffffffffffffffffffffffffffffffffff838183161783525050505061207b565b5050565b6120928161208a6120956120b6565b63ffffffff16565b50565b60006a636f6e736f6c652e6c6f679050600080835160208501845afa505050565b6120f4819050919050565b60405180606001604052806120d46120fe565b81526020016120e161212f565b81526020016120ee612155565b81525090565b6120fc6135b4565b565b6040518060a00160405280600081526020016000815260200160008152602001600081526020016000151581525090565b6040518060400160405280612142612195565b815260200161214f612195565b81525090565b6040518060c00160405280600015158152602001600015158152602001600015158152602001600015158152602001600081526020016000151581525090565b6040518060200160405280600073ffffffffffffffffffffffffffffffffffffffff1681525090565b6000819050919050565b6121d1816121be565b82525050565b60006020820190506121ec60008301846121c8565b92915050565b60008115159050919050565b612207816121f2565b82525050565b600060208201905061222260008301846121fe565b92915050565b6000604051905090565b600080fd5b600080fd5b60006040828403121561225257612251612237565b5b81905092915050565b600060a0828403121561227157612270612237565b5b81905092915050565b60008060e0838503121561229157612290612232565b5b600061229f8582860161223c565b92505060406122b08582860161225b565b9150509250929050565b6000819050919050565b6122cd816122ba565b81146122d857600080fd5b50565b6000813590506122ea816122c4565b92915050565b60006020828403121561230657612305612232565b5b6000612314848285016122db565b91505092915050565b612326816122ba565b82525050565b612335816121be565b82525050565b612344816121f2565b82525050565b60a082016000820151612360600085018261231d565b506020820151612373602085018261232c565b506040820151612386604085018261232c565b506060820151612399606085018261231d565b5060808201516123ac608085018261233b565b50505050565b600073ffffffffffffffffffffffffffffffffffffffff82169050919050565b60006123dd826123b2565b9050919050565b6123ed816123d2565b82525050565b60208201600082015161240960008501826123e4565b50505050565b60408201600082015161242560008501826123f3565b50602082015161243860208501826123f3565b50505050565b60c082016000820151612454600085018261233b565b506020820151612467602085018261233b565b50604082015161247a604085018261233b565b50606082015161248d606085018261233b565b5060808201516124a0608085018261232c565b5060a08201516124b360a085018261233b565b50505050565b60006101a0820190506124cf600083018661234a565b6124dc60a083018561240f565b6124e960e083018461243e565b949350505050565b6124fa816121be565b811461250557600080fd5b50565b600081359050612517816124f1565b92915050565b60006020828403121561253357612532612232565b5b600061254184828501612508565b91505092915050565b612553816123d2565b82525050565b600060208201905061256e600083018461254a565b92915050565b600061257f826123b2565b9050919050565b600061259182612574565b9050919050565b6125a181612586565b81146125ac57600080fd5b50565b6000813590506125be81612598565b92915050565b600080604083850312156125db576125da612232565b5b60006125e9858286016125af565b92505060206125fa85828601612508565b9150509250929050565b600060a0828403121561261a57612619612232565b5b60006126288482850161225b565b91505092915050565b61263a816122ba565b82525050565b60006020820190506126556000830184612631565b92915050565b600082825260208201905092915050565b7f446964206e6f742073656e642073756666696369656e742066756e647320746f60008201527f20706179206261636b2074686520666c617368206c6f616e0000000000000000602082015250565b60006126c860388361265b565b91506126d38261266c565b604082019050919050565b600060208201905081810360008301526126f7816126bb565b9050919050565b7f4368616e6e656c20616c72656164792065786973747300000000000000000000600082015250565b600061273460168361265b565b915061273f826126fe565b602082019050919050565b6000602082019050818103600083015261276381612727565b9050919050565b600080fd5b6000601f19601f8301169050919050565b7f4e487b7100000000000000000000000000000000000000000000000000000000600052604160045260246000fd5b6127b88261276f565b810181811067ffffffffffffffff821117156127d7576127d6612780565b5b80604052505050565b60006127ea612228565b90506127f682826127af565b919050565b612804816123d2565b811461280f57600080fd5b50565b600081359050612821816127fb565b92915050565b60006020828403121561283d5761283c61276a565b5b61284760206127e0565b9050600061285784828501612812565b60008301525092915050565b60006020828403121561287957612878612232565b5b600061288784828501612827565b91505092915050565b7f5061727469636970616e747320617265207468652073616d6500000000000000600082015250565b60006128c660198361265b565b91506128d182612890565b602082019050919050565b600060208201905081810360008301526128f5816128b9565b9050919050565b7f56657273696f6e206e756d626572206973206e6f742030000000000000000000600082015250565b600061293260178361265b565b915061293d826128fc565b602082019050919050565b6000602082019050818103600083015261296181612925565b9050919050565b612971816121f2565b811461297c57600080fd5b50565b60008135905061298e81612968565b92915050565b6000602082840312156129aa576129a9612232565b5b60006129b88482850161297f565b91505092915050565b7f4368616e6e656c2069732066696e616c697a6564000000000000000000000000600082015250565b60006129f760148361265b565b9150612a02826129c1565b602082019050919050565b60006020820190508181036000830152612a26816129ea565b9050919050565b600060a08284031215612a4357612a4261276a565b5b612a4d60a06127e0565b90506000612a5d848285016122db565b6000830152506020612a7184828501612508565b6020830152506040612a8584828501612508565b6040830152506060612a99848285016122db565b6060830152506080612aad8482850161297f565b60808301525092915050565b600060a08284031215612acf57612ace612232565b5b6000612add84828501612a2d565b91505092915050565b600060408284031215612afc57612afb61276a565b5b612b0660406127e0565b90506000612b1684828501612827565b6000830152506020612b2a84828501612827565b60208301525092915050565b600060408284031215612b4c57612b4b612232565b5b6000612b5a84828501612ae6565b91505092915050565b7f4e487b7100000000000000000000000000000000000000000000000000000000600052601160045260246000fd5b6000612b9d826122ba565b91507f7fffffffffffffffffffffffffffffffffffffffffffffffffffffffffffffff8203612bcf57612bce612b63565b5b600182019050919050565b7f4368616e6e656c20646f6573206e6f7420657869737400000000000000000000600082015250565b6000612c1060168361265b565b9150612c1b82612bda565b602082019050919050565b60006020820190508181036000830152612c3f81612c03565b9050919050565b7f53656e646572206973206e6f742061207061727469636970616e74206f66207460008201527f686520676976656e206368616e6e656c00000000000000000000000000000000602082015250565b6000612ca260308361265b565b9150612cad82612c46565b604082019050919050565b60006020820190508181036000830152612cd181612c95565b9050919050565b7f4368616e6e656c20686173206e6f74206265656e20636c6f736564207965742c60008201527f2075736520636c6f736520696e73746561640000000000000000000000000000602082015250565b6000612d3460328361265b565b9150612d3f82612cd8565b604082019050919050565b60006020820190508181036000830152612d6381612d27565b9050919050565b7f5468657265206973206e6f2062616c616e636520666f7220796f7520696e207460008201527f686973206368616e6e656c20746f207769746864726177000000000000000000602082015250565b6000612dc660378361265b565b9150612dd182612d6a565b604082019050919050565b60006020820190508181036000830152612df581612db9565b9050919050565b7f53656e6465722068617320616c72656164792077697468647261776e2074686560008201527f69722062616c616e636500000000000000000000000000000000000000000000602082015250565b6000612e58602a8361265b565b9150612e6382612dfc565b604082019050919050565b60006020820190508181036000830152612e8781612e4b565b9050919050565b600081905092915050565b50565b6000612ea9600083612e8e565b9150612eb482612e99565b600082019050919050565b6000612eca82612e9c565b9150819050919050565b7f5472616e73666572206661696c65640000000000000000000000000000000000600082015250565b6000612f0a600f8361265b565b9150612f1582612ed4565b602082019050919050565b60006020820190508181036000830152612f3981612efd565b9050919050565b7f416d6f756e7420657863656564732074686520666c617368206c6f616e206c6960008201527f6d69742c2074727920746f2063686f6f7365206120736d616c6c657220616d6f60208201527f756e740000000000000000000000000000000000000000000000000000000000604082015250565b6000612fc260438361265b565b9150612fcd82612f40565b606082019050919050565b60006020820190508181036000830152612ff181612fb5565b9050919050565b6000613003826121be565b915061300e836121be565b925082820261301c816121be565b9150828204841483151761303357613032612b63565b5b5092915050565b6000613045826121be565b9150613050836121be565b925082820190508082111561306857613067612b63565b5b92915050565b61307781612574565b82525050565b6000606082019050613092600083018661306e565b61309f60208301856121c8565b6130ac60408301846121c8565b949350505050565b6000815190506130c381612968565b92915050565b6000602082840312156130df576130de612232565b5b60006130ed848285016130b4565b91505092915050565b7f5061796261636b20646964206e6f742068617070656e206f72206661696c6564600082015250565b600061312c60208361265b565b9150613137826130f6565b602082019050919050565b6000602082019050818103600083015261315b8161311f565b9050919050565b7f4368616e6e656c206973206e6f74207965742066696e616c6973656400000000600082015250565b6000613198601c8361265b565b91506131a382613162565b602082019050919050565b600060208201905081810360008301526131c78161318b565b9050919050565b7f4368616e6e656c2068617320616c7265616479206265656e20636c6f7365642c60008201527f2075736520776974686472617720696e73746561640000000000000000000000602082015250565b600061322a60358361265b565b9150613235826131ce565b604082019050919050565b600060208201905081810360008301526132598161321d565b9050919050565b7f5468652073756d206f66207468652062616c616e63657320646f6573206e6f7460008201527f206d61746368207468652073756d206f66207468652062616c616e636573206960208201527f6e2074686520636f6e74726f6c20737472756374000000000000000000000000604082015250565b60006132e260548361265b565b91506132ed82613260565b606082019050919050565b60006020820190508181036000830152613311816132d5565b9050919050565b7f53656e6465722068617320616c72656164792066756e6465642074686973206360008201527f68616e6e656c0000000000000000000000000000000000000000000000000000602082015250565b600061337460268361265b565b915061337f82613318565b604082019050919050565b600060208201905081810360008301526133a381613367565b9050919050565b7f43616e6e6f742066756e642061206368616e6e656c2077697468203020457468600082015250565b60006133e060208361265b565b91506133eb826133aa565b602082019050919050565b6000602082019050818103600083015261340f816133d3565b9050919050565b600060408201905061342b60008301856121fe565b61343860208301846121c8565b9392505050565b7f4e487b7100000000000000000000000000000000000000000000000000000000600052601260045260246000fd5b6000613479826121be565b9150613484836121be565b9250826134945761349361343f565b5b828204905092915050565b7f4e487b7100000000000000000000000000000000000000000000000000000000600052603260045260246000fd5b60006134d9826121be565b91507fffffffffffffffffffffffffffffffffffffffffffffffffffffffffffffffff820361350b5761350a612b63565b5b600182019050919050565b600081519050919050565b60005b8381101561353f578082015181840152602081019050613524565b60008484015250505050565b600061355682613516565b613560818561265b565b9350613570818560208601613521565b6135798161276f565b840191505092915050565b6000604082019050818103600083015261359e818561354b565b90506135ad60208301846121c8565b9392505050565b7f4e487b7100000000000000000000000000000000000000000000000000000000600052605160045260246000fdfe5061727469636970616e74204120686173207375636365737366756c6c792066756e64656420746865206368616e6e656c2077697468205061727469636970616e74204220686173207375636365737366756c6c792066756e64656420746865206368616e6e656c207769746820a2646970667358221220513a3f05087823de80c22de7e41eecfa11f66649d9193ec08883bdca6b3fbd9964736f6c63430008130033",
  "linkReferences": {},
  "deployedLinkReferences": {}
}