{
  "_format": "hh-sol-artifact-1",
  "contractName": "ChannelLogic",
  "sourceName": "contracts/ChannelLogic.sol",
  "abi": [
    {
      "anonymous": false,
      "inputs": [],
      "name": "ChannelOpen",
      "type": "event"
    },
    {
      "anonymous": false,
      "inputs": [
        {
          "indexed": true,
          "internalType": "uint256",
          "name": "transactionId",
          "type": "uint256"
        },
        {
          "indexed": false,
          "internalType": "address",
          "name": "sender",
          "type": "address"
        },
        {
          "indexed": false,
          "internalType": "address",
          "name": "receiver",
          "type": "address"
        },
        {
          "indexed": false,
          "internalType": "uint256",
          "name": "amount",
          "type": "uint256"
        }
      ],
      "name": "NewTransaction",
      "type": "event"
    },
    {
      "anonymous": false,
      "inputs": [
        {
          "indexed": false,
          "internalType": "int256",
          "name": "channel_id",
          "type": "int256"
        },
        {
          "indexed": false,
          "internalType": "address",
          "name": "party",
          "type": "address"
        }
      ],
      "name": "PartyFinalized",
      "type": "event"
    },
    {
      "inputs": [],
      "name": "Contract_Balance",
      "outputs": [
        {
          "internalType": "uint256",
          "name": "",
          "type": "uint256"
        }
      ],
      "stateMutability": "view",
      "type": "function"
    },
    {
      "inputs": [
        {
          "internalType": "int256",
          "name": "",
          "type": "int256"
        }
      ],
      "name": "balances",
      "outputs": [
        {
          "internalType": "uint256",
          "name": "",
          "type": "uint256"
        }
      ],
      "stateMutability": "view",
      "type": "function"
    },
    {
      "inputs": [],
      "name": "channel_count",
      "outputs": [
        {
          "internalType": "int256",
          "name": "",
          "type": "int256"
        }
      ],
      "stateMutability": "view",
      "type": "function"
    },
    {
      "inputs": [
        {
          "internalType": "int256",
          "name": "",
          "type": "int256"
        }
      ],
      "name": "channels",
      "outputs": [
        {
          "components": [
            {
              "internalType": "int256",
              "name": "channel_id",
              "type": "int256"
            },
            {
              "internalType": "uint256",
              "name": "balance_A",
              "type": "uint256"
            },
            {
              "internalType": "uint256",
              "name": "balance_B",
              "type": "uint256"
            },
            {
              "internalType": "int256",
              "name": "version_num",
              "type": "int256"
            },
            {
              "internalType": "bool",
              "name": "finalized",
              "type": "bool"
            },
            {
              "internalType": "bool",
              "name": "closed",
              "type": "bool"
            }
          ],
          "internalType": "struct Channel_State",
          "name": "state",
          "type": "tuple"
        },
        {
          "components": [
            {
              "components": [
                {
                  "internalType": "address payable",
                  "name": "addresse",
                  "type": "address"
                }
              ],
              "internalType": "struct Participant",
              "name": "participant_a",
              "type": "tuple"
            },
            {
              "components": [
                {
                  "internalType": "address payable",
                  "name": "addresse",
                  "type": "address"
                }
              ],
              "internalType": "struct Participant",
              "name": "participant_b",
              "type": "tuple"
            }
          ],
          "internalType": "struct Channel_Params",
          "name": "params",
          "type": "tuple"
        },
        {
          "components": [
            {
              "internalType": "bool",
              "name": "funded_a",
              "type": "bool"
            },
            {
              "internalType": "bool",
              "name": "funded_b",
              "type": "bool"
            },
            {
              "internalType": "bool",
              "name": "withdrawed_a",
              "type": "bool"
            },
            {
              "internalType": "bool",
              "name": "withdrawed_b",
              "type": "bool"
            }
          ],
          "internalType": "struct Channel_Control",
          "name": "control",
          "type": "tuple"
        }
      ],
      "stateMutability": "view",
      "type": "function"
    },
    {
      "inputs": [
        {
          "internalType": "int256",
          "name": "channel_id",
          "type": "int256"
        }
      ],
      "name": "close",
      "outputs": [],
      "stateMutability": "nonpayable",
      "type": "function"
    },
    {
      "inputs": [
        {
          "components": [
            {
              "internalType": "int256",
              "name": "channel_id",
              "type": "int256"
            },
            {
              "internalType": "uint256",
              "name": "balance_A",
              "type": "uint256"
            },
            {
              "internalType": "uint256",
              "name": "balance_B",
              "type": "uint256"
            },
            {
              "internalType": "int256",
              "name": "version_num",
              "type": "int256"
            },
            {
              "internalType": "bool",
              "name": "finalized",
              "type": "bool"
            },
            {
              "internalType": "bool",
              "name": "closed",
              "type": "bool"
            }
          ],
          "internalType": "struct Channel_State",
          "name": "newState",
          "type": "tuple"
        }
      ],
      "name": "finalize",
      "outputs": [],
      "stateMutability": "nonpayable",
      "type": "function"
    },
    {
      "inputs": [
        {
          "internalType": "contract FlashBorrower",
          "name": "receiver",
          "type": "address"
        },
        {
          "internalType": "uint256",
          "name": "amount",
          "type": "uint256"
        },
        {
          "internalType": "bytes",
          "name": "data",
          "type": "bytes"
        }
      ],
      "name": "flashLoan",
      "outputs": [
        {
          "internalType": "bool",
          "name": "",
          "type": "bool"
        }
      ],
      "stateMutability": "nonpayable",
      "type": "function"
    },
    {
      "inputs": [
        {
          "internalType": "int256",
          "name": "channel_id",
          "type": "int256"
        }
      ],
      "name": "fund",
      "outputs": [],
      "stateMutability": "payable",
      "type": "function"
    },
    {
      "inputs": [
        {
          "components": [
            {
              "components": [
                {
                  "internalType": "address payable",
                  "name": "addresse",
                  "type": "address"
                }
              ],
              "internalType": "struct Participant",
              "name": "participant_a",
              "type": "tuple"
            },
            {
              "components": [
                {
                  "internalType": "address payable",
                  "name": "addresse",
                  "type": "address"
                }
              ],
              "internalType": "struct Participant",
              "name": "participant_b",
              "type": "tuple"
            }
          ],
          "internalType": "struct Channel_Params",
          "name": "params",
          "type": "tuple"
        },
        {
          "components": [
            {
              "internalType": "int256",
              "name": "channel_id",
              "type": "int256"
            },
            {
              "internalType": "uint256",
              "name": "balance_A",
              "type": "uint256"
            },
            {
              "internalType": "uint256",
              "name": "balance_B",
              "type": "uint256"
            },
            {
              "internalType": "int256",
              "name": "version_num",
              "type": "int256"
            },
            {
              "internalType": "bool",
              "name": "finalized",
              "type": "bool"
            },
            {
              "internalType": "bool",
              "name": "closed",
              "type": "bool"
            }
          ],
          "internalType": "struct Channel_State",
          "name": "state",
          "type": "tuple"
        }
      ],
      "name": "open",
      "outputs": [],
      "stateMutability": "nonpayable",
      "type": "function"
    },
    {
      "inputs": [
        {
          "internalType": "uint256",
          "name": "",
          "type": "uint256"
        }
      ],
      "name": "participants",
      "outputs": [
        {
          "internalType": "address payable",
          "name": "addresse",
          "type": "address"
        }
      ],
      "stateMutability": "view",
      "type": "function"
    },
    {
      "inputs": [
        {
          "internalType": "int256",
          "name": "channel_id",
          "type": "int256"
        }
      ],
      "name": "withdraw",
      "outputs": [],
      "stateMutability": "nonpayable",
      "type": "function"
    },
    {
      "stateMutability": "payable",
      "type": "receive"
    }
  ],
  "bytecode": "0x60806040526001600055476001556000600355600060045534801561002357600080fd5b50612df7806100336000396000f3fe6080604052600436106100a05760003560e01c8063b0251f7511610064578063b0251f75146101bd578063c08c2120146101e6578063c8d537211461020f578063e0232b421461023a578063e7fc895314610277578063f6d5c8a014610293576100bf565b80631e265978146100c457806335c1d3491461010357806372142c3b146101405780637e62eab814610169578063a9e3d44414610192576100bf565b366100bf5734600160008282546100b79190611985565b925050819055005b600080fd5b3480156100d057600080fd5b506100eb60048036038101906100e69190611a03565b6102d0565b6040516100fa93929190611bc5565b60405180910390f35b34801561010f57600080fd5b5061012a60048036038101906101259190611c2a565b6104b6565b6040516101379190611c66565b60405180910390f35b34801561014c57600080fd5b5061016760048036038101906101629190611a03565b610500565b005b34801561017557600080fd5b50610190600480360381019061018b9190611a03565b610933565b005b34801561019e57600080fd5b506101a7610d2a565b6040516101b49190611c90565b60405180910390f35b3480156101c957600080fd5b506101e460048036038101906101df9190611ccf565b610d30565b005b3480156101f257600080fd5b5061020d60048036038101906102089190611d1b565b610eed565b005b34801561021b57600080fd5b506102246112db565b6040516102319190611d6b565b60405180910390f35b34801561024657600080fd5b50610261600480360381019061025c9190611e3b565b6112e1565b60405161026e9190611ebe565b60405180910390f35b610291600480360381019061028c9190611a03565b6112ef565b005b34801561029f57600080fd5b506102ba60048036038101906102b59190611a03565b61171b565b6040516102c79190611c90565b60405180910390f35b6005602052806000526040600020600091509050806000016040518060c0016040529081600082015481526020016001820154815260200160028201548152602001600382015481526020016004820160009054906101000a900460ff161515151581526020016004820160019054906101000a900460ff1615151515815250509080600501604051806040016040529081600082016040518060200160405290816000820160009054906101000a900473ffffffffffffffffffffffffffffffffffffffff1673ffffffffffffffffffffffffffffffffffffffff1673ffffffffffffffffffffffffffffffffffffffff16815250508152602001600182016040518060200160405290816000820160009054906101000a900473ffffffffffffffffffffffffffffffffffffffff1673ffffffffffffffffffffffffffffffffffffffff1673ffffffffffffffffffffffffffffffffffffffff16815250508152505090806007016040518060800160405290816000820160009054906101000a900460ff161515151581526020016000820160019054906101000a900460ff161515151581526020016000820160029054906101000a900460ff161515151581526020016000820160039054906101000a900460ff161515151581525050905083565b600281815481106104c657600080fd5b906000526020600020016000915090508060000160009054906101000a900473ffffffffffffffffffffffffffffffffffffffff16905081565b600060056000838152602001908152602001600020905081816000016000015414610560576040517f08c379a000000000000000000000000000000000000000000000000000000000815260040161055790611f36565b60405180910390fd5b3373ffffffffffffffffffffffffffffffffffffffff168160050160000160000160009054906101000a900473ffffffffffffffffffffffffffffffffffffffff1673ffffffffffffffffffffffffffffffffffffffff16148061061957503373ffffffffffffffffffffffffffffffffffffffff168160050160010160000160009054906101000a900473ffffffffffffffffffffffffffffffffffffffff1673ffffffffffffffffffffffffffffffffffffffff16145b610658576040517f08c379a000000000000000000000000000000000000000000000000000000000815260040161064f90611fc8565b60405180910390fd5b8060000160040160009054906101000a900460ff166106ac576040517f08c379a00000000000000000000000000000000000000000000000000000000081526004016106a390612034565b60405180910390fd5b8060000160040160019054906101000a900460ff1615610701576040517f08c379a00000000000000000000000000000000000000000000000000000000081526004016106f8906120c6565b60405180910390fd5b60008160050160000160000160009054906101000a900473ffffffffffffffffffffffffffffffffffffffff1673ffffffffffffffffffffffffffffffffffffffff163373ffffffffffffffffffffffffffffffffffffffff1614905060008161077257826000016002015461077b565b82600001600101545b905060018360000160040160016101000a81548160ff021916908315150217905550600081111561092d57811561086e57600083600001600101819055506000803373ffffffffffffffffffffffffffffffffffffffff16836040516107e090612117565b60006040518083038185875af1925050503d806000811461081d576040519150601f19603f3d011682016040523d82523d6000602084013e610822565b606091505b509150915081610867576040517f08c379a000000000000000000000000000000000000000000000000000000000815260040161085e90612178565b60405180910390fd5b505061092c565b600083600001600201819055506000803373ffffffffffffffffffffffffffffffffffffffff16836040516108a290612117565b60006040518083038185875af1925050503d80600081146108df576040519150601f19603f3d011682016040523d82523d6000602084013e6108e4565b606091505b509150915081610929576040517f08c379a000000000000000000000000000000000000000000000000000000000815260040161092090612178565b60405180910390fd5b50505b5b50505050565b600060056000838152602001908152602001600020905081816000016000015414610993576040517f08c379a000000000000000000000000000000000000000000000000000000000815260040161098a90611f36565b60405180910390fd5b3373ffffffffffffffffffffffffffffffffffffffff168160050160000160000160009054906101000a900473ffffffffffffffffffffffffffffffffffffffff1673ffffffffffffffffffffffffffffffffffffffff161480610a4c57503373ffffffffffffffffffffffffffffffffffffffff168160050160010160000160009054906101000a900473ffffffffffffffffffffffffffffffffffffffff1673ffffffffffffffffffffffffffffffffffffffff16145b610a8b576040517f08c379a0000000000000000000000000000000000000000000000000000000008152600401610a8290611fc8565b60405180910390fd5b8060000160040160019054906101000a900460ff16610adf576040517f08c379a0000000000000000000000000000000000000000000000000000000008152600401610ad69061220a565b60405180910390fd5b60008160050160000160000160009054906101000a900473ffffffffffffffffffffffffffffffffffffffff1673ffffffffffffffffffffffffffffffffffffffff163373ffffffffffffffffffffffffffffffffffffffff16149050600081610b50578260000160020154610b59565b82600001600101545b905060008111610b9e576040517f08c379a0000000000000000000000000000000000000000000000000000000008152600401610b959061229c565b60405180910390fd5b8115610c6657600083600001600101819055506000803373ffffffffffffffffffffffffffffffffffffffff1683604051610bd890612117565b60006040518083038185875af1925050503d8060008114610c15576040519150601f19603f3d011682016040523d82523d6000602084013e610c1a565b606091505b509150915081610c5f576040517f08c379a0000000000000000000000000000000000000000000000000000000008152600401610c5690612178565b60405180910390fd5b5050610d24565b600083600001600201819055506000803373ffffffffffffffffffffffffffffffffffffffff1683604051610c9a90612117565b60006040518083038185875af1925050503d8060008114610cd7576040519150601f19603f3d011682016040523d82523d6000602084013e610cdc565b606091505b509150915081610d21576040517f08c379a0000000000000000000000000000000000000000000000000000000008152600401610d1890612178565b60405180910390fd5b50505b50505050565b60015481565b806000013560056000836000013581526020019081526020016000206000016000015414610d93576040517f08c379a0000000000000000000000000000000000000000000000000000000008152600401610d8a90611f36565b60405180910390fd5b60001515600560008360000135815260200190815260200160002060000160040160009054906101000a900460ff16151514610e04576040517f08c379a0000000000000000000000000000000000000000000000000000000008152600401610dfb90612308565b60405180910390fd5b60011515816080016020810190610e1b9190612354565b151514610e5d576040517f08c379a0000000000000000000000000000000000000000000000000000000008152600401610e54906123cd565b60405180910390fd5b600560008260000135815260200190815260200160002060000160030154816060013513610ec0576040517f08c379a0000000000000000000000000000000000000000000000000000000008152600401610eb790612439565b60405180910390fd5b8060056000836000013581526020019081526020016000206000018181610ee79190612712565b90505050565b806000013560056000836000013581526020019081526020016000206000016000015403610f50576040517f08c379a0000000000000000000000000000000000000000000000000000000008152600401610f479061276c565b60405180910390fd5b60001515610f8483600001803603810190610f6b9190612885565b84602001803603810190610f7f9190612885565b611733565b151514610fc6576040517f08c379a0000000000000000000000000000000000000000000000000000000008152600401610fbd906128fe565b60405180910390fd5b600081606001351461100d576040517f08c379a00000000000000000000000000000000000000000000000000000000081526004016110049061296a565b60405180910390fd5b600015158160800160208101906110249190612354565b151514611066576040517f08c379a000000000000000000000000000000000000000000000000000000000815260040161105d906129d6565b60405180910390fd5b61106e611856565b8180360381019061107f9190612a96565b8160000181905250828036038101906110989190612b13565b8160200181905250600081604001516000019015159081151581525050600081604001516020019015159081151581525050600360008154809291906110dd90612b40565b91905055508060056000846000013581526020019081526020016000206000820151816000016000820151816000015560208201518160010155604082015181600201556060820151816003015560808201518160040160006101000a81548160ff02191690831515021790555060a08201518160040160016101000a81548160ff021916908315150217905550505060208201518160050160008201518160000160008201518160000160006101000a81548173ffffffffffffffffffffffffffffffffffffffff021916908373ffffffffffffffffffffffffffffffffffffffff160217905550505060208201518160010160008201518160000160006101000a81548173ffffffffffffffffffffffffffffffffffffffff021916908373ffffffffffffffffffffffffffffffffffffffff1602179055505050505060408201518160070160008201518160000160006101000a81548160ff02191690831515021790555060208201518160000160016101000a81548160ff02191690831515021790555060408201518160000160026101000a81548160ff02191690831515021790555060608201518160000160036101000a81548160ff02191690831515021790555050509050507f6b3cb66dd3b05a5d6d883902e05aaf7c9b58fdccac36fd8036693fd6bf5c740960405160405180910390a1505050565b60035481565b600060019050949350505050565b60006005600083815260200190815260200160002090508181600001600001541461134f576040517f08c379a000000000000000000000000000000000000000000000000000000000815260040161134690611f36565b60405180910390fd5b3373ffffffffffffffffffffffffffffffffffffffff168160050160000160000160009054906101000a900473ffffffffffffffffffffffffffffffffffffffff1673ffffffffffffffffffffffffffffffffffffffff16148061140857503373ffffffffffffffffffffffffffffffffffffffff168160050160010160000160009054906101000a900473ffffffffffffffffffffffffffffffffffffffff1673ffffffffffffffffffffffffffffffffffffffff16145b611447576040517f08c379a000000000000000000000000000000000000000000000000000000000815260040161143e90611fc8565b60405180910390fd5b60008160050160000160000160009054906101000a900473ffffffffffffffffffffffffffffffffffffffff1673ffffffffffffffffffffffffffffffffffffffff163373ffffffffffffffffffffffffffffffffffffffff16149050801561150a57600015158260070160000160009054906101000a900460ff16151514611505576040517f08c379a00000000000000000000000000000000000000000000000000000000081526004016114fc90612bfa565b60405180910390fd5b611566565b600015158260070160000160019054906101000a900460ff16151514611565576040517f08c379a000000000000000000000000000000000000000000000000000000000815260040161155c90612bfa565b60405180910390fd5b5b600015158260000160040160009054906101000a900460ff161515146115c1576040517f08c379a00000000000000000000000000000000000000000000000000000000081526004016115b8906129d6565b60405180910390fd5b600034905060008111611609576040517f08c379a000000000000000000000000000000000000000000000000000000000815260040161160090612c66565b60405180910390fd5b81156116695780836000016001018190555060018360070160000160006101000a81548160ff021916908315150217905550611664604051806060016040528060378152602001612d54603791398460000160010154611774565b6116bf565b80836000016002018190555060018360070160000160016101000a81548160ff0219169083151502179055506116be604051806060016040528060378152602001612d8b603791398460000160020154611774565b5b6117156040518060400160405280601681526020017f5468656972206e65772062616c616e63652069733a20000000000000000000008152503373ffffffffffffffffffffffffffffffffffffffff1631611774565b50505050565b60066020528060005260406000206000915090505481565b6000816000015173ffffffffffffffffffffffffffffffffffffffff16836000015173ffffffffffffffffffffffffffffffffffffffff1614905092915050565b61180c828260405160240161178a929190612cf4565b6040516020818303038152906040527fb60e72cc000000000000000000000000000000000000000000000000000000007bffffffffffffffffffffffffffffffffffffffffffffffffffffffff19166020820180517bffffffffffffffffffffffffffffffffffffffffffffffffffffffff8381831617835250505050611810565b5050565b6118278161181f61182a61184b565b63ffffffff16565b50565b60006a636f6e736f6c652e6c6f679050600080835160208501845afa505050565b611889819050919050565b6040518060600160405280611869611893565b81526020016118766118cd565b81526020016118836118f3565b81525090565b611891612d24565b565b6040518060c00160405280600081526020016000815260200160008152602001600081526020016000151581526020016000151581525090565b60405180604001604052806118e0611923565b81526020016118ed611923565b81525090565b60405180608001604052806000151581526020016000151581526020016000151581526020016000151581525090565b6040518060200160405280600073ffffffffffffffffffffffffffffffffffffffff1681525090565b6000819050919050565b7f4e487b7100000000000000000000000000000000000000000000000000000000600052601160045260246000fd5b60006119908261194c565b915061199b8361194c565b92508282019050808211156119b3576119b2611956565b5b92915050565b6000604051905090565b600080fd5b600080fd5b6000819050919050565b6119e0816119cd565b81146119eb57600080fd5b50565b6000813590506119fd816119d7565b92915050565b600060208284031215611a1957611a186119c3565b5b6000611a27848285016119ee565b91505092915050565b611a39816119cd565b82525050565b611a488161194c565b82525050565b60008115159050919050565b611a6381611a4e565b82525050565b60c082016000820151611a7f6000850182611a30565b506020820151611a926020850182611a3f565b506040820151611aa56040850182611a3f565b506060820151611ab86060850182611a30565b506080820151611acb6080850182611a5a565b5060a0820151611ade60a0850182611a5a565b50505050565b600073ffffffffffffffffffffffffffffffffffffffff82169050919050565b6000611b0f82611ae4565b9050919050565b611b1f81611b04565b82525050565b602082016000820151611b3b6000850182611b16565b50505050565b604082016000820151611b576000850182611b25565b506020820151611b6a6020850182611b25565b50505050565b608082016000820151611b866000850182611a5a565b506020820151611b996020850182611a5a565b506040820151611bac6040850182611a5a565b506060820151611bbf6060850182611a5a565b50505050565b600061018082019050611bdb6000830186611a69565b611be860c0830185611b41565b611bf6610100830184611b70565b949350505050565b611c078161194c565b8114611c1257600080fd5b50565b600081359050611c2481611bfe565b92915050565b600060208284031215611c4057611c3f6119c3565b5b6000611c4e84828501611c15565b91505092915050565b611c6081611b04565b82525050565b6000602082019050611c7b6000830184611c57565b92915050565b611c8a8161194c565b82525050565b6000602082019050611ca56000830184611c81565b92915050565b600080fd5b600060c08284031215611cc657611cc5611cab565b5b81905092915050565b600060c08284031215611ce557611ce46119c3565b5b6000611cf384828501611cb0565b91505092915050565b600060408284031215611d1257611d11611cab565b5b81905092915050565b6000806101008385031215611d3357611d326119c3565b5b6000611d4185828601611cfc565b9250506040611d5285828601611cb0565b9150509250929050565b611d65816119cd565b82525050565b6000602082019050611d806000830184611d5c565b92915050565b6000611d9182611ae4565b9050919050565b6000611da382611d86565b9050919050565b611db381611d98565b8114611dbe57600080fd5b50565b600081359050611dd081611daa565b92915050565b600080fd5b600080fd5b600080fd5b60008083601f840112611dfb57611dfa611dd6565b5b8235905067ffffffffffffffff811115611e1857611e17611ddb565b5b602083019150836001820283011115611e3457611e33611de0565b5b9250929050565b60008060008060608587031215611e5557611e546119c3565b5b6000611e6387828801611dc1565b9450506020611e7487828801611c15565b935050604085013567ffffffffffffffff811115611e9557611e946119c8565b5b611ea187828801611de5565b925092505092959194509250565b611eb881611a4e565b82525050565b6000602082019050611ed36000830184611eaf565b92915050565b600082825260208201905092915050565b7f4368616e6e656c20646f6573206e6f7420657869737400000000000000000000600082015250565b6000611f20601683611ed9565b9150611f2b82611eea565b602082019050919050565b60006020820190508181036000830152611f4f81611f13565b9050919050565b7f53656e646572206973206e6f742061207061727469636970616e74206f66207460008201527f686520676976656e206368616e6e656c00000000000000000000000000000000602082015250565b6000611fb2603083611ed9565b9150611fbd82611f56565b604082019050919050565b60006020820190508181036000830152611fe181611fa5565b9050919050565b7f4368616e6e656c206973206e6f74207965742066696e616c6973656400000000600082015250565b600061201e601c83611ed9565b915061202982611fe8565b602082019050919050565b6000602082019050818103600083015261204d81612011565b9050919050565b7f4368616e6e656c2068617320616c7265616479206265656e20636c6f7365642c60008201527f2075736520776974686472617720696e73746561640000000000000000000000602082015250565b60006120b0603583611ed9565b91506120bb82612054565b604082019050919050565b600060208201905081810360008301526120df816120a3565b9050919050565b600081905092915050565b50565b60006121016000836120e6565b915061210c826120f1565b600082019050919050565b6000612122826120f4565b9150819050919050565b7f5472616e73666572206661696c65640000000000000000000000000000000000600082015250565b6000612162600f83611ed9565b915061216d8261212c565b602082019050919050565b6000602082019050818103600083015261219181612155565b9050919050565b7f4368616e6e656c20686173206e6f74206265656e20636c6f736564207965742c60008201527f2075736520636c6f736520696e73746561640000000000000000000000000000602082015250565b60006121f4603283611ed9565b91506121ff82612198565b604082019050919050565b60006020820190508181036000830152612223816121e7565b9050919050565b7f5468657265206973206e6f2062616c616e636520666f7220796f7520696e207460008201527f686973206368616e6e656c20746f207769746864726177000000000000000000602082015250565b6000612286603783611ed9565b91506122918261222a565b604082019050919050565b600060208201905081810360008301526122b581612279565b9050919050565b7f4368616e6e656c20697320616c72656164792066696e616c697a656400000000600082015250565b60006122f2601c83611ed9565b91506122fd826122bc565b602082019050919050565b60006020820190508181036000830152612321816122e5565b9050919050565b61233181611a4e565b811461233c57600080fd5b50565b60008135905061234e81612328565b92915050565b60006020828403121561236a576123696119c3565b5b60006123788482850161233f565b91505092915050565b7f4e6577204368616e6e656c206973206e6f742066696e616c697a656400000000600082015250565b60006123b7601c83611ed9565b91506123c282612381565b602082019050919050565b600060208201905081810360008301526123e6816123aa565b9050919050565b7f56657273696f6e204e756d626572206973206e6f7420696e6372656173656400600082015250565b6000612423601f83611ed9565b915061242e826123ed565b602082019050919050565b6000602082019050818103600083015261245281612416565b9050919050565b60008135612466816119d7565b80915050919050565b60008160001b9050919050565b60007fffffffffffffffffffffffffffffffffffffffffffffffffffffffffffffffff6124a88461246f565b9350801983169250808416831791505092915050565b6000819050919050565b60006124e36124de6124d9846119cd565b6124be565b6119cd565b9050919050565b6000819050919050565b6124fd826124c8565b612510612509826124ea565b835461247c565b8255505050565b6000813561252481611bfe565b80915050919050565b600061254861254361253e8461194c565b6124be565b61194c565b9050919050565b6000819050919050565b6125628261252d565b61257561256e8261254f565b835461247c565b8255505050565b6000813561258981612328565b80915050919050565b600060ff61259f8461246f565b9350801983169250808416831791505092915050565b60006125c082611a4e565b9050919050565b6000819050919050565b6125da826125b5565b6125ed6125e6826125c7565b8354612592565b8255505050565b60008160081b9050919050565b600061ff0061260f846125f4565b9350801983169250808416831791505092915050565b61262e826125b5565b61264161263a826125c7565b8354612601565b8255505050565b60008101600083018061265a81612459565b905061266681846124f4565b50505060018101602083018061267b81612517565b90506126878184612559565b50505060028101604083018061269c81612517565b90506126a88184612559565b5050506003810160608301806126bd81612459565b90506126c981846124f4565b5050506004810160808301806126de8161257c565b90506126ea81846125d1565b5050506004810160a08301806126ff8161257c565b905061270b8184612625565b5050505050565b61271c8282612648565b5050565b7f4368616e6e656c20616c72656164792065786973747300000000000000000000600082015250565b6000612756601683611ed9565b915061276182612720565b602082019050919050565b6000602082019050818103600083015261278581612749565b9050919050565b600080fd5b6000601f19601f8301169050919050565b7f4e487b7100000000000000000000000000000000000000000000000000000000600052604160045260246000fd5b6127da82612791565b810181811067ffffffffffffffff821117156127f9576127f86127a2565b5b80604052505050565b600061280c6119b9565b905061281882826127d1565b919050565b61282681611b04565b811461283157600080fd5b50565b6000813590506128438161281d565b92915050565b60006020828403121561285f5761285e61278c565b5b6128696020612802565b9050600061287984828501612834565b60008301525092915050565b60006020828403121561289b5761289a6119c3565b5b60006128a984828501612849565b91505092915050565b7f5061727469636970616e747320617265207468652073616d6500000000000000600082015250565b60006128e8601983611ed9565b91506128f3826128b2565b602082019050919050565b60006020820190508181036000830152612917816128db565b9050919050565b7f56657273696f6e206e756d626572206973206e6f742030000000000000000000600082015250565b6000612954601783611ed9565b915061295f8261291e565b602082019050919050565b6000602082019050818103600083015261298381612947565b9050919050565b7f4368616e6e656c2069732066696e616c697a6564000000000000000000000000600082015250565b60006129c0601483611ed9565b91506129cb8261298a565b602082019050919050565b600060208201905081810360008301526129ef816129b3565b9050919050565b600060c08284031215612a0c57612a0b61278c565b5b612a1660c0612802565b90506000612a26848285016119ee565b6000830152506020612a3a84828501611c15565b6020830152506040612a4e84828501611c15565b6040830152506060612a62848285016119ee565b6060830152506080612a768482850161233f565b60808301525060a0612a8a8482850161233f565b60a08301525092915050565b600060c08284031215612aac57612aab6119c3565b5b6000612aba848285016129f6565b91505092915050565b600060408284031215612ad957612ad861278c565b5b612ae36040612802565b90506000612af384828501612849565b6000830152506020612b0784828501612849565b60208301525092915050565b600060408284031215612b2957612b286119c3565b5b6000612b3784828501612ac3565b91505092915050565b6000612b4b826119cd565b91507f7fffffffffffffffffffffffffffffffffffffffffffffffffffffffffffffff8203612b7d57612b7c611956565b5b600182019050919050565b7f53656e6465722068617320616c72656164792066756e6465642074686973206360008201527f68616e6e656c0000000000000000000000000000000000000000000000000000602082015250565b6000612be4602683611ed9565b9150612bef82612b88565b604082019050919050565b60006020820190508181036000830152612c1381612bd7565b9050919050565b7f43616e6e6f742066756e642061206368616e6e656c2077697468203020457468600082015250565b6000612c50602083611ed9565b9150612c5b82612c1a565b602082019050919050565b60006020820190508181036000830152612c7f81612c43565b9050919050565b600081519050919050565b60005b83811015612caf578082015181840152602081019050612c94565b60008484015250505050565b6000612cc682612c86565b612cd08185611ed9565b9350612ce0818560208601612c91565b612ce981612791565b840191505092915050565b60006040820190508181036000830152612d0e8185612cbb565b9050612d1d6020830184611c81565b9392505050565b7f4e487b7100000000000000000000000000000000000000000000000000000000600052605160045260246000fdfe5061727469636970616e74204120686173207375636365737366756c6c792066756e64656420746865206368616e6e656c2077697468205061727469636970616e74204220686173207375636365737366756c6c792066756e64656420746865206368616e6e656c207769746820a2646970667358221220dd4cb087765ff3409ae0efb517c6bd11fc350b05f14799a0c44d64847fdb707e64736f6c63430008130033",
  "linkReferences": {},
  "deployedLinkReferences": {}
}