{
  "_format": "hh-sol-artifact-1",
  "contractName": "ChannelLogic",
  "sourceName": "contracts/ChannelLogic.sol",
  "abi": [
    {
      "anonymous": false,
      "inputs": [],
      "name": "ChannelOpen",
      "type": "event"
    },
    {
      "anonymous": false,
      "inputs": [
        {
          "indexed": true,
          "internalType": "uint256",
          "name": "transactionId",
          "type": "uint256"
        },
        {
          "indexed": false,
          "internalType": "address",
          "name": "sender",
          "type": "address"
        },
        {
          "indexed": false,
          "internalType": "address",
          "name": "receiver",
          "type": "address"
        },
        {
          "indexed": false,
          "internalType": "uint256",
          "name": "amount",
          "type": "uint256"
        }
      ],
      "name": "NewTransaction",
      "type": "event"
    },
    {
      "anonymous": false,
      "inputs": [
        {
          "indexed": false,
          "internalType": "int256",
          "name": "channel_id",
          "type": "int256"
        },
        {
          "indexed": false,
          "internalType": "address",
          "name": "party",
          "type": "address"
        }
      ],
      "name": "PartyFinalized",
      "type": "event"
    },
    {
      "inputs": [],
      "name": "Contract_Balance",
      "outputs": [
        {
          "internalType": "uint256",
          "name": "",
          "type": "uint256"
        }
      ],
      "stateMutability": "view",
      "type": "function"
    },
    {
      "inputs": [
        {
          "internalType": "int256",
          "name": "",
          "type": "int256"
        }
      ],
      "name": "balances",
      "outputs": [
        {
          "internalType": "uint256",
          "name": "",
          "type": "uint256"
        }
      ],
      "stateMutability": "view",
      "type": "function"
    },
    {
      "inputs": [],
      "name": "channelCount",
      "outputs": [
        {
          "internalType": "int256",
          "name": "",
          "type": "int256"
        }
      ],
      "stateMutability": "view",
      "type": "function"
    },
    {
      "inputs": [],
      "name": "channel_count",
      "outputs": [
        {
          "internalType": "int256",
          "name": "",
          "type": "int256"
        }
      ],
      "stateMutability": "view",
      "type": "function"
    },
    {
      "inputs": [
        {
          "internalType": "int256",
          "name": "",
          "type": "int256"
        }
      ],
      "name": "channels",
      "outputs": [
        {
          "components": [
            {
              "internalType": "int256",
              "name": "channel_id",
              "type": "int256"
            },
            {
              "internalType": "uint256",
              "name": "balance_A",
              "type": "uint256"
            },
            {
              "internalType": "uint256",
              "name": "balance_B",
              "type": "uint256"
            },
            {
              "internalType": "int256",
              "name": "version_num",
              "type": "int256"
            },
            {
              "internalType": "bool",
              "name": "finalized",
              "type": "bool"
            }
          ],
          "internalType": "struct Channel_State",
          "name": "state",
          "type": "tuple"
        },
        {
          "components": [
            {
              "components": [
                {
                  "internalType": "address payable",
                  "name": "addresse",
                  "type": "address"
                }
              ],
              "internalType": "struct Participant",
              "name": "participant_a",
              "type": "tuple"
            },
            {
              "components": [
                {
                  "internalType": "address payable",
                  "name": "addresse",
                  "type": "address"
                }
              ],
              "internalType": "struct Participant",
              "name": "participant_b",
              "type": "tuple"
            }
          ],
          "internalType": "struct Channel_Params",
          "name": "params",
          "type": "tuple"
        },
        {
          "components": [
            {
              "internalType": "bool",
              "name": "funded_a",
              "type": "bool"
            },
            {
              "internalType": "bool",
              "name": "funded_b",
              "type": "bool"
            }
          ],
          "internalType": "struct Channel_Control",
          "name": "control",
          "type": "tuple"
        }
      ],
      "stateMutability": "view",
      "type": "function"
    },
    {
      "inputs": [
        {
          "internalType": "int256",
          "name": "channel_id",
          "type": "int256"
        }
      ],
      "name": "close",
      "outputs": [],
      "stateMutability": "nonpayable",
      "type": "function"
    },
    {
      "inputs": [
        {
          "components": [
            {
              "internalType": "int256",
              "name": "channel_id",
              "type": "int256"
            },
            {
              "internalType": "uint256",
              "name": "balance_A",
              "type": "uint256"
            },
            {
              "internalType": "uint256",
              "name": "balance_B",
              "type": "uint256"
            },
            {
              "internalType": "int256",
              "name": "version_num",
              "type": "int256"
            },
            {
              "internalType": "bool",
              "name": "finalized",
              "type": "bool"
            }
          ],
          "internalType": "struct Channel_State",
          "name": "newState",
          "type": "tuple"
        }
      ],
      "name": "finalize",
      "outputs": [],
      "stateMutability": "nonpayable",
      "type": "function"
    },
    {
      "inputs": [
        {
          "internalType": "contract FlashBorrower",
          "name": "receiver",
          "type": "address"
        },
        {
          "internalType": "uint256",
          "name": "amount",
          "type": "uint256"
        },
        {
          "internalType": "bytes",
          "name": "data",
          "type": "bytes"
        }
      ],
      "name": "flashLoan",
      "outputs": [
        {
          "internalType": "bool",
          "name": "",
          "type": "bool"
        }
      ],
      "stateMutability": "nonpayable",
      "type": "function"
    },
    {
      "inputs": [
        {
          "internalType": "int256",
          "name": "channel_id",
          "type": "int256"
        },
        {
          "internalType": "uint256",
          "name": "amount",
          "type": "uint256"
        }
      ],
      "name": "fund",
      "outputs": [],
      "stateMutability": "payable",
      "type": "function"
    },
    {
      "inputs": [
        {
          "components": [
            {
              "components": [
                {
                  "internalType": "address payable",
                  "name": "addresse",
                  "type": "address"
                }
              ],
              "internalType": "struct Participant",
              "name": "participant_a",
              "type": "tuple"
            },
            {
              "components": [
                {
                  "internalType": "address payable",
                  "name": "addresse",
                  "type": "address"
                }
              ],
              "internalType": "struct Participant",
              "name": "participant_b",
              "type": "tuple"
            }
          ],
          "internalType": "struct Channel_Params",
          "name": "params",
          "type": "tuple"
        },
        {
          "components": [
            {
              "internalType": "int256",
              "name": "channel_id",
              "type": "int256"
            },
            {
              "internalType": "uint256",
              "name": "balance_A",
              "type": "uint256"
            },
            {
              "internalType": "uint256",
              "name": "balance_B",
              "type": "uint256"
            },
            {
              "internalType": "int256",
              "name": "version_num",
              "type": "int256"
            },
            {
              "internalType": "bool",
              "name": "finalized",
              "type": "bool"
            }
          ],
          "internalType": "struct Channel_State",
          "name": "state",
          "type": "tuple"
        }
      ],
      "name": "open",
      "outputs": [],
      "stateMutability": "nonpayable",
      "type": "function"
    },
    {
      "inputs": [
        {
          "internalType": "uint256",
          "name": "",
          "type": "uint256"
        }
      ],
      "name": "participants",
      "outputs": [
        {
          "internalType": "address payable",
          "name": "addresse",
          "type": "address"
        }
      ],
      "stateMutability": "view",
      "type": "function"
    },
    {
      "stateMutability": "payable",
      "type": "receive"
    }
  ],
  "bytecode": "0x6080604052600160005560006001556000600355600060045534801561002457600080fd5b506127d8806100346000396000f3fe60806040526004361061009f5760003560e01c806372142c3b1161006457806372142c3b146101ad578063a9e3d444146101d6578063acf8bf2a14610201578063c8d537211461022c578063e0232b4214610257578063f6d5c8a014610294576100be565b8062e061c0146100c357806301b31363146100df5780631e2659781461010857806335c1d349146101475780633b8ec14b14610184576100be565b366100be5734600160008282546100b6919061158e565b925050819055005b600080fd5b6100dd60048036038101906100d89190611638565b6102d1565b005b3480156100eb57600080fd5b50610106600480360381019061010191906116bb565b61074d565b005b34801561011457600080fd5b5061012f600480360381019061012a91906116fb565b610adb565b60405161013e93929190611884565b60405180910390f35b34801561015357600080fd5b5061016e600480360381019061016991906118bc565b610c70565b60405161017b91906118f8565b60405180910390f35b34801561019057600080fd5b506101ab60048036038101906101a69190611913565b610cba565b005b3480156101b957600080fd5b506101d460048036038101906101cf91906116fb565b610e77565b005b3480156101e257600080fd5b506101eb61131e565b6040516101f8919061194f565b60405180910390f35b34801561020d57600080fd5b50610216611324565b6040516102239190611979565b60405180910390f35b34801561023857600080fd5b5061024161132e565b60405161024e9190611979565b60405180910390f35b34801561026357600080fd5b5061027e60048036038101906102799190611a49565b611334565b60405161028b9190611acc565b60405180910390f35b3480156102a057600080fd5b506102bb60048036038101906102b691906116fb565b611342565b6040516102c8919061194f565b60405180910390f35b600060056000848152602001908152602001600020905082816000016000015414610331576040517f08c379a000000000000000000000000000000000000000000000000000000000815260040161032890611b44565b60405180910390fd5b600015158160000160040160009054906101000a900460ff1615151461038c576040517f08c379a000000000000000000000000000000000000000000000000000000000815260040161038390611bb0565b60405180910390fd5b8060050160000160000160009054906101000a900473ffffffffffffffffffffffffffffffffffffffff1673ffffffffffffffffffffffffffffffffffffffff163373ffffffffffffffffffffffffffffffffffffffff160361054c57600015158160070160000160009054906101000a900460ff16151514610444576040517f08c379a000000000000000000000000000000000000000000000000000000000815260040161043b90611c1c565b60405180910390fd5b6000803073ffffffffffffffffffffffffffffffffffffffff163460405161046b90611c6d565b60006040518083038185875af1925050503d80600081146104a8576040519150601f19603f3d011682016040523d82523d6000602084013e6104ad565b606091505b5091509150816104f2576040517f08c379a00000000000000000000000000000000000000000000000000000000081526004016104e990611cce565b60405180910390fd5b6104fb4761135a565b83836000016001016000828254610512919061158e565b9250508190555060018360070160000160006101000a81548160ff0219169083151502179055508383600001600101819055505050610748565b8060050160010160000160009054906101000a900473ffffffffffffffffffffffffffffffffffffffff1673ffffffffffffffffffffffffffffffffffffffff163373ffffffffffffffffffffffffffffffffffffffff160361070c57600015158160070160000160019054906101000a900460ff16151514610604576040517f08c379a00000000000000000000000000000000000000000000000000000000081526004016105fb90611d3a565b60405180910390fd5b6000803073ffffffffffffffffffffffffffffffffffffffff163460405161062b90611c6d565b60006040518083038185875af1925050503d8060008114610668576040519150601f19603f3d011682016040523d82523d6000602084013e61066d565b606091505b5091509150816106b2576040517f08c379a00000000000000000000000000000000000000000000000000000000081526004016106a990611cce565b60405180910390fd5b6106bb4761135a565b838360000160020160008282546106d2919061158e565b9250508190555060018360070160000160016101000a81548160ff0219169083151502179055508383600001600201819055505050610747565b6040517f08c379a000000000000000000000000000000000000000000000000000000000815260040161073e90611da6565b60405180910390fd5b5b505050565b8060000135600560008360000135815260200190815260200160002060000160000154036107b0576040517f08c379a00000000000000000000000000000000000000000000000000000000081526004016107a790611e12565b60405180910390fd5b600015156107e4836000018036038101906107cb9190611f2b565b846020018036038101906107df9190611f2b565b6113f3565b151514610826576040517f08c379a000000000000000000000000000000000000000000000000000000000815260040161081d90611fa4565b60405180910390fd5b600081606001351461086d576040517f08c379a000000000000000000000000000000000000000000000000000000000815260040161086490612010565b60405180910390fd5b60001515816080016020810190610884919061205c565b1515146108c6576040517f08c379a00000000000000000000000000000000000000000000000000000000081526004016108bd90611bb0565b60405180910390fd5b6108ce61147a565b818036038101906108df9190612115565b8160000181905250828036038101906108f89190612192565b81602001819052506000816040015160000190151590811515815250506000816040015160200190151590811515815250506003600081548092919061093d906121bf565b91905055508060056000846000013581526020019081526020016000206000820151816000016000820151816000015560208201518160010155604082015181600201556060820151816003015560808201518160040160006101000a81548160ff021916908315150217905550505060208201518160050160008201518160000160008201518160000160006101000a81548173ffffffffffffffffffffffffffffffffffffffff021916908373ffffffffffffffffffffffffffffffffffffffff160217905550505060208201518160010160008201518160000160006101000a81548173ffffffffffffffffffffffffffffffffffffffff021916908373ffffffffffffffffffffffffffffffffffffffff1602179055505050505060408201518160070160008201518160000160006101000a81548160ff02191690831515021790555060208201518160000160016101000a81548160ff02191690831515021790555050509050507f6b3cb66dd3b05a5d6d883902e05aaf7c9b58fdccac36fd8036693fd6bf5c740960405160405180910390a1505050565b6005602052806000526040600020600091509050806000016040518060a0016040529081600082015481526020016001820154815260200160028201548152602001600382015481526020016004820160009054906101000a900460ff1615151515815250509080600501604051806040016040529081600082016040518060200160405290816000820160009054906101000a900473ffffffffffffffffffffffffffffffffffffffff1673ffffffffffffffffffffffffffffffffffffffff1673ffffffffffffffffffffffffffffffffffffffff16815250508152602001600182016040518060200160405290816000820160009054906101000a900473ffffffffffffffffffffffffffffffffffffffff1673ffffffffffffffffffffffffffffffffffffffff1673ffffffffffffffffffffffffffffffffffffffff16815250508152505090806007016040518060400160405290816000820160009054906101000a900460ff161515151581526020016000820160019054906101000a900460ff161515151581525050905083565b60028181548110610c8057600080fd5b906000526020600020016000915090508060000160009054906101000a900473ffffffffffffffffffffffffffffffffffffffff16905081565b806000013560056000836000013581526020019081526020016000206000016000015414610d1d576040517f08c379a0000000000000000000000000000000000000000000000000000000008152600401610d1490611b44565b60405180910390fd5b60001515600560008360000135815260200190815260200160002060000160040160009054906101000a900460ff16151514610d8e576040517f08c379a0000000000000000000000000000000000000000000000000000000008152600401610d8590612253565b60405180910390fd5b60011515816080016020810190610da5919061205c565b151514610de7576040517f08c379a0000000000000000000000000000000000000000000000000000000008152600401610dde906122bf565b60405180910390fd5b600560008260000135815260200190815260200160002060000160030154816060013513610e4a576040517f08c379a0000000000000000000000000000000000000000000000000000000008152600401610e419061232b565b60405180910390fd5b8060056000836000013581526020019081526020016000206000018181610e71919061258f565b90505050565b600060056000838152602001908152602001600020905081816000016000015414610ed7576040517f08c379a0000000000000000000000000000000000000000000000000000000008152600401610ece90611b44565b60405180910390fd5b3373ffffffffffffffffffffffffffffffffffffffff168160050160000160000160009054906101000a900473ffffffffffffffffffffffffffffffffffffffff1673ffffffffffffffffffffffffffffffffffffffff161480610f9057503373ffffffffffffffffffffffffffffffffffffffff168160050160010160000160009054906101000a900473ffffffffffffffffffffffffffffffffffffffff1673ffffffffffffffffffffffffffffffffffffffff16145b610fcf576040517f08c379a0000000000000000000000000000000000000000000000000000000008152600401610fc69061260f565b60405180910390fd5b8060000160040160009054906101000a900460ff16611023576040517f08c379a000000000000000000000000000000000000000000000000000000000815260040161101a9061267b565b60405180910390fd5b60008060008111611069576040517f08c379a0000000000000000000000000000000000000000000000000000000008152600401611060906126e7565b60405180910390fd5b60006005600086815260200190815260200160002060000160010154111561118257600560008581526020019081526020016000206000016001015490506000808460050160000160000160009054906101000a900473ffffffffffffffffffffffffffffffffffffffff1673ffffffffffffffffffffffffffffffffffffffff16836040516110f890611c6d565b60006040518083038185875af1925050503d8060008114611135576040519150601f19603f3d011682016040523d82523d6000602084013e61113a565b606091505b50915091508161117f576040517f08c379a000000000000000000000000000000000000000000000000000000000815260040161117690612753565b60405180910390fd5b50505b60006005600086815260200190815260200160002060000160020154111561129b57600560008581526020019081526020016000206000016002015490506000808460050160010160000160009054906101000a900473ffffffffffffffffffffffffffffffffffffffff1673ffffffffffffffffffffffffffffffffffffffff168360405161121190611c6d565b60006040518083038185875af1925050503d806000811461124e576040519150601f19603f3d011682016040523d82523d6000602084013e611253565b606091505b509150915081611298576040517f08c379a000000000000000000000000000000000000000000000000000000000815260040161128f90612753565b60405180910390fd5b50505b8260050160000160000160009054906101000a900473ffffffffffffffffffffffffffffffffffffffff1673ffffffffffffffffffffffffffffffffffffffff168273ffffffffffffffffffffffffffffffffffffffff160361130a5760008360000160010181905550611318565b600083600001600201819055505b50505050565b60015481565b6000600354905090565b60035481565b600060019050949350505050565b60066020528060005260406000206000915090505481565b6113f08160405160240161136e919061194f565b6040516020818303038152906040527ff82c50f1000000000000000000000000000000000000000000000000000000007bffffffffffffffffffffffffffffffffffffffffffffffffffffffff19166020820180517bffffffffffffffffffffffffffffffffffffffffffffffffffffffff8381831617835250505050611434565b50565b6000816000015173ffffffffffffffffffffffffffffffffffffffff16836000015173ffffffffffffffffffffffffffffffffffffffff1614905092915050565b61144b8161144361144e61146f565b63ffffffff16565b50565b60006a636f6e736f6c652e6c6f679050600080835160208501845afa505050565b6114ad819050919050565b604051806060016040528061148d6114b7565b815260200161149a6114e8565b81526020016114a761150e565b81525090565b6114b5612773565b565b6040518060a00160405280600081526020016000815260200160008152602001600081526020016000151581525090565b60405180604001604052806114fb61152c565b815260200161150861152c565b81525090565b60405180604001604052806000151581526020016000151581525090565b6040518060200160405280600073ffffffffffffffffffffffffffffffffffffffff1681525090565b6000819050919050565b7f4e487b7100000000000000000000000000000000000000000000000000000000600052601160045260246000fd5b600061159982611555565b91506115a483611555565b92508282019050808211156115bc576115bb61155f565b5b92915050565b6000604051905090565b600080fd5b600080fd5b6000819050919050565b6115e9816115d6565b81146115f457600080fd5b50565b600081359050611606816115e0565b92915050565b61161581611555565b811461162057600080fd5b50565b6000813590506116328161160c565b92915050565b6000806040838503121561164f5761164e6115cc565b5b600061165d858286016115f7565b925050602061166e85828601611623565b9150509250929050565b600080fd5b60006040828403121561169357611692611678565b5b81905092915050565b600060a082840312156116b2576116b1611678565b5b81905092915050565b60008060e083850312156116d2576116d16115cc565b5b60006116e08582860161167d565b92505060406116f18582860161169c565b9150509250929050565b600060208284031215611711576117106115cc565b5b600061171f848285016115f7565b91505092915050565b611731816115d6565b82525050565b61174081611555565b82525050565b60008115159050919050565b61175b81611746565b82525050565b60a0820160008201516117776000850182611728565b50602082015161178a6020850182611737565b50604082015161179d6040850182611737565b5060608201516117b06060850182611728565b5060808201516117c36080850182611752565b50505050565b600073ffffffffffffffffffffffffffffffffffffffff82169050919050565b60006117f4826117c9565b9050919050565b611804816117e9565b82525050565b60208201600082015161182060008501826117fb565b50505050565b60408201600082015161183c600085018261180a565b50602082015161184f602085018261180a565b50505050565b60408201600082015161186b6000850182611752565b50602082015161187e6020850182611752565b50505050565b60006101208201905061189a6000830186611761565b6118a760a0830185611826565b6118b460e0830184611855565b949350505050565b6000602082840312156118d2576118d16115cc565b5b60006118e084828501611623565b91505092915050565b6118f2816117e9565b82525050565b600060208201905061190d60008301846118e9565b92915050565b600060a08284031215611929576119286115cc565b5b60006119378482850161169c565b91505092915050565b61194981611555565b82525050565b60006020820190506119646000830184611940565b92915050565b611973816115d6565b82525050565b600060208201905061198e600083018461196a565b92915050565b600061199f826117c9565b9050919050565b60006119b182611994565b9050919050565b6119c1816119a6565b81146119cc57600080fd5b50565b6000813590506119de816119b8565b92915050565b600080fd5b600080fd5b600080fd5b60008083601f840112611a0957611a086119e4565b5b8235905067ffffffffffffffff811115611a2657611a256119e9565b5b602083019150836001820283011115611a4257611a416119ee565b5b9250929050565b60008060008060608587031215611a6357611a626115cc565b5b6000611a71878288016119cf565b9450506020611a8287828801611623565b935050604085013567ffffffffffffffff811115611aa357611aa26115d1565b5b611aaf878288016119f3565b925092505092959194509250565b611ac681611746565b82525050565b6000602082019050611ae16000830184611abd565b92915050565b600082825260208201905092915050565b7f4368616e6e656c20646f6573206e6f7420657869737400000000000000000000600082015250565b6000611b2e601683611ae7565b9150611b3982611af8565b602082019050919050565b60006020820190508181036000830152611b5d81611b21565b9050919050565b7f4368616e6e656c2069732066696e616c697a6564000000000000000000000000600082015250565b6000611b9a601483611ae7565b9150611ba582611b64565b602082019050919050565b60006020820190508181036000830152611bc981611b8d565b9050919050565b7f5061727469636970616e74204120616c72656164792066756e64656400000000600082015250565b6000611c06601c83611ae7565b9150611c1182611bd0565b602082019050919050565b60006020820190508181036000830152611c3581611bf9565b9050919050565b600081905092915050565b50565b6000611c57600083611c3c565b9150611c6282611c47565b600082019050919050565b6000611c7882611c4a565b9150819050919050565b7f4661696c656420746f2073656e64204574686572000000000000000000000000600082015250565b6000611cb8601483611ae7565b9150611cc382611c82565b602082019050919050565b60006020820190508181036000830152611ce781611cab565b9050919050565b7f5061727469636970616e74204220616c72656164792066756e64656400000000600082015250565b6000611d24601c83611ae7565b9150611d2f82611cee565b602082019050919050565b60006020820190508181036000830152611d5381611d17565b9050919050565b7f43616c6c6572206973206e6f742061207061727469636970616e740000000000600082015250565b6000611d90601b83611ae7565b9150611d9b82611d5a565b602082019050919050565b60006020820190508181036000830152611dbf81611d83565b9050919050565b7f4368616e6e656c20616c72656164792065786973747300000000000000000000600082015250565b6000611dfc601683611ae7565b9150611e0782611dc6565b602082019050919050565b60006020820190508181036000830152611e2b81611def565b9050919050565b600080fd5b6000601f19601f8301169050919050565b7f4e487b7100000000000000000000000000000000000000000000000000000000600052604160045260246000fd5b611e8082611e37565b810181811067ffffffffffffffff82111715611e9f57611e9e611e48565b5b80604052505050565b6000611eb26115c2565b9050611ebe8282611e77565b919050565b611ecc816117e9565b8114611ed757600080fd5b50565b600081359050611ee981611ec3565b92915050565b600060208284031215611f0557611f04611e32565b5b611f0f6020611ea8565b90506000611f1f84828501611eda565b60008301525092915050565b600060208284031215611f4157611f406115cc565b5b6000611f4f84828501611eef565b91505092915050565b7f5061727469636970616e747320617265207468652073616d6500000000000000600082015250565b6000611f8e601983611ae7565b9150611f9982611f58565b602082019050919050565b60006020820190508181036000830152611fbd81611f81565b9050919050565b7f56657273696f6e206e756d626572206973206e6f742030000000000000000000600082015250565b6000611ffa601783611ae7565b915061200582611fc4565b602082019050919050565b6000602082019050818103600083015261202981611fed565b9050919050565b61203981611746565b811461204457600080fd5b50565b60008135905061205681612030565b92915050565b600060208284031215612072576120716115cc565b5b600061208084828501612047565b91505092915050565b600060a0828403121561209f5761209e611e32565b5b6120a960a0611ea8565b905060006120b9848285016115f7565b60008301525060206120cd84828501611623565b60208301525060406120e184828501611623565b60408301525060606120f5848285016115f7565b606083015250608061210984828501612047565b60808301525092915050565b600060a0828403121561212b5761212a6115cc565b5b600061213984828501612089565b91505092915050565b60006040828403121561215857612157611e32565b5b6121626040611ea8565b9050600061217284828501611eef565b600083015250602061218684828501611eef565b60208301525092915050565b6000604082840312156121a8576121a76115cc565b5b60006121b684828501612142565b91505092915050565b60006121ca826115d6565b91507f7fffffffffffffffffffffffffffffffffffffffffffffffffffffffffffffff82036121fc576121fb61155f565b5b600182019050919050565b7f4368616e6e656c20697320616c72656164792066696e616c697a656400000000600082015250565b600061223d601c83611ae7565b915061224882612207565b602082019050919050565b6000602082019050818103600083015261226c81612230565b9050919050565b7f4e6577204368616e6e656c206973206e6f742066696e616c697a656400000000600082015250565b60006122a9601c83611ae7565b91506122b482612273565b602082019050919050565b600060208201905081810360008301526122d88161229c565b9050919050565b7f56657273696f6e204e756d626572206973206e6f7420696e6372656173656400600082015250565b6000612315601f83611ae7565b9150612320826122df565b602082019050919050565b6000602082019050818103600083015261234481612308565b9050919050565b60008135612358816115e0565b80915050919050565b60008160001b9050919050565b60007fffffffffffffffffffffffffffffffffffffffffffffffffffffffffffffffff61239a84612361565b9350801983169250808416831791505092915050565b6000819050919050565b60006123d56123d06123cb846115d6565b6123b0565b6115d6565b9050919050565b6000819050919050565b6123ef826123ba565b6124026123fb826123dc565b835461236e565b8255505050565b600081356124168161160c565b80915050919050565b600061243a61243561243084611555565b6123b0565b611555565b9050919050565b6000819050919050565b6124548261241f565b61246761246082612441565b835461236e565b8255505050565b6000813561247b81612030565b80915050919050565b600060ff61249184612361565b9350801983169250808416831791505092915050565b60006124b282611746565b9050919050565b6000819050919050565b6124cc826124a7565b6124df6124d8826124b9565b8354612484565b8255505050565b6000810160008301806124f88161234b565b905061250481846123e6565b50505060018101602083018061251981612409565b9050612525818461244b565b50505060028101604083018061253a81612409565b9050612546818461244b565b50505060038101606083018061255b8161234b565b905061256781846123e6565b50505060048101608083018061257c8161246e565b905061258881846124c3565b5050505050565b61259982826124e6565b5050565b7f43616c6c6572206973206e6f742061207061727469636970616e74206f66207460008201527f686520676976656e206368616e6e656c00000000000000000000000000000000602082015250565b60006125f9603083611ae7565b91506126048261259d565b604082019050919050565b60006020820190508181036000830152612628816125ec565b9050919050565b7f4368616e6e656c206973206e6f74207965742066696e616c6973656400000000600082015250565b6000612665601c83611ae7565b91506126708261262f565b602082019050919050565b6000602082019050818103600083015261269481612658565b9050919050565b7f4e6f7468696e6720746f207472616e7366657200000000000000000000000000600082015250565b60006126d1601383611ae7565b91506126dc8261269b565b602082019050919050565b60006020820190508181036000830152612700816126c4565b9050919050565b7f5472616e73666572206661696c65640000000000000000000000000000000000600082015250565b600061273d600f83611ae7565b915061274882612707565b602082019050919050565b6000602082019050818103600083015261276c81612730565b9050919050565b7f4e487b7100000000000000000000000000000000000000000000000000000000600052605160045260246000fdfea2646970667358221220b1e8955a1083a12b427602972e8587be51a06e5f4996433d9939859bef0bfbea64736f6c63430008130033",
  "linkReferences": {},
  "deployedLinkReferences": {}
}