{
  "_format": "hh-sol-artifact-1",
  "contractName": "CryptoMarket",
  "sourceName": "contracts/CryptoMarket.sol",
  "abi": [
    {
      "stateMutability": "payable",
      "type": "fallback"
    },
    {
      "inputs": [],
      "name": "doArbitrage",
      "outputs": [],
      "stateMutability": "payable",
      "type": "function"
    },
    {
      "inputs": [],
      "name": "receiver",
      "outputs": [],
      "stateMutability": "payable",
      "type": "function"
    },
    {
      "stateMutability": "payable",
      "type": "receive"
    }
  ],
  "bytecode": "0x608060405234801561001057600080fd5b50610637806100206000396000f3fe60806040526004361061002d5760003560e01c80638b27e95114610097578063f7260d3e146100a157610073565b36610073576100716040518060400160405280601b81526020017f4578616d706c65426f72726f7765722052656365697665642025730000000000815250346100ab565b005b6100956040518060600160405280602581526020016105dd60259139346100ab565b005b61009f610147565b005b6100a9610254565b005b61014382826040516024016100c192919061038e565b6040516020818303038152906040527fb60e72cc000000000000000000000000000000000000000000000000000000007bffffffffffffffffffffffffffffffffffffffffffffffffffffffff19166020820180517bffffffffffffffffffffffffffffffffffffffffffffffffffffffff8381831617835250505050610295565b5050565b6000340361018a576040517f08c379a00000000000000000000000000000000000000000000000000000000081526004016101819061040a565b60405180910390fd5b6000803373ffffffffffffffffffffffffffffffffffffffff16600a600b346101b39190610459565b6101bd91906104ca565b6040516101c99061052c565b60006040518083038185875af1925050503d8060008114610206576040519150601f19603f3d011682016040523d82523d6000602084013e61020b565b606091505b509150915081610250576040517f08c379a00000000000000000000000000000000000000000000000000000000081526004016102479061058d565b60405180910390fd5b5050565b6102936040518060400160405280600b81526020017f5265636569766572202573000000000000000000000000000000000000000000815250346100ab565b565b6102ac816102a46102af6102d0565b63ffffffff16565b50565b60006a636f6e736f6c652e6c6f679050600080835160208501845afa505050565b6102db819050919050565b6102e36105ad565b565b600081519050919050565b600082825260208201905092915050565b60005b8381101561031f578082015181840152602081019050610304565b60008484015250505050565b6000601f19601f8301169050919050565b6000610347826102e5565b61035181856102f0565b9350610361818560208601610301565b61036a8161032b565b840191505092915050565b6000819050919050565b61038881610375565b82525050565b600060408201905081810360008301526103a8818561033c565b90506103b7602083018461037f565b9392505050565b7f43616e277420646f2061726269747261676520776974686f7574206d6f6e6579600082015250565b60006103f46020836102f0565b91506103ff826103be565b602082019050919050565b60006020820190508181036000830152610423816103e7565b9050919050565b7f4e487b7100000000000000000000000000000000000000000000000000000000600052601160045260246000fd5b600061046482610375565b915061046f83610375565b925082820261047d81610375565b915082820484148315176104945761049361042a565b5b5092915050565b7f4e487b7100000000000000000000000000000000000000000000000000000000600052601260045260246000fd5b60006104d582610375565b91506104e083610375565b9250826104f0576104ef61049b565b5b828204905092915050565b600081905092915050565b50565b60006105166000836104fb565b915061052182610506565b600082019050919050565b600061053782610509565b9150819050919050565b7f5472616e73666572206661696c65640000000000000000000000000000000000600082015250565b6000610577600f836102f0565b915061058282610541565b602082019050919050565b600060208201905081810360008301526105a68161056a565b9050919050565b7f4e487b7100000000000000000000000000000000000000000000000000000000600052605160045260246000fdfe4578616d706c65426f72726f7765722046616c6c6261636b2c205265636569766564202573a2646970667358221220eda3015a9ec12a20f013b37d872a0892b0413c19d10fcb09bad1f36e7dff403f64736f6c63430008130033",
  "linkReferences": {},
  "deployedLinkReferences": {}
}