{
  "_format": "hh-sol-artifact-1",
  "contractName": "CryptoMarket",
  "sourceName": "contracts/CryptoMarket.sol",
  "abi": [
    {
      "inputs": [],
      "name": "doArbitrage",
      "outputs": [],
      "stateMutability": "payable",
      "type": "function"
    }
  ],
  "bytecode": "0x608060405234801561001057600080fd5b5061037a806100206000396000f3fe60806040526004361061001e5760003560e01c80638b27e95114610023575b600080fd5b61002b61002d565b005b60003403610070576040517f08c379a000000000000000000000000000000000000000000000000000000000815260040161006790610197565b60405180910390fd5b6000803373ffffffffffffffffffffffffffffffffffffffff16600a600b3461009991906101f0565b6100a39190610261565b6040516100af906102c3565b60006040518083038185875af1925050503d80600081146100ec576040519150601f19603f3d011682016040523d82523d6000602084013e6100f1565b606091505b509150915081610136576040517f08c379a000000000000000000000000000000000000000000000000000000000815260040161012d90610324565b60405180910390fd5b5050565b600082825260208201905092915050565b7f43616e277420646f2061726269747261676520776974686f7574206d6f6e6579600082015250565b600061018160208361013a565b915061018c8261014b565b602082019050919050565b600060208201905081810360008301526101b081610174565b9050919050565b6000819050919050565b7f4e487b7100000000000000000000000000000000000000000000000000000000600052601160045260246000fd5b60006101fb826101b7565b9150610206836101b7565b9250828202610214816101b7565b9150828204841483151761022b5761022a6101c1565b5b5092915050565b7f4e487b7100000000000000000000000000000000000000000000000000000000600052601260045260246000fd5b600061026c826101b7565b9150610277836101b7565b92508261028757610286610232565b5b828204905092915050565b600081905092915050565b50565b60006102ad600083610292565b91506102b88261029d565b600082019050919050565b60006102ce826102a0565b9150819050919050565b7f5472616e73666572206661696c65640000000000000000000000000000000000600082015250565b600061030e600f8361013a565b9150610319826102d8565b602082019050919050565b6000602082019050818103600083015261033d81610301565b905091905056fea26469706673582212205b34aac2b5f3db5182486b3dc32124812ed20e621ee6456a7e04400675785d2f64736f6c63430008130033",
  "linkReferences": {},
  "deployedLinkReferences": {}
}