{
  "_format": "hh-sol-artifact-1",
  "contractName": "ExampleBorrower",
  "sourceName": "contracts/ExampleBorrower.sol",
  "abi": [
    {
      "stateMutability": "payable",
      "type": "fallback"
    },
    {
      "inputs": [],
      "name": "channelLogic",
      "outputs": [
        {
          "internalType": "contract ChannelLogic",
          "name": "",
          "type": "address"
        }
      ],
      "stateMutability": "view",
      "type": "function"
    },
    {
      "inputs": [
        {
          "internalType": "address",
          "name": "initiator",
          "type": "address"
        },
        {
          "internalType": "uint256",
          "name": "amount",
          "type": "uint256"
        },
        {
          "internalType": "uint256",
          "name": "fee",
          "type": "uint256"
        }
      ],
      "name": "onFlashLoan",
      "outputs": [
        {
          "internalType": "bool",
          "name": "",
          "type": "bool"
        }
      ],
      "stateMutability": "nonpayable",
      "type": "function"
    },
    {
      "inputs": [],
      "name": "receiver",
      "outputs": [],
      "stateMutability": "payable",
      "type": "function"
    },
    {
      "inputs": [
        {
          "internalType": "uint256",
          "name": "amount",
          "type": "uint256"
        }
      ],
      "name": "startFlashLoan",
      "outputs": [],
      "stateMutability": "nonpayable",
      "type": "function"
    },
    {
      "stateMutability": "payable",
      "type": "receive"
    }
  ],
  "bytecode": "0x6080604052735fbdb2315678afecb367f032d93f642f64180aa36000806101000a81548173ffffffffffffffffffffffffffffffffffffffff021916908373ffffffffffffffffffffffffffffffffffffffff16021790555034801561006457600080fd5b50610c61806100746000396000f3fe6080604052600436106100435760003560e01c806332f7dec4146100ad5780636d2b653f146100d857806394cf612a14610115578063f7260d3e1461013e57610089565b36610089576100876040518060400160405280601b81526020017f4578616d706c65426f72726f776572205265636569766564202573000000000081525034610148565b005b6100ab604051806060016040528060258152602001610c076025913934610148565b005b3480156100b957600080fd5b506100c26101e4565b6040516100cf919061078c565b60405180910390f35b3480156100e457600080fd5b506100ff60048036038101906100fa9190610820565b610208565b60405161010c919061088e565b60405180910390f35b34801561012157600080fd5b5061013c600480360381019061013791906108a9565b6103a4565b005b6101466104ab565b005b6101e0828260405160240161015e929190610975565b6040516020818303038152906040527fb60e72cc000000000000000000000000000000000000000000000000000000007bffffffffffffffffffffffffffffffffffffffffffffffffffffffff19166020820180517bffffffffffffffffffffffffffffffffffffffffffffffffffffffff83818316178352505050506104ec565b5050565b60008054906101000a900473ffffffffffffffffffffffffffffffffffffffff1681565b60006102496040518060400160405280601b81526020017f466c617368206c6f616e20696e697469617465642062793a202573000000000081525085610506565b6102886040518060400160405280600a81526020017f416d6f756e743a2025730000000000000000000000000000000000000000000081525084610148565b6102c76040518060400160405280600781526020017f4665653a2025730000000000000000000000000000000000000000000000000081525083610148565b60008054906101000a900473ffffffffffffffffffffffffffffffffffffffff1673ffffffffffffffffffffffffffffffffffffffff1663019f64cc670de0b6b3a7640000848661031891906109d4565b6103229190610a08565b6040518263ffffffff1660e01b815260040160206040518083038185885af1158015610352573d6000803e3d6000fd5b50505050506040513d601f19601f820116820180604052508101906103779190610a76565b50610399604051806060016040528060248152602001610be3602491396105a2565b600190509392505050565b6103c5604051806060016040528060238152602001610bc0602391396105a2565b60008060009054906101000a900473ffffffffffffffffffffffffffffffffffffffff1673ffffffffffffffffffffffffffffffffffffffff16639d9e465c30846040518363ffffffff1660e01b8152600401610423929190610ad6565b6020604051808303816000875af1158015610442573d6000803e3d6000fd5b505050506040513d601f19601f820116820180604052508101906104669190610a76565b90506104a76040518060400160405280601581526020017f466c617368206c6f616e20726573756c743a20257300000000000000000000008152508261063b565b5050565b6104ea6040518060400160405280600b81526020017f526563656976657220257300000000000000000000000000000000000000000081525034610148565b565b610503816104fb6106d76106f8565b63ffffffff16565b50565b61059e828260405160240161051c929190610b0e565b6040516020818303038152906040527f319af333000000000000000000000000000000000000000000000000000000007bffffffffffffffffffffffffffffffffffffffffffffffffffffffff19166020820180517bffffffffffffffffffffffffffffffffffffffffffffffffffffffff83818316178352505050506104ec565b5050565b610638816040516024016105b69190610b3e565b6040516020818303038152906040527f41304fac000000000000000000000000000000000000000000000000000000007bffffffffffffffffffffffffffffffffffffffffffffffffffffffff19166020820180517bffffffffffffffffffffffffffffffffffffffffffffffffffffffff83818316178352505050506104ec565b50565b6106d38282604051602401610651929190610b60565b6040516020818303038152906040527fc3b55635000000000000000000000000000000000000000000000000000000007bffffffffffffffffffffffffffffffffffffffffffffffffffffffff19166020820180517bffffffffffffffffffffffffffffffffffffffffffffffffffffffff83818316178352505050506104ec565b5050565b60006a636f6e736f6c652e6c6f679050600080835160208501845afa505050565b610703819050919050565b61070b610b90565b565b600073ffffffffffffffffffffffffffffffffffffffff82169050919050565b6000819050919050565b600061075261074d6107488461070d565b61072d565b61070d565b9050919050565b600061076482610737565b9050919050565b600061077682610759565b9050919050565b6107868161076b565b82525050565b60006020820190506107a1600083018461077d565b92915050565b600080fd5b60006107b78261070d565b9050919050565b6107c7816107ac565b81146107d257600080fd5b50565b6000813590506107e4816107be565b92915050565b6000819050919050565b6107fd816107ea565b811461080857600080fd5b50565b60008135905061081a816107f4565b92915050565b600080600060608486031215610839576108386107a7565b5b6000610847868287016107d5565b93505060206108588682870161080b565b92505060406108698682870161080b565b9150509250925092565b60008115159050919050565b61088881610873565b82525050565b60006020820190506108a3600083018461087f565b92915050565b6000602082840312156108bf576108be6107a7565b5b60006108cd8482850161080b565b91505092915050565b600081519050919050565b600082825260208201905092915050565b60005b838110156109105780820151818401526020810190506108f5565b60008484015250505050565b6000601f19601f8301169050919050565b6000610938826108d6565b61094281856108e1565b93506109528185602086016108f2565b61095b8161091c565b840191505092915050565b61096f816107ea565b82525050565b6000604082019050818103600083015261098f818561092d565b905061099e6020830184610966565b9392505050565b7f4e487b7100000000000000000000000000000000000000000000000000000000600052601160045260246000fd5b60006109df826107ea565b91506109ea836107ea565b9250828201905080821115610a0257610a016109a5565b5b92915050565b6000610a13826107ea565b9150610a1e836107ea565b9250828202610a2c816107ea565b91508282048414831517610a4357610a426109a5565b5b5092915050565b610a5381610873565b8114610a5e57600080fd5b50565b600081519050610a7081610a4a565b92915050565b600060208284031215610a8c57610a8b6107a7565b5b6000610a9a84828501610a61565b91505092915050565b6000610aae82610737565b9050919050565b6000610ac082610aa3565b9050919050565b610ad081610ab5565b82525050565b6000604082019050610aeb6000830185610ac7565b610af86020830184610966565b9392505050565b610b08816107ac565b82525050565b60006040820190508181036000830152610b28818561092d565b9050610b376020830184610aff565b9392505050565b60006020820190508181036000830152610b58818461092d565b905092915050565b60006040820190508181036000830152610b7a818561092d565b9050610b89602083018461087f565b9392505050565b7f4e487b7100000000000000000000000000000000000000000000000000000000600052605160045260246000fdfe4578616d706c65426f72726f776572207374617274696e6720666c617368206c6f616e4578616d706c65426f72726f7765722070616964206261636b20666c617368206c6f616e4578616d706c65426f72726f7765722046616c6c6261636b2c205265636569766564202573a264697066735822122060274aeb078b2b1fa69fcf17666331d79993e0c946f4f9fa5c585832dd4f55d364736f6c63430008130033",
  "linkReferences": {},
  "deployedLinkReferences": {}
}