{
  "_format": "hh-sol-artifact-1",
  "contractName": "ExampleBorrower",
  "sourceName": "contracts/ExampleBorrower.sol",
  "abi": [
    {
      "inputs": [],
      "name": "channelLogic",
      "outputs": [
        {
          "internalType": "contract ChannelLogic",
          "name": "",
          "type": "address"
        }
      ],
      "stateMutability": "view",
      "type": "function"
    },
    {
      "inputs": [
        {
          "internalType": "address",
          "name": "initiator",
          "type": "address"
        },
        {
          "internalType": "uint256",
          "name": "amount",
          "type": "uint256"
        },
        {
          "internalType": "uint256",
          "name": "fee",
          "type": "uint256"
        }
      ],
      "name": "onFlashLoan",
      "outputs": [
        {
          "internalType": "bool",
          "name": "",
          "type": "bool"
        }
      ],
      "stateMutability": "nonpayable",
      "type": "function"
    },
    {
      "inputs": [],
      "name": "receiver",
      "outputs": [],
      "stateMutability": "payable",
      "type": "function"
    },
    {
      "inputs": [],
      "name": "startFlashLoan",
      "outputs": [],
      "stateMutability": "nonpayable",
      "type": "function"
    },
    {
      "stateMutability": "payable",
      "type": "receive"
    }
  ],
  "bytecode": "0x6080604052735fbdb2315678afecb367f032d93f642f64180aa36000806101000a81548173ffffffffffffffffffffffffffffffffffffffff021916908373ffffffffffffffffffffffffffffffffffffffff16021790555034801561006457600080fd5b50610bc5806100746000396000f3fe6080604052600436106100435760003560e01c806332f7dec41461008e5780636d2b653f146100b9578063c243022f146100f6578063f7260d3e1461010d57610089565b36610089576100876040518060400160405280601b81526020017f4578616d706c65426f72726f776572205265636569766564202573000000000081525034610117565b005b600080fd5b34801561009a57600080fd5b506100a36101b3565b6040516100b09190610749565b60405180910390f35b3480156100c557600080fd5b506100e060048036038101906100db91906107dd565b6101d7565b6040516100ed919061084b565b60405180910390f35b34801561010257600080fd5b5061010b610360565b005b610115610468565b005b6101af828260405160240161012d929190610905565b6040516020818303038152906040527fb60e72cc000000000000000000000000000000000000000000000000000000007bffffffffffffffffffffffffffffffffffffffffffffffffffffffff19166020820180517bffffffffffffffffffffffffffffffffffffffffffffffffffffffff83818316178352505050506104a9565b5050565b60008054906101000a900473ffffffffffffffffffffffffffffffffffffffff1681565b60006102186040518060400160405280601b81526020017f466c617368206c6f616e20696e697469617465642062793a2025730000000000815250856104c3565b6102576040518060400160405280600a81526020017f416d6f756e743a2025730000000000000000000000000000000000000000000081525084610117565b6102966040518060400160405280600781526020017f4665653a2025730000000000000000000000000000000000000000000000000081525083610117565b60008054906101000a900473ffffffffffffffffffffffffffffffffffffffff1673ffffffffffffffffffffffffffffffffffffffff1663019f64cc83856102de9190610964565b6040518263ffffffff1660e01b815260040160206040518083038185885af115801561030e573d6000803e3d6000fd5b50505050506040513d601f19601f8201168201806040525081019061033391906109c4565b50610355604051806060016040528060248152602001610b6c6024913961055f565b600190509392505050565b610381604051806060016040528060238152602001610b496023913961055f565b60008060009054906101000a900473ffffffffffffffffffffffffffffffffffffffff1673ffffffffffffffffffffffffffffffffffffffff16639d9e465c306101f46040518363ffffffff1660e01b81526004016103e1929190610a5f565b6020604051808303816000875af1158015610400573d6000803e3d6000fd5b505050506040513d601f19601f8201168201806040525081019061042491906109c4565b90506104656040518060400160405280601581526020017f466c617368206c6f616e20726573756c743a2025730000000000000000000000815250826105f8565b50565b6104a76040518060400160405280600b81526020017f526563656976657220257300000000000000000000000000000000000000000081525034610117565b565b6104c0816104b86106946106b5565b63ffffffff16565b50565b61055b82826040516024016104d9929190610a97565b6040516020818303038152906040527f319af333000000000000000000000000000000000000000000000000000000007bffffffffffffffffffffffffffffffffffffffffffffffffffffffff19166020820180517bffffffffffffffffffffffffffffffffffffffffffffffffffffffff83818316178352505050506104a9565b5050565b6105f5816040516024016105739190610ac7565b6040516020818303038152906040527f41304fac000000000000000000000000000000000000000000000000000000007bffffffffffffffffffffffffffffffffffffffffffffffffffffffff19166020820180517bffffffffffffffffffffffffffffffffffffffffffffffffffffffff83818316178352505050506104a9565b50565b610690828260405160240161060e929190610ae9565b6040516020818303038152906040527fc3b55635000000000000000000000000000000000000000000000000000000007bffffffffffffffffffffffffffffffffffffffffffffffffffffffff19166020820180517bffffffffffffffffffffffffffffffffffffffffffffffffffffffff83818316178352505050506104a9565b5050565b60006a636f6e736f6c652e6c6f679050600080835160208501845afa505050565b6106c0819050919050565b6106c8610b19565b565b600073ffffffffffffffffffffffffffffffffffffffff82169050919050565b6000819050919050565b600061070f61070a610705846106ca565b6106ea565b6106ca565b9050919050565b6000610721826106f4565b9050919050565b600061073382610716565b9050919050565b61074381610728565b82525050565b600060208201905061075e600083018461073a565b92915050565b600080fd5b6000610774826106ca565b9050919050565b61078481610769565b811461078f57600080fd5b50565b6000813590506107a18161077b565b92915050565b6000819050919050565b6107ba816107a7565b81146107c557600080fd5b50565b6000813590506107d7816107b1565b92915050565b6000806000606084860312156107f6576107f5610764565b5b600061080486828701610792565b9350506020610815868287016107c8565b9250506040610826868287016107c8565b9150509250925092565b60008115159050919050565b61084581610830565b82525050565b6000602082019050610860600083018461083c565b92915050565b600081519050919050565b600082825260208201905092915050565b60005b838110156108a0578082015181840152602081019050610885565b60008484015250505050565b6000601f19601f8301169050919050565b60006108c882610866565b6108d28185610871565b93506108e2818560208601610882565b6108eb816108ac565b840191505092915050565b6108ff816107a7565b82525050565b6000604082019050818103600083015261091f81856108bd565b905061092e60208301846108f6565b9392505050565b7f4e487b7100000000000000000000000000000000000000000000000000000000600052601160045260246000fd5b600061096f826107a7565b915061097a836107a7565b925082820190508082111561099257610991610935565b5b92915050565b6109a181610830565b81146109ac57600080fd5b50565b6000815190506109be81610998565b92915050565b6000602082840312156109da576109d9610764565b5b60006109e8848285016109af565b91505092915050565b60006109fc826106f4565b9050919050565b6000610a0e826109f1565b9050919050565b610a1e81610a03565b82525050565b6000819050919050565b6000610a49610a44610a3f84610a24565b6106ea565b6107a7565b9050919050565b610a5981610a2e565b82525050565b6000604082019050610a746000830185610a15565b610a816020830184610a50565b9392505050565b610a9181610769565b82525050565b60006040820190508181036000830152610ab181856108bd565b9050610ac06020830184610a88565b9392505050565b60006020820190508181036000830152610ae181846108bd565b905092915050565b60006040820190508181036000830152610b0381856108bd565b9050610b12602083018461083c565b9392505050565b7f4e487b7100000000000000000000000000000000000000000000000000000000600052605160045260246000fdfe4578616d706c65426f72726f776572207374617274696e6720666c617368206c6f616e4578616d706c65426f72726f7765722070616964206261636b20666c617368206c6f616ea26469706673582212208b88299dc2b62d071bb409de9a55a61bcc45e4a07f1a5cebf509ee2c7295ab6c64736f6c63430008130033",
  "linkReferences": {},
  "deployedLinkReferences": {}
}