{
  "_format": "hh-sol-artifact-1",
  "contractName": "ExampleBorrower",
  "sourceName": "contracts/ExampleBorrower.sol",
  "abi": [
    {
      "inputs": [],
      "name": "channelLogic",
      "outputs": [
        {
          "internalType": "contract ChannelLogic",
          "name": "",
          "type": "address"
        }
      ],
      "stateMutability": "view",
      "type": "function"
    },
    {
      "inputs": [
        {
          "internalType": "address",
          "name": "initiator",
          "type": "address"
        },
        {
          "internalType": "uint256",
          "name": "amount",
          "type": "uint256"
        },
        {
          "internalType": "uint256",
          "name": "fee",
          "type": "uint256"
        }
      ],
      "name": "onFlashLoan",
      "outputs": [
        {
          "internalType": "bool",
          "name": "",
          "type": "bool"
        }
      ],
      "stateMutability": "nonpayable",
      "type": "function"
    },
    {
      "inputs": [],
      "name": "startFlashLoan",
      "outputs": [],
      "stateMutability": "nonpayable",
      "type": "function"
    }
  ],
  "bytecode": "0x608060405234801561001057600080fd5b506108b7806100206000396000f3fe608060405234801561001057600080fd5b50600436106100415760003560e01c806332f7dec4146100465780636d2b653f14610064578063c243022f14610094575b600080fd5b61004e61009e565b60405161005b91906104d4565b60405180910390f35b61007e60048036038101906100799190610568565b6100c2565b60405161008b91906105d6565b60405180910390f35b61009c61022a565b005b60008054906101000a900473ffffffffffffffffffffffffffffffffffffffff1681565b60006101036040518060400160405280601b81526020017f466c617368206c6f616e20696e697469617465642062793a2025730000000000815250856102cd565b6101426040518060400160405280600a81526020017f416d6f756e743a2025730000000000000000000000000000000000000000000081525084610369565b6101816040518060400160405280600781526020017f4665653a2025730000000000000000000000000000000000000000000000000081525083610369565b60008054906101000a900473ffffffffffffffffffffffffffffffffffffffff1673ffffffffffffffffffffffffffffffffffffffff1663019f64cc83856101c99190610620565b6040518263ffffffff1660e01b815260040160206040518083038185885af11580156101f9573d6000803e3d6000fd5b50505050506040513d601f19601f8201168201806040525081019061021e9190610680565b50600190509392505050565b60008054906101000a900473ffffffffffffffffffffffffffffffffffffffff1673ffffffffffffffffffffffffffffffffffffffff16639d9e465c306101f46040518363ffffffff1660e01b815260040161028792919061071b565b6020604051808303816000875af11580156102a6573d6000803e3d6000fd5b505050506040513d601f19601f820116820180604052508101906102ca9190610680565b50565b61036582826040516024016102e39291906107e3565b6040516020818303038152906040527f319af333000000000000000000000000000000000000000000000000000000007bffffffffffffffffffffffffffffffffffffffffffffffffffffffff19166020820180517bffffffffffffffffffffffffffffffffffffffffffffffffffffffff8381831617835250505050610405565b5050565b610401828260405160240161037f929190610822565b6040516020818303038152906040527fb60e72cc000000000000000000000000000000000000000000000000000000007bffffffffffffffffffffffffffffffffffffffffffffffffffffffff19166020820180517bffffffffffffffffffffffffffffffffffffffffffffffffffffffff8381831617835250505050610405565b5050565b61041c8161041461041f610440565b63ffffffff16565b50565b60006a636f6e736f6c652e6c6f679050600080835160208501845afa505050565b61044b819050919050565b610453610852565b565b600073ffffffffffffffffffffffffffffffffffffffff82169050919050565b6000819050919050565b600061049a61049561049084610455565b610475565b610455565b9050919050565b60006104ac8261047f565b9050919050565b60006104be826104a1565b9050919050565b6104ce816104b3565b82525050565b60006020820190506104e960008301846104c5565b92915050565b600080fd5b60006104ff82610455565b9050919050565b61050f816104f4565b811461051a57600080fd5b50565b60008135905061052c81610506565b92915050565b6000819050919050565b61054581610532565b811461055057600080fd5b50565b6000813590506105628161053c565b92915050565b600080600060608486031215610581576105806104ef565b5b600061058f8682870161051d565b93505060206105a086828701610553565b92505060406105b186828701610553565b9150509250925092565b60008115159050919050565b6105d0816105bb565b82525050565b60006020820190506105eb60008301846105c7565b92915050565b7f4e487b7100000000000000000000000000000000000000000000000000000000600052601160045260246000fd5b600061062b82610532565b915061063683610532565b925082820190508082111561064e5761064d6105f1565b5b92915050565b61065d816105bb565b811461066857600080fd5b50565b60008151905061067a81610654565b92915050565b600060208284031215610696576106956104ef565b5b60006106a48482850161066b565b91505092915050565b60006106b88261047f565b9050919050565b60006106ca826106ad565b9050919050565b6106da816106bf565b82525050565b6000819050919050565b60006107056107006106fb846106e0565b610475565b610532565b9050919050565b610715816106ea565b82525050565b600060408201905061073060008301856106d1565b61073d602083018461070c565b9392505050565b600081519050919050565b600082825260208201905092915050565b60005b8381101561077e578082015181840152602081019050610763565b60008484015250505050565b6000601f19601f8301169050919050565b60006107a682610744565b6107b0818561074f565b93506107c0818560208601610760565b6107c98161078a565b840191505092915050565b6107dd816104f4565b82525050565b600060408201905081810360008301526107fd818561079b565b905061080c60208301846107d4565b9392505050565b61081c81610532565b82525050565b6000604082019050818103600083015261083c818561079b565b905061084b6020830184610813565b9392505050565b7f4e487b7100000000000000000000000000000000000000000000000000000000600052605160045260246000fdfea2646970667358221220a5794dba5782d3436ce106ccbdbdaa5a67bde76c4ffb5f5bb602189f2b96491d64736f6c63430008130033",
  "linkReferences": {},
  "deployedLinkReferences": {}
}