{
  "_format": "hh-sol-artifact-1",
  "contractName": "FlashLoan",
  "sourceName": "contracts/FlashLoan.sol",
  "abi": [
    {
      "anonymous": false,
      "inputs": [
        {
          "indexed": true,
          "internalType": "uint256",
          "name": "transactionId",
          "type": "uint256"
        },
        {
          "indexed": false,
          "internalType": "address",
          "name": "sender",
          "type": "address"
        },
        {
          "indexed": false,
          "internalType": "address",
          "name": "receiver",
          "type": "address"
        },
        {
          "indexed": false,
          "internalType": "uint256",
          "name": "amount",
          "type": "uint256"
        }
      ],
      "name": "NewTransaction",
      "type": "event"
    },
    {
      "anonymous": false,
      "inputs": [
        {
          "indexed": false,
          "internalType": "int256",
          "name": "channel_id",
          "type": "int256"
        },
        {
          "indexed": false,
          "internalType": "address",
          "name": "party",
          "type": "address"
        }
      ],
      "name": "PartyFinalized",
      "type": "event"
    },
    {
      "inputs": [],
      "name": "Contract_Balance",
      "outputs": [
        {
          "internalType": "uint256",
          "name": "",
          "type": "uint256"
        }
      ],
      "stateMutability": "view",
      "type": "function"
    },
    {
      "inputs": [
        {
          "internalType": "int256",
          "name": "",
          "type": "int256"
        }
      ],
      "name": "balances",
      "outputs": [
        {
          "internalType": "uint256",
          "name": "",
          "type": "uint256"
        }
      ],
      "stateMutability": "view",
      "type": "function"
    },
    {
      "inputs": [],
      "name": "channel_count",
      "outputs": [
        {
          "internalType": "int256",
          "name": "",
          "type": "int256"
        }
      ],
      "stateMutability": "view",
      "type": "function"
    },
    {
      "inputs": [
        {
          "internalType": "int256",
          "name": "",
          "type": "int256"
        }
      ],
      "name": "channels",
      "outputs": [
        {
          "components": [
            {
              "internalType": "int256",
              "name": "channel_id",
              "type": "int256"
            },
            {
              "internalType": "uint256",
              "name": "balance_A",
              "type": "uint256"
            },
            {
              "internalType": "uint256",
              "name": "balance_B",
              "type": "uint256"
            },
            {
              "internalType": "int256",
              "name": "version_num",
              "type": "int256"
            },
            {
              "internalType": "bool",
              "name": "finalized_a",
              "type": "bool"
            },
            {
              "internalType": "bool",
              "name": "finalized_b",
              "type": "bool"
            }
          ],
          "internalType": "struct Channel_State",
          "name": "state",
          "type": "tuple"
        },
        {
          "components": [
            {
              "components": [
                {
                  "internalType": "address payable",
                  "name": "addresse",
                  "type": "address"
                }
              ],
              "internalType": "struct Participant",
              "name": "participant_a",
              "type": "tuple"
            },
            {
              "components": [
                {
                  "internalType": "address payable",
                  "name": "addresse",
                  "type": "address"
                }
              ],
              "internalType": "struct Participant",
              "name": "participant_b",
              "type": "tuple"
            }
          ],
          "internalType": "struct Channel_Params",
          "name": "params",
          "type": "tuple"
        },
        {
          "components": [
            {
              "internalType": "bool",
              "name": "funded_a",
              "type": "bool"
            },
            {
              "internalType": "bool",
              "name": "funded_b",
              "type": "bool"
            }
          ],
          "internalType": "struct Channel_Control",
          "name": "control",
          "type": "tuple"
        }
      ],
      "stateMutability": "view",
      "type": "function"
    },
    {
      "inputs": [
        {
          "internalType": "int256",
          "name": "channel_id",
          "type": "int256"
        },
        {
          "internalType": "address",
          "name": "caller",
          "type": "address"
        }
      ],
      "name": "close",
      "outputs": [],
      "stateMutability": "nonpayable",
      "type": "function"
    },
    {
      "inputs": [
        {
          "internalType": "int256",
          "name": "channel_id",
          "type": "int256"
        }
      ],
      "name": "finalize",
      "outputs": [],
      "stateMutability": "nonpayable",
      "type": "function"
    },
    {
      "inputs": [
        {
          "internalType": "contract FlashBorrower",
          "name": "receiver",
          "type": "address"
        },
        {
          "internalType": "uint256",
          "name": "amount",
          "type": "uint256"
        },
        {
          "internalType": "bytes",
          "name": "data",
          "type": "bytes"
        }
      ],
      "name": "flashLoan",
      "outputs": [
        {
          "internalType": "bool",
          "name": "",
          "type": "bool"
        }
      ],
      "stateMutability": "nonpayable",
      "type": "function"
    },
    {
      "inputs": [
        {
          "internalType": "int256",
          "name": "channel_id",
          "type": "int256"
        },
        {
          "internalType": "address",
          "name": "caller",
          "type": "address"
        },
        {
          "internalType": "uint256",
          "name": "amount",
          "type": "uint256"
        }
      ],
      "name": "fund",
      "outputs": [],
      "stateMutability": "nonpayable",
      "type": "function"
    },
    {
      "inputs": [
        {
          "components": [
            {
              "components": [
                {
                  "internalType": "address payable",
                  "name": "addresse",
                  "type": "address"
                }
              ],
              "internalType": "struct Participant",
              "name": "participant_a",
              "type": "tuple"
            },
            {
              "components": [
                {
                  "internalType": "address payable",
                  "name": "addresse",
                  "type": "address"
                }
              ],
              "internalType": "struct Participant",
              "name": "participant_b",
              "type": "tuple"
            }
          ],
          "internalType": "struct Channel_Params",
          "name": "params",
          "type": "tuple"
        }
      ],
      "name": "open",
      "outputs": [],
      "stateMutability": "nonpayable",
      "type": "function"
    },
    {
      "inputs": [
        {
          "internalType": "uint256",
          "name": "",
          "type": "uint256"
        }
      ],
      "name": "participants",
      "outputs": [
        {
          "internalType": "address payable",
          "name": "addresse",
          "type": "address"
        }
      ],
      "stateMutability": "view",
      "type": "function"
    },
    {
      "inputs": [
        {
          "internalType": "int256",
          "name": "channel_id",
          "type": "int256"
        },
        {
          "internalType": "address",
          "name": "caller",
          "type": "address"
        },
        {
          "internalType": "uint256",
          "name": "amount",
          "type": "uint256"
        }
      ],
      "name": "pay",
      "outputs": [],
      "stateMutability": "nonpayable",
      "type": "function"
    },
    {
      "inputs": [
        {
          "internalType": "int256",
          "name": "channel_id",
          "type": "int256"
        }
      ],
      "name": "updateContractBalance",
      "outputs": [],
      "stateMutability": "nonpayable",
      "type": "function"
    }
  ],
  "bytecode": "0x6080604052600080556000600255600060035534801561001e57600080fd5b506126218061002e6000396000f3fe608060405234801561001057600080fd5b50600436106100b45760003560e01c8063c00fcb2f11610071578063c00fcb2f1461018d578063c8d53721146101a9578063d25da264146101c7578063e0232b42146101e3578063e94ebae914610213578063f6d5c8a01461022f576100b4565b80630d057a7d146100b95780631e265978146100d557806335c1d34914610107578063a9e3d44414610137578063b6c2532a14610155578063b921a07e14610171575b600080fd5b6100d360048036038101906100ce91906118f9565b61025f565b005b6100ef60048036038101906100ea919061194c565b610767565b6040516100fe93929190611ac8565b60405180910390f35b610121600480360381019061011c9190611b01565b610917565b60405161012e9190611b3d565b60405180910390f35b61013f610961565b60405161014c9190611b67565b60405180910390f35b61016f600480360381019061016a91906118f9565b610967565b005b61018b60048036038101906101869190611ba6565b610dfd565b005b6101a760048036038101906101a29190611bd3565b6110c5565b005b6101b1611490565b6040516101be9190611c22565b60405180910390f35b6101e160048036038101906101dc919061194c565b611496565b005b6101fd60048036038101906101f89190611ce0565b6116c7565b60405161020a9190611d63565b60405180910390f35b61022d6004803603810190610228919061194c565b6116d5565b005b6102496004803603810190610244919061194c565b611729565b6040516102569190611b67565b60405180910390f35b6000836004600086815260200190815260200160002060000160000154146102bc576040517f08c379a00000000000000000000000000000000000000000000000000000000081526004016102b390611ddb565b60405180910390fd5b8273ffffffffffffffffffffffffffffffffffffffff166004600086815260200190815260200160002060050160000160000160009054906101000a900473ffffffffffffffffffffffffffffffffffffffff1673ffffffffffffffffffffffffffffffffffffffff16148061039957508273ffffffffffffffffffffffffffffffffffffffff166004600086815260200190815260200160002060050160010160000160009054906101000a900473ffffffffffffffffffffffffffffffffffffffff1673ffffffffffffffffffffffffffffffffffffffff16145b6103d8576040517f08c379a00000000000000000000000000000000000000000000000000000000081526004016103cf90611e6d565b60405180910390fd5b8273ffffffffffffffffffffffffffffffffffffffff166004600086815260200190815260200160002060050160010160000160009054906101000a900473ffffffffffffffffffffffffffffffffffffffff1673ffffffffffffffffffffffffffffffffffffffff160361044c57600190505b80156105135781600460008681526020019081526020016000206000016001015410156104ae576040517f08c379a00000000000000000000000000000000000000000000000000000000081526004016104a590611ed9565b60405180910390fd5b816004600086815260200190815260200160002060000160010160008282546104d79190611f28565b92505081905550816004600086815260200190815260200160002060000160020160008282546105079190611f5c565b925050819055506105d0565b816004600086815260200190815260200160002060000160020154101561056f576040517f08c379a000000000000000000000000000000000000000000000000000000000815260040161056690611ed9565b60405180910390fd5b816004600086815260200190815260200160002060000160020160008282546105989190611f28565b92505081905550816004600086815260200190815260200160002060000160010160008282546105c89190611f5c565b925050819055505b60006004600086815260200190815260200160002060000160040160006101000a81548160ff02191690831515021790555060006004600086815260200190815260200160002060000160040160016101000a81548160ff02191690831515021790555060046000858152602001908152602001600020600001600301600081548092919061065e90611f90565b919050555080156106e75760017f4d59cb18dd52ef14d5f24e486b34907f69f29e9f06e06c1a730b4e87d83df9dd336004600088815260200190815260200160002060050160010160000160009054906101000a900473ffffffffffffffffffffffffffffffffffffffff16856040516106da93929190612046565b60405180910390a2610761565b60017f4d59cb18dd52ef14d5f24e486b34907f69f29e9f06e06c1a730b4e87d83df9dd336004600088815260200190815260200160002060050160000160000160009054906101000a900473ffffffffffffffffffffffffffffffffffffffff168560405161075893929190612046565b60405180910390a25b50505050565b6004602052806000526040600020600091509050806000016040518060c0016040529081600082015481526020016001820154815260200160028201548152602001600382015481526020016004820160009054906101000a900460ff161515151581526020016004820160019054906101000a900460ff1615151515815250509080600501604051806040016040529081600082016040518060200160405290816000820160009054906101000a900473ffffffffffffffffffffffffffffffffffffffff1673ffffffffffffffffffffffffffffffffffffffff1673ffffffffffffffffffffffffffffffffffffffff16815250508152602001600182016040518060200160405290816000820160009054906101000a900473ffffffffffffffffffffffffffffffffffffffff1673ffffffffffffffffffffffffffffffffffffffff1673ffffffffffffffffffffffffffffffffffffffff16815250508152505090806007016040518060400160405290816000820160009054906101000a900460ff161515151581526020016000820160019054906101000a900460ff161515151581525050905083565b6001818154811061092757600080fd5b906000526020600020016000915090508060000160009054906101000a900473ffffffffffffffffffffffffffffffffffffffff16905081565b60005481565b600060046000858152602001908152602001600020604051806060016040529081600082016040518060c0016040529081600082015481526020016001820154815260200160028201548152602001600382015481526020016004820160009054906101000a900460ff161515151581526020016004820160019054906101000a900460ff161515151581525050815260200160058201604051806040016040529081600082016040518060200160405290816000820160009054906101000a900473ffffffffffffffffffffffffffffffffffffffff1673ffffffffffffffffffffffffffffffffffffffff1673ffffffffffffffffffffffffffffffffffffffff16815250508152602001600182016040518060200160405290816000820160009054906101000a900473ffffffffffffffffffffffffffffffffffffffff1673ffffffffffffffffffffffffffffffffffffffff1673ffffffffffffffffffffffffffffffffffffffff1681525050815250508152602001600782016040518060400160405290816000820160009054906101000a900460ff161515151581526020016000820160019054906101000a900460ff1615151515815250508152505090508381600001516000015114610b77576040517f08c379a0000000000000000000000000000000000000000000000000000000008152600401610b6e90611ddb565b60405180910390fd5b600015158160000151608001511515148015610b9f575060001515816000015160a001511515145b610bde576040517f08c379a0000000000000000000000000000000000000000000000000000000008152600401610bd5906120c9565b60405180910390fd5b8060200151600001516000015173ffffffffffffffffffffffffffffffffffffffff168373ffffffffffffffffffffffffffffffffffffffff1603610cb15760001515816040015160000151151514610c6c576040517f08c379a0000000000000000000000000000000000000000000000000000000008152600401610c6390612135565b60405180910390fd5b818160000151602001818151610c829190611f5c565b915081815250506001816040015160000190151590811515815250508181600001516020018181525050610dc0565b8060200151602001516000015173ffffffffffffffffffffffffffffffffffffffff168373ffffffffffffffffffffffffffffffffffffffff1603610d845760001515816040015160200151151514610d3f576040517f08c379a0000000000000000000000000000000000000000000000000000000008152600401610d36906121a1565b60405180910390fd5b818160000151604001818151610d559190611f5c565b915081815250506001816040015160200190151590811515815250508181600001516040018181525050610dbf565b6040517f08c379a0000000000000000000000000000000000000000000000000000000008152600401610db69061220d565b60405180910390fd5b5b600115158160400151600001511515148015610de85750600115158160400151602001511515145b15610df757610df6846116d5565b5b50505050565b610e05611741565b600254816000015160000181815250506000816000015160200181815250506000816000015160400181815250506000816000015160600181815250506000816000015160800190151590811515815250506000816000015160a001901515908115158152505081803603810190610e7d9190612376565b8160200181905250600081604001516000019015159081151581525050600081604001516020019015159081151581525050806004600060025481526020019081526020016000206000820151816000016000820151816000015560208201518160010155604082015181600201556060820151816003015560808201518160040160006101000a81548160ff02191690831515021790555060a08201518160040160016101000a81548160ff021916908315150217905550505060208201518160050160008201518160000160008201518160000160006101000a81548173ffffffffffffffffffffffffffffffffffffffff021916908373ffffffffffffffffffffffffffffffffffffffff160217905550505060208201518160010160008201518160000160006101000a81548173ffffffffffffffffffffffffffffffffffffffff021916908373ffffffffffffffffffffffffffffffffffffffff1602179055505050505060408201518160070160008201518160000160006101000a81548160ff02191690831515021790555060208201518160000160016101000a81548160ff021916908315150217905550505090505060018260000190806001815401808255809150506001900390600052602060002001600090919091909150818161106c9190612472565b50506001826020019080600181540180825580915050600190039060005260206000200160009091909190915081816110a59190612472565b50506001600260008282546110ba9190612480565b925050819055505050565b81600460008481526020019081526020016000206000016000015414611120576040517f08c379a000000000000000000000000000000000000000000000000000000000815260040161111790611ddb565b60405180910390fd5b8073ffffffffffffffffffffffffffffffffffffffff166004600084815260200190815260200160002060050160000160000160009054906101000a900473ffffffffffffffffffffffffffffffffffffffff1673ffffffffffffffffffffffffffffffffffffffff1614806111fd57508073ffffffffffffffffffffffffffffffffffffffff166004600084815260200190815260200160002060050160010160000160009054906101000a900473ffffffffffffffffffffffffffffffffffffffff1673ffffffffffffffffffffffffffffffffffffffff16145b61123c576040517f08c379a000000000000000000000000000000000000000000000000000000000815260040161123390612536565b60405180910390fd5b600015156004600084815260200190815260200160002060000160040160009054906101000a900460ff1615151480156112a05750600015156004600084815260200190815260200160002060000160040160019054906101000a900460ff161515145b6112df576040517f08c379a00000000000000000000000000000000000000000000000000000000081526004016112d6906125a2565b60405180910390fd5b8073ffffffffffffffffffffffffffffffffffffffff166004600084815260200190815260200160002060050160000160000160009054906101000a900473ffffffffffffffffffffffffffffffffffffffff1673ffffffffffffffffffffffffffffffffffffffff16036113ef576004600083815260200190815260200160002060050160000160000160009054906101000a900473ffffffffffffffffffffffffffffffffffffffff1673ffffffffffffffffffffffffffffffffffffffff166108fc60046000858152602001908152602001600020600001600101549081150290604051600060405180830381858888f193505050501580156113e9573d6000803e3d6000fd5b5061148c565b6004600083815260200190815260200160002060050160010160000160009054906101000a900473ffffffffffffffffffffffffffffffffffffffff1673ffffffffffffffffffffffffffffffffffffffff166108fc60046000858152602001908152602001600020600001600201549081150290604051600060405180830381858888f1935050505015801561148a573d6000803e3d6000fd5b505b5050565b60025481565b3373ffffffffffffffffffffffffffffffffffffffff166004600083815260200190815260200160002060050160000160000160009054906101000a900473ffffffffffffffffffffffffffffffffffffffff1673ffffffffffffffffffffffffffffffffffffffff16148061157357503373ffffffffffffffffffffffffffffffffffffffff166004600083815260200190815260200160002060050160010160000160009054906101000a900473ffffffffffffffffffffffffffffffffffffffff1673ffffffffffffffffffffffffffffffffffffffff16145b6115b2576040517f08c379a00000000000000000000000000000000000000000000000000000000081526004016115a990611e6d565b60405180910390fd5b3373ffffffffffffffffffffffffffffffffffffffff166004600083815260200190815260200160002060050160000160000160009054906101000a900473ffffffffffffffffffffffffffffffffffffffff1673ffffffffffffffffffffffffffffffffffffffff16036116585760016004600083815260200190815260200160002060000160040160006101000a81548160ff02191690831515021790555061168b565b60016004600083815260200190815260200160002060000160040160016101000a81548160ff0219169083151502179055505b7fe4adeb81b8942e8b2c022f3df0c64f8349b486709e9ada3ab457817a3988c6d981336040516116bc9291906125c2565b60405180910390a150565b600060019050949350505050565b600460008281526020019081526020016000206000016002015460046000838152602001908152602001600020600001600101546000546117169190611f5c565b6117209190611f5c565b60008190555050565b60056020528060005260406000206000915090505481565b6040518060600160405280611754611774565b81526020016117616117ae565b815260200161176e6117d4565b81525090565b6040518060c00160405280600081526020016000815260200160008152602001600081526020016000151581526020016000151581525090565b60405180604001604052806117c16117f2565b81526020016117ce6117f2565b81525090565b60405180604001604052806000151581526020016000151581525090565b6040518060200160405280600073ffffffffffffffffffffffffffffffffffffffff1681525090565b6000604051905090565b600080fd5b600080fd5b6000819050919050565b6118428161182f565b811461184d57600080fd5b50565b60008135905061185f81611839565b92915050565b600073ffffffffffffffffffffffffffffffffffffffff82169050919050565b600061189082611865565b9050919050565b6118a081611885565b81146118ab57600080fd5b50565b6000813590506118bd81611897565b92915050565b6000819050919050565b6118d6816118c3565b81146118e157600080fd5b50565b6000813590506118f3816118cd565b92915050565b60008060006060848603121561191257611911611825565b5b600061192086828701611850565b9350506020611931868287016118ae565b9250506040611942868287016118e4565b9150509250925092565b60006020828403121561196257611961611825565b5b600061197084828501611850565b91505092915050565b6119828161182f565b82525050565b611991816118c3565b82525050565b60008115159050919050565b6119ac81611997565b82525050565b60c0820160008201516119c86000850182611979565b5060208201516119db6020850182611988565b5060408201516119ee6040850182611988565b506060820151611a016060850182611979565b506080820151611a1460808501826119a3565b5060a0820151611a2760a08501826119a3565b50505050565b6000611a3882611865565b9050919050565b611a4881611a2d565b82525050565b602082016000820151611a646000850182611a3f565b50505050565b604082016000820151611a806000850182611a4e565b506020820151611a936020850182611a4e565b50505050565b604082016000820151611aaf60008501826119a3565b506020820151611ac260208501826119a3565b50505050565b600061014082019050611ade60008301866119b2565b611aeb60c0830185611a6a565b611af9610100830184611a99565b949350505050565b600060208284031215611b1757611b16611825565b5b6000611b25848285016118e4565b91505092915050565b611b3781611a2d565b82525050565b6000602082019050611b526000830184611b2e565b92915050565b611b61816118c3565b82525050565b6000602082019050611b7c6000830184611b58565b92915050565b600080fd5b600060408284031215611b9d57611b9c611b82565b5b81905092915050565b600060408284031215611bbc57611bbb611825565b5b6000611bca84828501611b87565b91505092915050565b60008060408385031215611bea57611be9611825565b5b6000611bf885828601611850565b9250506020611c09858286016118ae565b9150509250929050565b611c1c8161182f565b82525050565b6000602082019050611c376000830184611c13565b92915050565b6000611c4882611885565b9050919050565b611c5881611c3d565b8114611c6357600080fd5b50565b600081359050611c7581611c4f565b92915050565b600080fd5b600080fd5b600080fd5b60008083601f840112611ca057611c9f611c7b565b5b8235905067ffffffffffffffff811115611cbd57611cbc611c80565b5b602083019150836001820283011115611cd957611cd8611c85565b5b9250929050565b60008060008060608587031215611cfa57611cf9611825565b5b6000611d0887828801611c66565b9450506020611d19878288016118e4565b935050604085013567ffffffffffffffff811115611d3a57611d3961182a565b5b611d4687828801611c8a565b925092505092959194509250565b611d5d81611997565b82525050565b6000602082019050611d786000830184611d54565b92915050565b600082825260208201905092915050565b7f4368616e6e656c20646f6573206e6f7420657869737400000000000000000000600082015250565b6000611dc5601683611d7e565b9150611dd082611d8f565b602082019050919050565b60006020820190508181036000830152611df481611db8565b9050919050565b7f43616c6c6572206973206e6f742070617274206f662074686520676976656e2060008201527f4368616e6e656c00000000000000000000000000000000000000000000000000602082015250565b6000611e57602783611d7e565b9150611e6282611dfb565b604082019050919050565b60006020820190508181036000830152611e8681611e4a565b9050919050565b7f42616c616e636520696e204368616e6e656c206973206e6f7420656e6f756768600082015250565b6000611ec3602083611d7e565b9150611ece82611e8d565b602082019050919050565b60006020820190508181036000830152611ef281611eb6565b9050919050565b7f4e487b7100000000000000000000000000000000000000000000000000000000600052601160045260246000fd5b6000611f33826118c3565b9150611f3e836118c3565b9250828203905081811115611f5657611f55611ef9565b5b92915050565b6000611f67826118c3565b9150611f72836118c3565b9250828201905080821115611f8a57611f89611ef9565b5b92915050565b6000611f9b8261182f565b91507f7fffffffffffffffffffffffffffffffffffffffffffffffffffffffffffffff8203611fcd57611fcc611ef9565b5b600182019050919050565b611fe181611885565b82525050565b6000819050919050565b600061200c61200761200284611865565b611fe7565b611865565b9050919050565b600061201e82611ff1565b9050919050565b600061203082612013565b9050919050565b61204081612025565b82525050565b600060608201905061205b6000830186611fd8565b6120686020830185612037565b6120756040830184611b58565b949350505050565b7f4368616e6e656c2069732066696e616c697a6564000000000000000000000000600082015250565b60006120b3601483611d7e565b91506120be8261207d565b602082019050919050565b600060208201905081810360008301526120e2816120a6565b9050919050565b7f5061727469636970616e74204120616c72656164792066756e64656400000000600082015250565b600061211f601c83611d7e565b915061212a826120e9565b602082019050919050565b6000602082019050818103600083015261214e81612112565b9050919050565b7f5061727469636970616e74204220616c72656164792066756e64656400000000600082015250565b600061218b601c83611d7e565b915061219682612155565b602082019050919050565b600060208201905081810360008301526121ba8161217e565b9050919050565b7f43616c6c6572206973206e6f742061207061727469636970616e740000000000600082015250565b60006121f7601b83611d7e565b9150612202826121c1565b602082019050919050565b60006020820190508181036000830152612226816121ea565b9050919050565b600080fd5b6000601f19601f8301169050919050565b7f4e487b7100000000000000000000000000000000000000000000000000000000600052604160045260246000fd5b61227b82612232565b810181811067ffffffffffffffff8211171561229a57612299612243565b5b80604052505050565b60006122ad61181b565b90506122b98282612272565b919050565b6122c781611a2d565b81146122d257600080fd5b50565b6000813590506122e4816122be565b92915050565b600060208284031215612300576122ff61222d565b5b61230a60206122a3565b9050600061231a848285016122d5565b60008301525092915050565b60006040828403121561233c5761233b61222d565b5b61234660406122a3565b90506000612356848285016122ea565b600083015250602061236a848285016122ea565b60208301525092915050565b60006040828403121561238c5761238b611825565b5b600061239a84828501612326565b91505092915050565b600081356123b0816122be565b80915050919050565b60008160001b9050919050565b600073ffffffffffffffffffffffffffffffffffffffff6123e6846123b9565b9350801983169250808416831791505092915050565b600061240782611ff1565b9050919050565b6000612419826123fc565b9050919050565b6000819050919050565b6124338261240e565b61244661243f82612420565b83546123c6565b8255505050565b60008101600083018061245f816123a3565b905061246b818461242a565b5050505050565b61247c828261244d565b5050565b600061248b8261182f565b91506124968361182f565b9250828201905082811215600083121683821260008412151617156124be576124bd611ef9565b5b92915050565b7f43616c6c6572206973206e6f742061207061727469636970616e74206f66207460008201527f686520676976656e206368616e6e656c00000000000000000000000000000000602082015250565b6000612520603083611d7e565b915061252b826124c4565b604082019050919050565b6000602082019050818103600083015261254f81612513565b9050919050565b7f4368616e6e656c20697320616c72656164792066696e616c6973656400000000600082015250565b600061258c601c83611d7e565b915061259782612556565b602082019050919050565b600060208201905081810360008301526125bb8161257f565b9050919050565b60006040820190506125d76000830185611c13565b6125e46020830184611fd8565b939250505056fea2646970667358221220614b753f7679fe8ad2354f2783720f35b0e5624f56e236bf255b13a81db35bca64736f6c63430008130033",
  "linkReferences": {},
  "deployedLinkReferences": {}
}